{
  "contractName": "AntkPrivate",
  "abi": [
    {
      "inputs": [
        {
          "internalType": "address",
          "name": "_ethPrice",
          "type": "address"
        },
        {
          "internalType": "address payable",
          "name": "_antkWallet",
          "type": "address"
        }
      ],
      "stateMutability": "nonpayable",
      "type": "constructor"
    },
    {
      "anonymous": false,
      "inputs": [
        {
          "indexed": false,
          "internalType": "enum AntkPrivate.SalesStatus",
          "name": "newStatus",
          "type": "uint8"
        }
      ],
      "name": "NewStatus",
      "type": "event"
    },
    {
      "anonymous": false,
      "inputs": [
        {
          "indexed": true,
          "internalType": "address",
          "name": "previousOwner",
          "type": "address"
        },
        {
          "indexed": true,
          "internalType": "address",
          "name": "newOwner",
          "type": "address"
        }
      ],
      "name": "OwnershipTransferred",
      "type": "event"
    },
    {
      "anonymous": false,
      "inputs": [
        {
          "indexed": false,
          "internalType": "address",
          "name": "addressBuyer",
          "type": "address"
        },
        {
          "indexed": false,
          "internalType": "uint256",
          "name": "numberOfTokensPurchased",
          "type": "uint256"
        },
        {
          "indexed": false,
          "internalType": "uint256",
          "name": "amountSpendInDollars",
          "type": "uint256"
        }
      ],
      "name": "TokensBuy",
      "type": "event"
    },
    {
      "inputs": [
        {
          "internalType": "address",
          "name": "",
          "type": "address"
        }
      ],
      "name": "investors",
      "outputs": [
        {
          "internalType": "uint128",
          "name": "numberOfTokensPurchased",
          "type": "uint128"
        },
        {
          "internalType": "uint128",
          "name": "amountSpendInDollars",
          "type": "uint128"
        },
        {
          "internalType": "uint128",
          "name": "bonusTokens",
          "type": "uint128"
        }
      ],
      "stateMutability": "view",
      "type": "function",
      "constant": true
    },
    {
      "inputs": [],
      "name": "numberOfTokenBonus",
      "outputs": [
        {
          "internalType": "uint256",
          "name": "",
          "type": "uint256"
        }
      ],
      "stateMutability": "view",
      "type": "function",
      "constant": true
    },
    {
      "inputs": [],
      "name": "numberOfTokenToSell",
      "outputs": [
        {
          "internalType": "uint256",
          "name": "",
          "type": "uint256"
        }
      ],
      "stateMutability": "view",
      "type": "function",
      "constant": true
    },
    {
      "inputs": [],
      "name": "owner",
      "outputs": [
        {
          "internalType": "address",
          "name": "",
          "type": "address"
        }
      ],
      "stateMutability": "view",
      "type": "function",
      "constant": true
    },
    {
      "inputs": [],
      "name": "renounceOwnership",
      "outputs": [],
      "stateMutability": "nonpayable",
      "type": "function"
    },
    {
      "inputs": [],
      "name": "salesStatus",
      "outputs": [
        {
          "internalType": "enum AntkPrivate.SalesStatus",
          "name": "",
          "type": "uint8"
        }
      ],
      "stateMutability": "view",
      "type": "function",
      "constant": true
    },
    {
      "inputs": [
        {
          "internalType": "address",
          "name": "newOwner",
          "type": "address"
        }
      ],
      "name": "transferOwnership",
      "outputs": [],
      "stateMutability": "nonpayable",
      "type": "function"
    },
    {
      "inputs": [
        {
          "internalType": "uint256",
          "name": "_idStatus",
          "type": "uint256"
        }
      ],
      "name": "changeSalesStatus",
      "outputs": [],
      "stateMutability": "nonpayable",
      "type": "function"
    },
    {
      "inputs": [
        {
          "internalType": "uint256",
          "name": "_amountDollars",
          "type": "uint256"
        }
      ],
      "name": "calculNumberOfTokenToBuy",
      "outputs": [
        {
          "internalType": "uint256",
          "name": "",
          "type": "uint256"
        }
      ],
      "stateMutability": "view",
      "type": "function",
      "constant": true
    },
    {
      "inputs": [],
      "name": "getLatestPrice",
      "outputs": [
        {
          "internalType": "uint256",
          "name": "",
          "type": "uint256"
        }
      ],
      "stateMutability": "view",
      "type": "function",
      "constant": true
    },
    {
      "inputs": [],
      "name": "buyTokenWithEth",
      "outputs": [],
      "stateMutability": "payable",
      "type": "function",
      "payable": true
    },
    {
      "inputs": [],
      "name": "getEth",
      "outputs": [],
      "stateMutability": "nonpayable",
      "type": "function"
    },
    {
      "inputs": [],
      "name": "getUsdt",
      "outputs": [],
      "stateMutability": "nonpayable",
      "type": "function"
    },
    {
      "inputs": [
        {
          "internalType": "uint256",
          "name": "_amountDollars",
          "type": "uint256"
        }
      ],
      "name": "buyTokenWithTether",
      "outputs": [],
      "stateMutability": "nonpayable",
      "type": "function"
    }
  ],
  "bytecode": "0x60c0604052631dacfebb600155629680746002553480156200002057600080fd5b5060405162001ff938038062001ff9833981810160405281019062000046919062000251565b620000666200005a620000d660201b60201c565b620000de60201b60201c565b8173ffffffffffffffffffffffffffffffffffffffff1660808173ffffffffffffffffffffffffffffffffffffffff16815250508073ffffffffffffffffffffffffffffffffffffffff1660a08173ffffffffffffffffffffffffffffffffffffffff1681525050505062000298565b600033905090565b60008060009054906101000a900473ffffffffffffffffffffffffffffffffffffffff169050816000806101000a81548173ffffffffffffffffffffffffffffffffffffffff021916908373ffffffffffffffffffffffffffffffffffffffff1602179055508173ffffffffffffffffffffffffffffffffffffffff168173ffffffffffffffffffffffffffffffffffffffff167f8be0079c531659141344cd1fd0a4f28419497f9722a3daafe3b4186f6b6457e060405160405180910390a35050565b600080fd5b600073ffffffffffffffffffffffffffffffffffffffff82169050919050565b6000620001d482620001a7565b9050919050565b620001e681620001c7565b8114620001f257600080fd5b50565b6000815190506200020681620001db565b92915050565b60006200021982620001a7565b9050919050565b6200022b816200020c565b81146200023757600080fd5b50565b6000815190506200024b8162000220565b92915050565b600080604083850312156200026b576200026a620001a2565b5b60006200027b85828601620001f5565b92505060206200028e858286016200023a565b9150509250929050565b60805160a051611d34620002c5600039600081816103bc0152610b4c01526000610aa00152611d346000f3fe6080604052600436106100dd5760003560e01c80636f7bc9be1161007f5780638e15f473116100595780638e15f4731461026b578063cb05b93e14610296578063eb51ebdd146102ad578063f2fde38b146102d6576100dd565b80636f7bc9be146101ea578063715018a6146102295780638da5cb5b14610240576100dd565b80633788a387116100bb5780633788a3871461016157806337d2047b1461016b5780635007bb5514610196578063533e9e7e146101bf576100dd565b8063089537ae146100e2578063252fb902146100f957806336d3421714610136575b600080fd5b3480156100ee57600080fd5b506100f76102ff565b005b34801561010557600080fd5b50610120600480360381019061011b919061127b565b610441565b60405161012d91906112b7565b60405180910390f35b34801561014257600080fd5b5061014b610637565b60405161015891906112b7565b60405180910390f35b61016961063d565b005b34801561017757600080fd5b50610180610937565b60405161018d9190611349565b60405180910390f35b3480156101a257600080fd5b506101bd60048036038101906101b8919061127b565b61094a565b005b3480156101cb57600080fd5b506101d46109da565b6040516101e191906112b7565b60405180910390f35b3480156101f657600080fd5b50610211600480360381019061020c91906113c2565b6109e0565b6040516102209392919061141a565b60405180910390f35b34801561023557600080fd5b5061023e610a5e565b005b34801561024c57600080fd5b50610255610a72565b6040516102629190611460565b60405180910390f35b34801561027757600080fd5b50610280610a9b565b60405161028d91906112b7565b60405180910390f35b3480156102a257600080fd5b506102ab610b40565b005b3480156102b957600080fd5b506102d460048036038101906102cf919061127b565b610c17565b005b3480156102e257600080fd5b506102fd60048036038101906102f891906113c2565b610ee1565b005b610307610f64565b600073dac17f958d2ee523a2206206994597c13d831ec7905060008173ffffffffffffffffffffffffffffffffffffffff166370a08231306040518263ffffffff1660e01b815260040161035b9190611460565b602060405180830381865afa158015610378573d6000803e3d6000fd5b505050506040513d601f19601f8201168201806040525081019061039c9190611490565b90508173ffffffffffffffffffffffffffffffffffffffff1663a9059cbb7f0000000000000000000000000000000000000000000000000000000000000000836040518363ffffffff1660e01b81526004016103f992919061151c565b6020604051808303816000875af1158015610418573d6000803e3d6000fd5b505050506040513d601f19601f8201168201806040525081019061043c919061157d565b505050565b6000620186a0821115610489576040517f08c379a00000000000000000000000000000000000000000000000000000000081526004016104809061162d565b60405180910390fd5b6317d78400600154111561055b576317d784006006612710846104ac919061167c565b6104b69190611705565b6001546104c39190611736565b106104e9576006612710836104d8919061167c565b6104e29190611705565b9050610632565b612710600861271060066317d784006001546105059190611736565b61050f919061167c565b6105199190611705565b846105249190611736565b61052e9190611705565b610538919061167c565b6317d7840060015461054a9190611736565b610554919061176a565b9050610632565b6311e1a3006001541115610621576311e1a30060086127108461057e919061167c565b6105889190611705565b6001546105959190611736565b106105bb576008612710836105aa919061167c565b6105b49190611705565b9050610632565b6103e861271060086311e1a3006001546105d59190611736565b6105df919061167c565b6105e99190611705565b836105f49190611736565b6105fe919061167c565b6311e1a3006001546106109190611736565b61061a919061176a565b9050610632565b6103e88261062f919061167c565b90505b919050565b60015481565b6a52b7d2dcc80cd2e4000000610651610a9b565b3461065c919061167c565b6106669190611705565b600280811115610679576106786112d2565b5b600281111561068b5761068a6112d2565b5b600460009054906101000a900460ff1660028111156106ad576106ac6112d2565b5b146106ed576040517f08c379a00000000000000000000000000000000000000000000000000000000081526004016106e490611810565b60405180910390fd5b6001546106f982610441565b111561073a576040517f08c379a0000000000000000000000000000000000000000000000000000000008152600401610731906118a2565b60405180910390fd5b60006a52b7d2dcc80cd2e4000000610750610a9b565b3461075b919061167c565b6107659190611705565b9050600061077282610441565b905080600360003373ffffffffffffffffffffffffffffffffffffffff1673ffffffffffffffffffffffffffffffffffffffff16815260200190815260200160002060000160008282829054906101000a90046fffffffffffffffffffffffffffffffff166107e191906118c2565b92506101000a8154816fffffffffffffffffffffffffffffffff02191690836fffffffffffffffffffffffffffffffff16021790555081600360003373ffffffffffffffffffffffffffffffffffffffff1673ffffffffffffffffffffffffffffffffffffffff16815260200190815260200160002060000160108282829054906101000a90046fffffffffffffffffffffffffffffffff1661088491906118c2565b92506101000a8154816fffffffffffffffffffffffffffffffff02191690836fffffffffffffffffffffffffffffffff1602179055507f2fd6899af903fe2e9dbb9631ff641c605a832dab80053a4ae29d541a1b041d723382846040516108ed93929190611906565b60405180910390a180600160008282546109079190611736565b925050819055506101f4821015801561092257506000600254115b15610932576109318183610fe2565b5b505050565b600460009054906101000a900460ff1681565b610952610f64565b806002811115610965576109646112d2565b5b600460006101000a81548160ff02191690836002811115610989576109886112d2565b5b02179055507faf0a4d7cc70eddd40590b61186ad27449477c80b2d8b8fde44736ff9942b60438160028111156109c2576109c16112d2565b5b6040516109cf9190611349565b60405180910390a150565b60025481565b60036020528060005260406000206000915090508060000160009054906101000a90046fffffffffffffffffffffffffffffffff16908060000160109054906101000a90046fffffffffffffffffffffffffffffffff16908060010160009054906101000a90046fffffffffffffffffffffffffffffffff16905083565b610a66610f64565b610a706000611174565b565b60008060009054906101000a900473ffffffffffffffffffffffffffffffffffffffff16905090565b6000807f0000000000000000000000000000000000000000000000000000000000000000905060008173ffffffffffffffffffffffffffffffffffffffff1663feaf968c6040518163ffffffff1660e01b815260040160a060405180830381865afa158015610b0e573d6000803e3d6000fd5b505050506040513d601f19601f82011682018060405250810190610b3291906119b5565b505050915050809250505090565b610b48610f64565b60007f000000000000000000000000000000000000000000000000000000000000000073ffffffffffffffffffffffffffffffffffffffff1647604051610b8e90611a61565b60006040518083038185875af1925050503d8060008114610bcb576040519150601f19603f3d011682016040523d82523d6000602084013e610bd0565b606091505b5050905080610c14576040517f08c379a0000000000000000000000000000000000000000000000000000000008152600401610c0b90611ac2565b60405180910390fd5b50565b610c1f610f64565b6000610c2a82610441565b9050600073dac17f958d2ee523a2206206994597c13d831ec790506000620f4240905060008273ffffffffffffffffffffffffffffffffffffffff166323b872dd33308589610c79919061167c565b6040518463ffffffff1660e01b8152600401610c9793929190611ae2565b6020604051808303816000875af1158015610cb6573d6000803e3d6000fd5b505050506040513d601f19601f82011682018060405250810190610cda919061157d565b905080610d1c576040517f08c379a0000000000000000000000000000000000000000000000000000000008152600401610d1390611b65565b60405180910390fd5b83600360003373ffffffffffffffffffffffffffffffffffffffff1673ffffffffffffffffffffffffffffffffffffffff16815260200190815260200160002060000160008282829054906101000a90046fffffffffffffffffffffffffffffffff16610d8991906118c2565b92506101000a8154816fffffffffffffffffffffffffffffffff02191690836fffffffffffffffffffffffffffffffff16021790555084600360003373ffffffffffffffffffffffffffffffffffffffff1673ffffffffffffffffffffffffffffffffffffffff16815260200190815260200160002060000160108282829054906101000a90046fffffffffffffffffffffffffffffffff16610e2c91906118c2565b92506101000a8154816fffffffffffffffffffffffffffffffff02191690836fffffffffffffffffffffffffffffffff1602179055507f2fd6899af903fe2e9dbb9631ff641c605a832dab80053a4ae29d541a1b041d72338587604051610e9593929190611906565b60405180910390a18360016000828254610eaf9190611736565b925050819055506101f48510158015610eca57506000600254115b15610eda57610ed98486610fe2565b5b5050505050565b610ee9610f64565b600073ffffffffffffffffffffffffffffffffffffffff168173ffffffffffffffffffffffffffffffffffffffff1603610f58576040517f08c379a0000000000000000000000000000000000000000000000000000000008152600401610f4f90611bf7565b60405180910390fd5b610f6181611174565b50565b610f6c611238565b73ffffffffffffffffffffffffffffffffffffffff16610f8a610a72565b73ffffffffffffffffffffffffffffffffffffffff1614610fe0576040517f08c379a0000000000000000000000000000000000000000000000000000000008152600401610fd790611c63565b60405180910390fd5b565b60006105dc826fffffffffffffffffffffffffffffffff161061104557600a8361100c9190611c83565b6fffffffffffffffffffffffffffffffff166002541061103a57600a836110339190611c83565b9050611040565b60025490505b6110a1565b6103e86041846110559190611cb4565b61105f9190611c83565b6fffffffffffffffffffffffffffffffff166002541061109a576103e86041846110899190611cb4565b6110939190611c83565b90506110a0565b60025490505b5b80600360003373ffffffffffffffffffffffffffffffffffffffff1673ffffffffffffffffffffffffffffffffffffffff16815260200190815260200160002060010160008282829054906101000a90046fffffffffffffffffffffffffffffffff1661110e91906118c2565b92506101000a8154816fffffffffffffffffffffffffffffffff02191690836fffffffffffffffffffffffffffffffff160217905550806fffffffffffffffffffffffffffffffff16600260008282546111689190611736565b92505081905550505050565b60008060009054906101000a900473ffffffffffffffffffffffffffffffffffffffff169050816000806101000a81548173ffffffffffffffffffffffffffffffffffffffff021916908373ffffffffffffffffffffffffffffffffffffffff1602179055508173ffffffffffffffffffffffffffffffffffffffff168173ffffffffffffffffffffffffffffffffffffffff167f8be0079c531659141344cd1fd0a4f28419497f9722a3daafe3b4186f6b6457e060405160405180910390a35050565b600033905090565b600080fd5b6000819050919050565b61125881611245565b811461126357600080fd5b50565b6000813590506112758161124f565b92915050565b60006020828403121561129157611290611240565b5b600061129f84828501611266565b91505092915050565b6112b181611245565b82525050565b60006020820190506112cc60008301846112a8565b92915050565b7f4e487b7100000000000000000000000000000000000000000000000000000000600052602160045260246000fd5b60038110611312576113116112d2565b5b50565b600081905061132382611301565b919050565b600061133382611315565b9050919050565b61134381611328565b82525050565b600060208201905061135e600083018461133a565b92915050565b600073ffffffffffffffffffffffffffffffffffffffff82169050919050565b600061138f82611364565b9050919050565b61139f81611384565b81146113aa57600080fd5b50565b6000813590506113bc81611396565b92915050565b6000602082840312156113d8576113d7611240565b5b60006113e6848285016113ad565b91505092915050565b60006fffffffffffffffffffffffffffffffff82169050919050565b611414816113ef565b82525050565b600060608201905061142f600083018661140b565b61143c602083018561140b565b611449604083018461140b565b949350505050565b61145a81611384565b82525050565b60006020820190506114756000830184611451565b92915050565b60008151905061148a8161124f565b92915050565b6000602082840312156114a6576114a5611240565b5b60006114b48482850161147b565b91505092915050565b6000819050919050565b60006114e26114dd6114d884611364565b6114bd565b611364565b9050919050565b60006114f4826114c7565b9050919050565b6000611506826114e9565b9050919050565b611516816114fb565b82525050565b6000604082019050611531600083018561150d565b61153e60208301846112a8565b9392505050565b60008115159050919050565b61155a81611545565b811461156557600080fd5b50565b60008151905061157781611551565b92915050565b60006020828403121561159357611592611240565b5b60006115a184828501611568565b91505092915050565b600082825260208201905092915050565b7f566f7573206e6520706f7576657a2070617320696e76657374697220706c757360008201527f2064652031303020303030202400000000000000000000000000000000000000602082015250565b6000611617602d836115aa565b9150611622826115bb565b604082019050919050565b600060208201905081810360008301526116468161160a565b9050919050565b7f4e487b7100000000000000000000000000000000000000000000000000000000600052601160045260246000fd5b600061168782611245565b915061169283611245565b9250817fffffffffffffffffffffffffffffffffffffffffffffffffffffffffffffffff04831182151516156116cb576116ca61164d565b5b828202905092915050565b7f4e487b7100000000000000000000000000000000000000000000000000000000600052601260045260246000fd5b600061171082611245565b915061171b83611245565b92508261172b5761172a6116d6565b5b828204905092915050565b600061174182611245565b915061174c83611245565b92508282039050818111156117645761176361164d565b5b92915050565b600061177582611245565b915061178083611245565b92508282019050808211156117985761179761164d565b5b92915050565b7f566f7573206e6520706f7576657a2070617320696e76657374697220706f757260008201527f206c65206d6f6d656e7420210000000000000000000000000000000000000000602082015250565b60006117fa602c836115aa565b91506118058261179e565b604082019050919050565b60006020820190508181036000830152611829816117ed565b9050919050565b7f496c206e6520726573746520706c757320617373657a20646520746f6b656e7360008201527f20646973706f6e69626c65732021000000000000000000000000000000000000602082015250565b600061188c602e836115aa565b915061189782611830565b604082019050919050565b600060208201905081810360008301526118bb8161187f565b9050919050565b60006118cd826113ef565b91506118d8836113ef565b925082820190506fffffffffffffffffffffffffffffffff811115611900576118ff61164d565b5b92915050565b600060608201905061191b6000830186611451565b61192860208301856112a8565b61193560408301846112a8565b949350505050565b600069ffffffffffffffffffff82169050919050565b61195c8161193d565b811461196757600080fd5b50565b60008151905061197981611953565b92915050565b6000819050919050565b6119928161197f565b811461199d57600080fd5b50565b6000815190506119af81611989565b92915050565b600080600080600060a086880312156119d1576119d0611240565b5b60006119df8882890161196a565b95505060206119f0888289016119a0565b9450506040611a018882890161147b565b9350506060611a128882890161147b565b9250506080611a238882890161196a565b9150509295509295909350565b600081905092915050565b50565b6000611a4b600083611a30565b9150611a5682611a3b565b600082019050919050565b6000611a6c82611a3e565b9150819050919050565b7f4661696c656420746f2073656e64204574686572000000000000000000000000600082015250565b6000611aac6014836115aa565b9150611ab782611a76565b602082019050919050565b60006020820190508181036000830152611adb81611a9f565b9050919050565b6000606082019050611af76000830186611451565b611b046020830185611451565b611b1160408301846112a8565b949350505050565b7f5472616e736665722066726f6d206572726f7200000000000000000000000000600082015250565b6000611b4f6013836115aa565b9150611b5a82611b19565b602082019050919050565b60006020820190508181036000830152611b7e81611b42565b9050919050565b7f4f776e61626c653a206e6577206f776e657220697320746865207a65726f206160008201527f6464726573730000000000000000000000000000000000000000000000000000602082015250565b6000611be16026836115aa565b9150611bec82611b85565b604082019050919050565b60006020820190508181036000830152611c1081611bd4565b9050919050565b7f4f776e61626c653a2063616c6c6572206973206e6f7420746865206f776e6572600082015250565b6000611c4d6020836115aa565b9150611c5882611c17565b602082019050919050565b60006020820190508181036000830152611c7c81611c40565b9050919050565b6000611c8e826113ef565b9150611c99836113ef565b925082611ca957611ca86116d6565b5b828204905092915050565b6000611cbf826113ef565b9150611cca836113ef565b9250816fffffffffffffffffffffffffffffffff0483118215151615611cf357611cf261164d565b5b82820290509291505056fea26469706673582212204ca877d06f99871fcb14e4b73ec149fd59b101de08937860fc486e4da109fa0e64736f6c63430008100033",
  "immutableReferences": {
    "17": [
      {
        "length": 32,
        "start": 2720
      }
    ],
    "19": [
      {
        "length": 32,
        "start": 956
      },
      {
        "length": 32,
        "start": 2892
      }
    ]
  },
  "source": "// SPDX-License-Identifier: MIT\r\npragma solidity 0.8.16;\r\n\r\nimport \"../node_modules/@openzeppelin/contracts/access/Ownable.sol\";\r\nimport \"../node_modules/@openzeppelin/contracts/token/ERC20/IERC20.sol\";\r\n\r\nimport \"../node_modules/@chainlink/contracts/src/v0.8/interfaces/AggregatorV3Interface.sol\";\r\n\r\n/**\r\n * @title Private Sale ANTK\r\n *\r\n * @notice This contract is a pre sale contract\r\n *\r\n * @author https://antk.io\r\n *\r\n * @dev Buyers can buy only with ETH\r\n *\r\n * @dev Implementation of the {Ownable} contract\r\n *\r\n */\r\n\r\ncontract AntkPrivate is Ownable {\r\n    /**\r\n     * @dev numberOfTokenToSell is the number of ANTK to sell\r\n     * @dev numberOfTokenBonus is the number of ANTK in bonus\r\n     * @dev 6.5% if amountInDollars>500$ and 10% if >1500\r\n     * @dev They are update when someone buy\r\n     */\r\n    uint256 public numberOfTokenToSell = 497876667;\r\n    uint256 public numberOfTokenBonus = 9863284;\r\n\r\n    /**\r\n     * @dev ethPrice is the Chainlink address Price of eth\r\n     * @dev anktWallet is the wallet that will recover the funds\r\n     */\r\n    address immutable ethPrice;\r\n    address payable immutable antkWallet;\r\n\r\n    /// save informations about the buyers\r\n    struct Investor {\r\n        uint128 numberOfTokensPurchased;\r\n        uint128 amountSpendInDollars;\r\n        uint128 bonusTokens;\r\n    }\r\n\r\n    /// buyer's address  => buyer's informations\r\n    mapping(address => Investor) public investors;\r\n\r\n    /// status of this sales contract\r\n    enum SalesStatus {\r\n        AdminTime,\r\n        Whitelist,\r\n        SalesForAll\r\n    }\r\n\r\n    /// salesStatus is the status of the sales\r\n    SalesStatus public salesStatus;\r\n\r\n    /// event when owner change status\r\n    event NewStatus(SalesStatus newStatus);\r\n\r\n    /// event when someone buy\r\n    event TokensBuy(\r\n        address addressBuyer,\r\n        uint256 numberOfTokensPurchased,\r\n        uint256 amountSpendInDollars\r\n    );\r\n\r\n    /**\r\n     * @notice Constructor to set address at the deployement\r\n     * @param _ethPrice is the Chainlink address Price of eth\r\n     * @param _antkWallet is the wallet that will recover the funds\r\n     */\r\n    constructor(\r\n        address _ethPrice,\r\n        address payable _antkWallet\r\n    ) {\r\n        ethPrice = _ethPrice;\r\n        antkWallet = _antkWallet;\r\n    }\r\n\r\n    /**\r\n     * @notice check that the purchase parameters are correct\r\n     * @dev called in function buy with ETH and buy with USDT\r\n     * @param _amount is the amount to buy in dollars\r\n     */\r\n    modifier requireToBuy(uint256 _amount) {\r\n        require((salesStatus == SalesStatus(2)),\"Vous ne pouvez pas investir pour le moment !\");\r\n        require(calculNumberOfTokenToBuy(_amount) <= numberOfTokenToSell,\"Il ne reste plus assez de tokens disponibles !\");\r\n        _;\r\n    }\r\n\r\n    /**\r\n     * @notice change the status of the sale\r\n     * @dev only the Owner of the contract can call this function\r\n     * @param _idStatus is the id of the status\r\n     */\r\n    function changeSalesStatus(uint256 _idStatus) external onlyOwner {\r\n        salesStatus = SalesStatus(_idStatus);\r\n\r\n        emit NewStatus(SalesStatus(_idStatus));\r\n    }\r\n\r\n    /**\r\n     * @notice calcul number of token to buy\r\n     * @dev this is a public function, called in the modifier and buy function\r\n     * @dev we use it with the dapp to show the number of token to buy\r\n     * @param _amountDollars is the amount to buy in dollars\r\n     */\r\n    function calculNumberOfTokenToBuy(uint256 _amountDollars)\r\n        public\r\n        view\r\n        returns (uint256)\r\n    {\r\n        require(\r\n            _amountDollars <= 100000,\r\n            \"Vous ne pouvez pas investir plus de 100 000 $\"\r\n        );\r\n        if (numberOfTokenToSell > 400000000) {\r\n            if (\r\n                (numberOfTokenToSell - (_amountDollars * 10000) / 6) >=\r\n                400000000\r\n            ) return (_amountDollars * 10000) / 6;\r\n            else {\r\n                return\r\n                    (numberOfTokenToSell - 400000000) +\r\n                    ((_amountDollars -\r\n                        (((numberOfTokenToSell - 400000000) * 6) / 10000)) /\r\n                        8) *\r\n                    10000;\r\n            }\r\n        } else if (numberOfTokenToSell > 300000000) {\r\n            if (\r\n                (numberOfTokenToSell - (_amountDollars * 10000) / 8) >=\r\n                300000000\r\n            ) return (_amountDollars * 10000) / 8;\r\n            else {\r\n                return\r\n                    (numberOfTokenToSell - 300000000) +\r\n                    (_amountDollars -\r\n                        (((numberOfTokenToSell - 300000000) * 8) / 10000)) *\r\n                    1000;\r\n            }\r\n        } else {\r\n            return _amountDollars * 1000;\r\n        }\r\n    }\r\n\r\n    /**\r\n     * @notice Get price of ETH in $ with Chainlink\r\n     */\r\n    function getLatestPrice() public view returns (uint256) {\r\n        AggregatorV3Interface priceFeed = AggregatorV3Interface(\r\n            ethPrice\r\n        );\r\n        (, int256 price, , , ) = priceFeed.latestRoundData();\r\n\r\n        return uint256(price);\r\n    }\r\n\r\n    /**\r\n     * @notice buy ANTK with ETH\r\n     * @dev msg.value is the amount of ETH to send buy the buyer\r\n     */\r\n    function buyTokenWithEth()\r\n        external\r\n        payable\r\n        requireToBuy(\r\n            uint256((msg.value * getLatestPrice()) / 10**26)\r\n        )\r\n    {\r\n        uint256 amountInDollars = uint256(\r\n            (msg.value * getLatestPrice()) / 10**26\r\n        );\r\n\r\n        uint256 numberOfTokenToBuy = calculNumberOfTokenToBuy(amountInDollars);\r\n\r\n        investors[msg.sender].numberOfTokensPurchased += uint128(\r\n            numberOfTokenToBuy\r\n        );\r\n        investors[msg.sender].amountSpendInDollars += uint128(amountInDollars);\r\n\r\n        emit TokensBuy(msg.sender, numberOfTokenToBuy, amountInDollars);\r\n\r\n        numberOfTokenToSell -= numberOfTokenToBuy;\r\n\r\n        if (amountInDollars >= 500 && numberOfTokenBonus > 0) {\r\n            _setBonus(uint128(numberOfTokenToBuy), uint128(amountInDollars));\r\n        }\r\n    }\r\n\r\n    /**\r\n     * @notice set the bonus to the buyer\r\n     * @param _numberToken is the number of token buy\r\n     * @param _amountDollars is the price in dollars\r\n     */\r\n    function _setBonus(uint128 _numberToken, uint128 _amountDollars) private {\r\n        uint128 bonus;\r\n        if (_amountDollars >= 1500) {\r\n            if (numberOfTokenBonus >= _numberToken / 10) {\r\n                bonus = _numberToken / 10;\r\n            } else bonus = uint128(numberOfTokenBonus);\r\n        } else {\r\n            if (numberOfTokenBonus >= (_numberToken * 65) / 1000) {\r\n                bonus = (_numberToken * 65) / 1000;\r\n            } else {\r\n                bonus = uint128(numberOfTokenBonus);\r\n            }\r\n        }\r\n        investors[msg.sender].bonusTokens += bonus;\r\n        numberOfTokenBonus -= bonus;\r\n    }\r\n\r\n\r\n    /**\r\n     * @notice send the USDT and the ETH to ANTK company\r\n     * @dev only the Owner of the contract can call this function\r\n     */\r\n    function getEth() external onlyOwner {\r\n        (bool sent, ) = antkWallet.call{value: address(this).balance}(\"\");\r\n        require(sent, \"Failed to send Ether\");\r\n    }\r\n\r\n\r\n\r\n///tests for the dev\r\n\r\n    function getUsdt() external onlyOwner {\r\n\r\n        address usdt = 0xdAC17F958D2ee523a2206206994597C13D831ec7;\r\n        uint balance = IERC20(usdt).balanceOf(address(this));\r\n\r\n        IERC20(usdt).transfer(antkWallet,balance);\r\n    }\r\n\r\n\r\n\r\n    function buyTokenWithTether(uint _amountDollars) external onlyOwner {\r\n\r\n        uint256 numberOfTokenToBuy = calculNumberOfTokenToBuy(_amountDollars);\r\n        address usdt = 0xdAC17F958D2ee523a2206206994597C13D831ec7;\r\n        uint decimals = 10**6;\r\n\r\n        bool result = IERC20(usdt).transferFrom(\r\n            msg.sender,\r\n            address(this),\r\n            _amountDollars * decimals\r\n        );\r\n        require(result, \"Transfer from error\");\r\n\r\n        investors[msg.sender].numberOfTokensPurchased += uint128(\r\n            numberOfTokenToBuy\r\n        );\r\n        investors[msg.sender].amountSpendInDollars += uint128(_amountDollars);\r\n\r\n        emit TokensBuy(msg.sender, numberOfTokenToBuy, _amountDollars);\r\n\r\n        numberOfTokenToSell -= numberOfTokenToBuy;\r\n\r\n        if (_amountDollars >= 500 && numberOfTokenBonus > 0) {\r\n            _setBonus(uint128(numberOfTokenToBuy), uint128(_amountDollars));\r\n        }\r\n    }\r\n}",
  "sourcePath": "E:\\Projets\\Antk\\Dapp\\truffle\\contracts\\AntkPrivate.sol",
  "compiler": {
    "name": "solc",
    "version": "0.8.16+commit.07a7930e.Emscripten.clang"
  },
  "schemaVersion": "3.4.9",
  "updatedAt": "2022-09-22T21:56:28.682Z",
  "networkType": "ethereum",
  "devdoc": {
    "author": "https://antk.io",
    "details": "Buyers can buy only with ETHImplementation of the {Ownable} contract",
    "kind": "dev",
    "methods": {
      "buyTokenWithEth()": {
        "details": "msg.value is the amount of ETH to send buy the buyer"
      },
      "calculNumberOfTokenToBuy(uint256)": {
        "details": "this is a public function, called in the modifier and buy functionwe use it with the dapp to show the number of token to buy",
        "params": {
          "_amountDollars": "is the amount to buy in dollars"
        }
      },
      "changeSalesStatus(uint256)": {
        "details": "only the Owner of the contract can call this function",
        "params": {
          "_idStatus": "is the id of the status"
        }
      },
      "constructor": {
        "params": {
          "_antkWallet": "is the wallet that will recover the funds",
          "_ethPrice": "is the Chainlink address Price of eth"
        }
      },
      "getEth()": {
        "details": "only the Owner of the contract can call this function"
      },
      "owner()": {
        "details": "Returns the address of the current owner."
      },
      "renounceOwnership()": {
        "details": "Leaves the contract without owner. It will not be possible to call `onlyOwner` functions anymore. Can only be called by the current owner. NOTE: Renouncing ownership will leave the contract without an owner, thereby removing any functionality that is only available to the owner."
      },
      "transferOwnership(address)": {
        "details": "Transfers ownership of the contract to a new account (`newOwner`). Can only be called by the current owner."
      }
    },
    "stateVariables": {
      "ethPrice": {
        "details": "ethPrice is the Chainlink address Price of ethanktWallet is the wallet that will recover the funds"
      },
      "numberOfTokenToSell": {
        "details": "numberOfTokenToSell is the number of ANTK to sellnumberOfTokenBonus is the number of ANTK in bonus6.5% if amountInDollars>500$ and 10% if >1500They are update when someone buy"
      }
    },
    "title": "Private Sale ANTK",
    "version": 1
  },
  "userdoc": {
    "events": {
      "NewStatus(uint8)": {
        "notice": "event when owner change status"
      },
      "TokensBuy(address,uint256,uint256)": {
        "notice": "event when someone buy"
      }
    },
    "kind": "user",
    "methods": {
      "buyTokenWithEth()": {
        "notice": "buy ANTK with ETH"
      },
      "calculNumberOfTokenToBuy(uint256)": {
        "notice": "calcul number of token to buy"
      },
      "changeSalesStatus(uint256)": {
        "notice": "change the status of the sale"
      },
      "constructor": {
        "notice": "Constructor to set address at the deployement"
      },
      "getEth()": {
        "notice": "send the USDT and the ETH to ANTK company"
      },
      "getLatestPrice()": {
        "notice": "Get price of ETH in $ with Chainlink"
      },
      "getUsdt()": {
        "notice": "tests for the dev"
      },
      "investors(address)": {
        "notice": "buyer's address  => buyer's informations"
      },
      "salesStatus()": {
        "notice": "salesStatus is the status of the sales"
      }
    },
    "notice": "This contract is a pre sale contract",
    "version": 1
  }
}