{
  "contractName": "AntkPrivate",
  "abi": [
    {
      "anonymous": false,
      "inputs": [
        {
          "indexed": true,
          "internalType": "address",
          "name": "previousOwner",
          "type": "address"
        },
        {
          "indexed": true,
          "internalType": "address",
          "name": "newOwner",
          "type": "address"
        }
      ],
      "name": "OwnershipTransferred",
      "type": "event"
    },
    {
      "anonymous": false,
      "inputs": [
        {
          "indexed": false,
          "internalType": "address",
          "name": "addressBuyer",
          "type": "address"
        },
        {
          "indexed": false,
          "internalType": "uint128",
          "name": "numberOfTokensPurchased",
          "type": "uint128"
        },
        {
          "indexed": false,
          "internalType": "uint128",
          "name": "amountSpendInDollars",
          "type": "uint128"
        }
      ],
      "name": "TokensBuy",
      "type": "event"
    },
    {
      "anonymous": false,
      "inputs": [
        {
          "indexed": false,
          "internalType": "enum AntkPrivate.SalesStatus",
          "name": "newStatus",
          "type": "uint8"
        }
      ],
      "name": "newStatus",
      "type": "event"
    },
    {
      "inputs": [
        {
          "internalType": "address",
          "name": "",
          "type": "address"
        }
      ],
      "name": "investors",
      "outputs": [
        {
          "internalType": "bool",
          "name": "isWhitelisted",
          "type": "bool"
        },
        {
          "internalType": "uint128",
          "name": "numberOfTokensPurchased",
          "type": "uint128"
        },
        {
          "internalType": "uint128",
          "name": "amountSpendInDollars",
          "type": "uint128"
        }
      ],
      "stateMutability": "view",
      "type": "function"
    },
    {
      "inputs": [],
      "name": "numberOfTokenToSell",
      "outputs": [
        {
          "internalType": "uint128",
          "name": "",
          "type": "uint128"
        }
      ],
      "stateMutability": "view",
      "type": "function"
    },
    {
      "inputs": [],
      "name": "owner",
      "outputs": [
        {
          "internalType": "address",
          "name": "",
          "type": "address"
        }
      ],
      "stateMutability": "view",
      "type": "function"
    },
    {
      "inputs": [],
      "name": "renounceOwnership",
      "outputs": [],
      "stateMutability": "nonpayable",
      "type": "function"
    },
    {
      "inputs": [],
      "name": "salesStatus",
      "outputs": [
        {
          "internalType": "enum AntkPrivate.SalesStatus",
          "name": "",
          "type": "uint8"
        }
      ],
      "stateMutability": "view",
      "type": "function"
    },
    {
      "inputs": [
        {
          "internalType": "address",
          "name": "newOwner",
          "type": "address"
        }
      ],
      "name": "transferOwnership",
      "outputs": [],
      "stateMutability": "nonpayable",
      "type": "function"
    },
    {
      "inputs": [
        {
          "internalType": "address[]",
          "name": "_address",
          "type": "address[]"
        }
      ],
      "name": "setWhitelist",
      "outputs": [],
      "stateMutability": "nonpayable",
      "type": "function"
    },
    {
      "inputs": [
        {
          "internalType": "uint256",
          "name": "_idStatus",
          "type": "uint256"
        }
      ],
      "name": "changeSalesStatus",
      "outputs": [],
      "stateMutability": "nonpayable",
      "type": "function"
    },
    {
      "inputs": [
        {
          "internalType": "uint128",
          "name": "_amountDollars",
          "type": "uint128"
        }
      ],
      "name": "calculNumberOfTokenToBuy",
      "outputs": [
        {
          "internalType": "uint128",
          "name": "",
          "type": "uint128"
        }
      ],
      "stateMutability": "view",
      "type": "function"
    },
    {
      "inputs": [
        {
          "internalType": "uint128",
          "name": "_amountDollars",
          "type": "uint128"
        }
      ],
      "name": "buyTokenWithTether",
      "outputs": [],
      "stateMutability": "nonpayable",
      "type": "function"
    },
    {
      "inputs": [],
      "name": "getLatestPrice",
      "outputs": [
        {
          "internalType": "uint128",
          "name": "",
          "type": "uint128"
        }
      ],
      "stateMutability": "view",
      "type": "function"
    },
    {
      "inputs": [],
      "name": "buyTokenWithEth",
      "outputs": [],
      "stateMutability": "payable",
      "type": "function"
    },
    {
      "inputs": [],
      "name": "getFunds",
      "outputs": [],
      "stateMutability": "nonpayable",
      "type": "function"
    },
    {
      "inputs": [],
      "name": "seeFunds",
      "outputs": [
        {
          "internalType": "uint256",
          "name": "USDT",
          "type": "uint256"
        },
        {
          "internalType": "uint256",
          "name": "ETH",
          "type": "uint256"
        }
      ],
      "stateMutability": "view",
      "type": "function"
    }
  ],
  "bytecode": "0x6080604052631dcd6500600160006101000a8154816fffffffffffffffffffffffffffffffff02191690836fffffffffffffffffffffffffffffffff16021790555073dac17f958d2ee523a2206206994597c13d831ec7600260006101000a81548173ffffffffffffffffffffffffffffffffffffffff021916908373ffffffffffffffffffffffffffffffffffffffff160217905550348015620000a357600080fd5b50620000c4620000b8620000ca60201b60201c565b620000d260201b60201c565b62000196565b600033905090565b60008060009054906101000a900473ffffffffffffffffffffffffffffffffffffffff169050816000806101000a81548173ffffffffffffffffffffffffffffffffffffffff021916908373ffffffffffffffffffffffffffffffffffffffff1602179055508173ffffffffffffffffffffffffffffffffffffffff168173ffffffffffffffffffffffffffffffffffffffff167f8be0079c531659141344cd1fd0a4f28419497f9722a3daafe3b4186f6b6457e060405160405180910390a35050565b6128c480620001a66000396000f3fe6080604052600436106100dd5760003560e01c80636f7bc9be1161007f5780638e15f473116100595780638e15f4731461026c578063bc28c7b114610297578063f2fde38b146102c0578063f4217648146102e9576100dd565b80636f7bc9be146101eb578063715018a61461022a5780638da5cb5b14610241576100dd565b806337d2047b116100bb57806337d2047b1461015457806338fc3fa01461017f5780634d9b3735146101ab5780635007bb55146101c2576100dd565b80632bcabeaf146100e257806336d342171461011f5780633788a3871461014a575b600080fd5b3480156100ee57600080fd5b5061010960048036038101906101049190611995565b610312565b60405161011691906119d1565b60405180910390f35b34801561012b57600080fd5b50610134610642565b60405161014191906119d1565b60405180910390f35b610152610664565b005b34801561016057600080fd5b50610169610b3f565b6040516101769190611a63565b60405180910390f35b34801561018b57600080fd5b50610194610b52565b6040516101a2929190611a97565b60405180910390f35b3480156101b757600080fd5b506101c0610bfa565b005b3480156101ce57600080fd5b506101e960048036038101906101e49190611aec565b610dfb565b005b3480156101f757600080fd5b50610212600480360381019061020d9190611b77565b610e8b565b60405161022193929190611bbf565b60405180910390f35b34801561023657600080fd5b5061023f610efa565b005b34801561024d57600080fd5b50610256610f0e565b6040516102639190611c05565b60405180910390f35b34801561027857600080fd5b50610281610f37565b60405161028e91906119d1565b60405180910390f35b3480156102a357600080fd5b506102be60048036038101906102b99190611995565b610fd0565b005b3480156102cc57600080fd5b506102e760048036038101906102e29190611b77565b6116cc565b005b3480156102f557600080fd5b50610310600480360381019061030b9190611d79565b61174f565b005b6000620186a0826fffffffffffffffffffffffffffffffff16111561036c576040517f08c379a000000000000000000000000000000000000000000000000000000000815260040161036390611e45565b60405180910390fd5b6317d78400600160009054906101000a90046fffffffffffffffffffffffffffffffff166fffffffffffffffffffffffffffffffff1611156104d2576317d784006006612710846103bd9190611e94565b6103c79190611f00565b600160009054906101000a90046fffffffffffffffffffffffffffffffff166103f09190611f31565b6fffffffffffffffffffffffffffffffff1610610428576006612710836104179190611e94565b6104219190611f00565b905061063d565b612710600861271060066317d78400600160009054906101000a90046fffffffffffffffffffffffffffffffff166104609190611f31565b61046a9190611e94565b6104749190611f00565b8461047f9190611f31565b6104899190611f00565b6104939190611e94565b6317d78400600160009054906101000a90046fffffffffffffffffffffffffffffffff166104c19190611f31565b6104cb9190611f75565b905061063d565b6311e1a300600160009054906101000a90046fffffffffffffffffffffffffffffffff166fffffffffffffffffffffffffffffffff16111561062c576311e1a3006008612710846105239190611e94565b61052d9190611f00565b600160009054906101000a90046fffffffffffffffffffffffffffffffff166105569190611f31565b6fffffffffffffffffffffffffffffffff161061058e5760086127108361057d9190611e94565b6105879190611f00565b905061063d565b6103e861271060086311e1a300600160009054906101000a90046fffffffffffffffffffffffffffffffff166105c49190611f31565b6105ce9190611e94565b6105d89190611f00565b836105e39190611f31565b6105ed9190611e94565b6311e1a300600160009054906101000a90046fffffffffffffffffffffffffffffffff1661061b9190611f31565b6106259190611f75565b905061063d565b6103e88261063a9190611e94565b90505b919050565b600160009054906101000a90046fffffffffffffffffffffffffffffffff1681565b6a52b7d2dcc80cd2e4000000610678610f37565b6fffffffffffffffffffffffffffffffff16346106959190611fb9565b61069f9190611ffb565b600360003373ffffffffffffffffffffffffffffffffffffffff1673ffffffffffffffffffffffffffffffffffffffff16815260200190815260200160002060000160009054906101000a900460ff16801561074057506001600281111561070a576107096119ec565b5b600281111561071c5761071b6119ec565b5b600460009054906101000a900460ff16600281111561073e5761073d6119ec565b5b145b8061078f5750600280811115610759576107586119ec565b5b600281111561076b5761076a6119ec565b5b600460009054906101000a900460ff16600281111561078d5761078c6119ec565b5b145b6107ce576040517f08c379a00000000000000000000000000000000000000000000000000000000081526004016107c59061209e565b60405180910390fd5b6001816fffffffffffffffffffffffffffffffff161015610824576040517f08c379a000000000000000000000000000000000000000000000000000000000815260040161081b90612130565b60405180910390fd5b600160009054906101000a90046fffffffffffffffffffffffffffffffff166fffffffffffffffffffffffffffffffff1661085e82610312565b6fffffffffffffffffffffffffffffffff1611156108b1576040517f08c379a00000000000000000000000000000000000000000000000000000000081526004016108a8906121c2565b60405180910390fd5b343373ffffffffffffffffffffffffffffffffffffffff16311161090a576040517f08c379a00000000000000000000000000000000000000000000000000000000081526004016109019061222e565b60405180910390fd5b60006a52b7d2dcc80cd2e4000000610920610f37565b6fffffffffffffffffffffffffffffffff163461093d9190611fb9565b6109479190611ffb565b9050600061095482610312565b905080600360003373ffffffffffffffffffffffffffffffffffffffff1673ffffffffffffffffffffffffffffffffffffffff16815260200190815260200160002060000160018282829054906101000a90046fffffffffffffffffffffffffffffffff166109c39190611f75565b92506101000a8154816fffffffffffffffffffffffffffffffff02191690836fffffffffffffffffffffffffffffffff16021790555081600360003373ffffffffffffffffffffffffffffffffffffffff1673ffffffffffffffffffffffffffffffffffffffff16815260200190815260200160002060010160008282829054906101000a90046fffffffffffffffffffffffffffffffff16610a669190611f75565b92506101000a8154816fffffffffffffffffffffffffffffffff02191690836fffffffffffffffffffffffffffffffff1602179055507f6c10c020a374273ba2bec4494362a1cba501ec48a3716a4963bc87de748fc6ac338284604051610acf9392919061224e565b60405180910390a180600160008282829054906101000a90046fffffffffffffffffffffffffffffffff16610b049190611f31565b92506101000a8154816fffffffffffffffffffffffffffffffff02191690836fffffffffffffffffffffffffffffffff160217905550505050565b600460009054906101000a900460ff1681565b600080600260009054906101000a900473ffffffffffffffffffffffffffffffffffffffff1673ffffffffffffffffffffffffffffffffffffffff166370a08231306040518263ffffffff1660e01b8152600401610bb09190611c05565b602060405180830381865afa158015610bcd573d6000803e3d6000fd5b505050506040513d601f19601f82011682018060405250810190610bf1919061229a565b47915091509091565b610c026117ef565b600260009054906101000a900473ffffffffffffffffffffffffffffffffffffffff1673ffffffffffffffffffffffffffffffffffffffff1663a9059cbb610c48610f0e565b600260009054906101000a900473ffffffffffffffffffffffffffffffffffffffff1673ffffffffffffffffffffffffffffffffffffffff166370a08231306040518263ffffffff1660e01b8152600401610ca39190611c05565b602060405180830381865afa158015610cc0573d6000803e3d6000fd5b505050506040513d601f19601f82011682018060405250810190610ce4919061229a565b6040518363ffffffff1660e01b8152600401610d019291906122c7565b6020604051808303816000875af1158015610d20573d6000803e3d6000fd5b505050506040513d601f19601f82011682018060405250810190610d44919061231c565b506000610d4f610f0e565b73ffffffffffffffffffffffffffffffffffffffff1647604051610d729061237a565b60006040518083038185875af1925050503d8060008114610daf576040519150601f19603f3d011682016040523d82523d6000602084013e610db4565b606091505b5050905080610df8576040517f08c379a0000000000000000000000000000000000000000000000000000000008152600401610def906123db565b60405180910390fd5b50565b610e036117ef565b806002811115610e1657610e156119ec565b5b600460006101000a81548160ff02191690836002811115610e3a57610e396119ec565b5b02179055507f41919ca94feb948873b3bc1af54edc2d3f3b4a4a4723eb681e3b871cd697917c816002811115610e7357610e726119ec565b5b604051610e809190611a63565b60405180910390a150565b60036020528060005260406000206000915090508060000160009054906101000a900460ff16908060000160019054906101000a90046fffffffffffffffffffffffffffffffff16908060010160009054906101000a90046fffffffffffffffffffffffffffffffff16905083565b610f026117ef565b610f0c600061186d565b565b60008060009054906101000a900473ffffffffffffffffffffffffffffffffffffffff16905090565b600080735f4ec3df9cbd43714fe2740f5e3616155c5b8419905060008173ffffffffffffffffffffffffffffffffffffffff1663feaf968c6040518163ffffffff1660e01b815260040160a060405180830381865afa158015610f9e573d6000803e3d6000fd5b505050506040513d601f19601f82011682018060405250810190610fc29190612473565b505050915050809250505090565b80600360003373ffffffffffffffffffffffffffffffffffffffff1673ffffffffffffffffffffffffffffffffffffffff16815260200190815260200160002060000160009054906101000a900460ff16801561107257506001600281111561103c5761103b6119ec565b5b600281111561104e5761104d6119ec565b5b600460009054906101000a900460ff1660028111156110705761106f6119ec565b5b145b806110c1575060028081111561108b5761108a6119ec565b5b600281111561109d5761109c6119ec565b5b600460009054906101000a900460ff1660028111156110bf576110be6119ec565b5b145b611100576040517f08c379a00000000000000000000000000000000000000000000000000000000081526004016110f79061209e565b60405180910390fd5b6001816fffffffffffffffffffffffffffffffff161015611156576040517f08c379a000000000000000000000000000000000000000000000000000000000815260040161114d90612130565b60405180910390fd5b600160009054906101000a90046fffffffffffffffffffffffffffffffff166fffffffffffffffffffffffffffffffff1661119082610312565b6fffffffffffffffffffffffffffffffff1611156111e3576040517f08c379a00000000000000000000000000000000000000000000000000000000081526004016111da906121c2565b60405180910390fd5b620f4240826111f29190611e94565b6fffffffffffffffffffffffffffffffff16600260009054906101000a900473ffffffffffffffffffffffffffffffffffffffff1673ffffffffffffffffffffffffffffffffffffffff1663dd62ed3e33306040518363ffffffff1660e01b81526004016112619291906124ee565b602060405180830381865afa15801561127e573d6000803e3d6000fd5b505050506040513d601f19601f820116820180604052508101906112a2919061229a565b10156112e3576040517f08c379a00000000000000000000000000000000000000000000000000000000081526004016112da90612589565b60405180910390fd5b620f4240826112f29190611e94565b6fffffffffffffffffffffffffffffffff16600260009054906101000a900473ffffffffffffffffffffffffffffffffffffffff1673ffffffffffffffffffffffffffffffffffffffff166370a08231336040518263ffffffff1660e01b815260040161135f9190611c05565b602060405180830381865afa15801561137c573d6000803e3d6000fd5b505050506040513d601f19601f820116820180604052508101906113a0919061229a565b10156113e1576040517f08c379a00000000000000000000000000000000000000000000000000000000081526004016113d89061261b565b60405180910390fd5b60006113ec83610312565b90506000600260009054906101000a900473ffffffffffffffffffffffffffffffffffffffff1673ffffffffffffffffffffffffffffffffffffffff166323b872dd3330620f42408861143f9190611e94565b6040518463ffffffff1660e01b815260040161145d93929190612676565b6020604051808303816000875af115801561147c573d6000803e3d6000fd5b505050506040513d601f19601f820116820180604052508101906114a0919061231c565b9050806114e2576040517f08c379a00000000000000000000000000000000000000000000000000000000081526004016114d9906126f9565b60405180910390fd5b81600360003373ffffffffffffffffffffffffffffffffffffffff1673ffffffffffffffffffffffffffffffffffffffff16815260200190815260200160002060000160018282829054906101000a90046fffffffffffffffffffffffffffffffff1661154f9190611f75565b92506101000a8154816fffffffffffffffffffffffffffffffff02191690836fffffffffffffffffffffffffffffffff16021790555083600360003373ffffffffffffffffffffffffffffffffffffffff1673ffffffffffffffffffffffffffffffffffffffff16815260200190815260200160002060010160008282829054906101000a90046fffffffffffffffffffffffffffffffff166115f29190611f75565b92506101000a8154816fffffffffffffffffffffffffffffffff02191690836fffffffffffffffffffffffffffffffff1602179055507f6c10c020a374273ba2bec4494362a1cba501ec48a3716a4963bc87de748fc6ac33838660405161165b9392919061224e565b60405180910390a181600160008282829054906101000a90046fffffffffffffffffffffffffffffffff166116909190611f31565b92506101000a8154816fffffffffffffffffffffffffffffffff02191690836fffffffffffffffffffffffffffffffff16021790555050505050565b6116d46117ef565b600073ffffffffffffffffffffffffffffffffffffffff168173ffffffffffffffffffffffffffffffffffffffff1603611743576040517f08c379a000000000000000000000000000000000000000000000000000000000815260040161173a9061278b565b60405180910390fd5b61174c8161186d565b50565b6117576117ef565b60005b81518110156117eb5760016003600084848151811061177c5761177b6127ab565b5b602002602001015173ffffffffffffffffffffffffffffffffffffffff1673ffffffffffffffffffffffffffffffffffffffff16815260200190815260200160002060000160006101000a81548160ff02191690831515021790555080806117e3906127da565b91505061175a565b5050565b6117f7611931565b73ffffffffffffffffffffffffffffffffffffffff16611815610f0e565b73ffffffffffffffffffffffffffffffffffffffff161461186b576040517f08c379a00000000000000000000000000000000000000000000000000000000081526004016118629061286e565b60405180910390fd5b565b60008060009054906101000a900473ffffffffffffffffffffffffffffffffffffffff169050816000806101000a81548173ffffffffffffffffffffffffffffffffffffffff021916908373ffffffffffffffffffffffffffffffffffffffff1602179055508173ffffffffffffffffffffffffffffffffffffffff168173ffffffffffffffffffffffffffffffffffffffff167f8be0079c531659141344cd1fd0a4f28419497f9722a3daafe3b4186f6b6457e060405160405180910390a35050565b600033905090565b6000604051905090565b600080fd5b600080fd5b60006fffffffffffffffffffffffffffffffff82169050919050565b6119728161194d565b811461197d57600080fd5b50565b60008135905061198f81611969565b92915050565b6000602082840312156119ab576119aa611943565b5b60006119b984828501611980565b91505092915050565b6119cb8161194d565b82525050565b60006020820190506119e660008301846119c2565b92915050565b7f4e487b7100000000000000000000000000000000000000000000000000000000600052602160045260246000fd5b60038110611a2c57611a2b6119ec565b5b50565b6000819050611a3d82611a1b565b919050565b6000611a4d82611a2f565b9050919050565b611a5d81611a42565b82525050565b6000602082019050611a786000830184611a54565b92915050565b6000819050919050565b611a9181611a7e565b82525050565b6000604082019050611aac6000830185611a88565b611ab96020830184611a88565b9392505050565b611ac981611a7e565b8114611ad457600080fd5b50565b600081359050611ae681611ac0565b92915050565b600060208284031215611b0257611b01611943565b5b6000611b1084828501611ad7565b91505092915050565b600073ffffffffffffffffffffffffffffffffffffffff82169050919050565b6000611b4482611b19565b9050919050565b611b5481611b39565b8114611b5f57600080fd5b50565b600081359050611b7181611b4b565b92915050565b600060208284031215611b8d57611b8c611943565b5b6000611b9b84828501611b62565b91505092915050565b60008115159050919050565b611bb981611ba4565b82525050565b6000606082019050611bd46000830186611bb0565b611be160208301856119c2565b611bee60408301846119c2565b949350505050565b611bff81611b39565b82525050565b6000602082019050611c1a6000830184611bf6565b92915050565b600080fd5b6000601f19601f8301169050919050565b7f4e487b7100000000000000000000000000000000000000000000000000000000600052604160045260246000fd5b611c6e82611c25565b810181811067ffffffffffffffff82111715611c8d57611c8c611c36565b5b80604052505050565b6000611ca0611939565b9050611cac8282611c65565b919050565b600067ffffffffffffffff821115611ccc57611ccb611c36565b5b602082029050602081019050919050565b600080fd5b6000611cf5611cf084611cb1565b611c96565b90508083825260208201905060208402830185811115611d1857611d17611cdd565b5b835b81811015611d415780611d2d8882611b62565b845260208401935050602081019050611d1a565b5050509392505050565b600082601f830112611d6057611d5f611c20565b5b8135611d70848260208601611ce2565b91505092915050565b600060208284031215611d8f57611d8e611943565b5b600082013567ffffffffffffffff811115611dad57611dac611948565b5b611db984828501611d4b565b91505092915050565b600082825260208201905092915050565b7f566f7573206e6520706f7576657a2070617320696e76657374697220706c757360008201527f2064652031303020303030202400000000000000000000000000000000000000602082015250565b6000611e2f602d83611dc2565b9150611e3a82611dd3565b604082019050919050565b60006020820190508181036000830152611e5e81611e22565b9050919050565b7f4e487b7100000000000000000000000000000000000000000000000000000000600052601160045260246000fd5b6000611e9f8261194d565b9150611eaa8361194d565b9250828202611eb88161194d565b9150808214611eca57611ec9611e65565b5b5092915050565b7f4e487b7100000000000000000000000000000000000000000000000000000000600052601260045260246000fd5b6000611f0b8261194d565b9150611f168361194d565b925082611f2657611f25611ed1565b5b828204905092915050565b6000611f3c8261194d565b9150611f478361194d565b925082820390506fffffffffffffffffffffffffffffffff811115611f6f57611f6e611e65565b5b92915050565b6000611f808261194d565b9150611f8b8361194d565b925082820190506fffffffffffffffffffffffffffffffff811115611fb357611fb2611e65565b5b92915050565b6000611fc482611a7e565b9150611fcf83611a7e565b9250828202611fdd81611a7e565b91508282048414831517611ff457611ff3611e65565b5b5092915050565b600061200682611a7e565b915061201183611a7e565b92508261202157612020611ed1565b5b828204905092915050565b7f566f7573206e6520706f7576657a2070617320696e76657374697220706f757260008201527f206c65206d6f6d656e7420210000000000000000000000000000000000000000602082015250565b6000612088602c83611dc2565b91506120938261202c565b604082019050919050565b600060208201905081810360008301526120b78161207b565b9050919050565b7f4365206d6f6e74616e742065737420696e66657269657572206175206d6f6e7460008201527f616e74206d696e696d756d202100000000000000000000000000000000000000602082015250565b600061211a602d83611dc2565b9150612125826120be565b604082019050919050565b600060208201905081810360008301526121498161210d565b9050919050565b7f496c206e6520726573746520706c757320617373657a20646520746f6b656e7360008201527f20646973706f6e69626c65732021000000000000000000000000000000000000602082015250565b60006121ac602e83611dc2565b91506121b782612150565b604082019050919050565b600060208201905081810360008301526121db8161219f565b9050919050565b7f566f7573206e276176657a2070617320617373657a2064274554482021000000600082015250565b6000612218601d83611dc2565b9150612223826121e2565b602082019050919050565b600060208201905081810360008301526122478161220b565b9050919050565b60006060820190506122636000830186611bf6565b61227060208301856119c2565b61227d60408301846119c2565b949350505050565b60008151905061229481611ac0565b92915050565b6000602082840312156122b0576122af611943565b5b60006122be84828501612285565b91505092915050565b60006040820190506122dc6000830185611bf6565b6122e96020830184611a88565b9392505050565b6122f981611ba4565b811461230457600080fd5b50565b600081519050612316816122f0565b92915050565b60006020828403121561233257612331611943565b5b600061234084828501612307565b91505092915050565b600081905092915050565b50565b6000612364600083612349565b915061236f82612354565b600082019050919050565b600061238582612357565b9150819050919050565b7f4661696c656420746f2073656e64204574686572000000000000000000000000600082015250565b60006123c5601483611dc2565b91506123d08261238f565b602082019050919050565b600060208201905081810360008301526123f4816123b8565b9050919050565b600069ffffffffffffffffffff82169050919050565b61241a816123fb565b811461242557600080fd5b50565b60008151905061243781612411565b92915050565b6000819050919050565b6124508161243d565b811461245b57600080fd5b50565b60008151905061246d81612447565b92915050565b600080600080600060a0868803121561248f5761248e611943565b5b600061249d88828901612428565b95505060206124ae8882890161245e565b94505060406124bf88828901612285565b93505060606124d088828901612285565b92505060806124e188828901612428565b9150509295509295909350565b60006040820190506125036000830185611bf6565b6125106020830184611bf6565b9392505050565b7f566f7573206e276176657a2070617320617070726f757665206c65207472616e60008201527f7366657274206465205465746865722021000000000000000000000000000000602082015250565b6000612573603183611dc2565b915061257e82612517565b604082019050919050565b600060208201905081810360008301526125a281612566565b9050919050565b7f566f7573206e276176657a2070617320617373657a206465205465746865722060008201527f2100000000000000000000000000000000000000000000000000000000000000602082015250565b6000612605602183611dc2565b9150612610826125a9565b604082019050919050565b60006020820190508181036000830152612634816125f8565b9050919050565b6000819050919050565b600061266061265b6126568461194d565b61263b565b611a7e565b9050919050565b61267081612645565b82525050565b600060608201905061268b6000830186611bf6565b6126986020830185611bf6565b6126a56040830184612667565b949350505050565b7f5472616e736665722066726f6d206572726f7200000000000000000000000000600082015250565b60006126e3601383611dc2565b91506126ee826126ad565b602082019050919050565b60006020820190508181036000830152612712816126d6565b9050919050565b7f4f776e61626c653a206e6577206f776e657220697320746865207a65726f206160008201527f6464726573730000000000000000000000000000000000000000000000000000602082015250565b6000612775602683611dc2565b915061278082612719565b604082019050919050565b600060208201905081810360008301526127a481612768565b9050919050565b7f4e487b7100000000000000000000000000000000000000000000000000000000600052603260045260246000fd5b60006127e582611a7e565b91507fffffffffffffffffffffffffffffffffffffffffffffffffffffffffffffffff820361281757612816611e65565b5b600182019050919050565b7f4f776e61626c653a2063616c6c6572206973206e6f7420746865206f776e6572600082015250565b6000612858602083611dc2565b915061286382612822565b602082019050919050565b600060208201905081810360008301526128878161284b565b905091905056fea26469706673582212208ed50eabed425a0f5c206326bd380065c5b868a09643e0afab3917f427793c1164736f6c63430008110033",
  "immutableReferences": {},
  "source": "// SPDX-License-Identifier: MIT\r\npragma solidity 0.8.17;\r\n\r\nimport \"../node_modules/@openzeppelin/contracts/access/Ownable.sol\";\r\nimport \"../node_modules/@openzeppelin/contracts/token/ERC20/IERC20.sol\";\r\n\r\nimport \"../node_modules/@chainlink/contracts/src/v0.8/interfaces/AggregatorV3Interface.sol\";\r\n\r\n/**\r\n * @title Private Sale ANTK\r\n *\r\n * @notice This contract is a pre sale contract\r\n *\r\n * @author https://antk.io\r\n *\r\n * @dev Buyers can buy only with ETH or USDT\r\n * @dev Can add whitelists address to buy first\r\n *\r\n * @dev Implementation of the {IERC20} interface\r\n * @dev Implementation of the {Ownable} contract\r\n * @dev Implementation of the {AggregatorV3Interface} contract\r\n *\r\n */\r\n\r\ncontract AntkPrivate is Ownable {\r\n    /**\r\n     * @dev numberOfTokenToSell is the number of ANTK to sell\r\n     * @dev It is update when someone buy\r\n     */\r\n    uint128 public numberOfTokenToSell = 500000000;\r\n\r\n    /**\r\n     * @dev tether is the only ERC20 asset to buy ANTK\r\n     */\r\n    address usdt = 0xdAC17F958D2ee523a2206206994597C13D831ec7;\r\n\r\n    /// save informations about the buyers\r\n    struct Investor {\r\n        bool isWhitelisted;\r\n        uint128 numberOfTokensPurchased;\r\n        uint128 amountSpendInDollars;\r\n    }\r\n\r\n    /// buyer's address  => buyer's informations\r\n    mapping(address => Investor) public investors;\r\n\r\n    /// status of this sales contract\r\n    enum SalesStatus {\r\n        AdminTime,\r\n        SalesForWhitelist,\r\n        SalesForAll\r\n    }\r\n\r\n    /// salesStatus is the status of the sales\r\n    SalesStatus public salesStatus;\r\n\r\n    /// event when owner change status\r\n    event newStatus(SalesStatus newStatus);\r\n\r\n    /// event when someone buy\r\n    event TokensBuy(\r\n        address addressBuyer,\r\n        uint128 numberOfTokensPurchased,\r\n        uint128 amountSpendInDollars\r\n    );\r\n\r\n    /**\r\n     * @notice check that the purchase parameters are correct\r\n     * @dev called in function buy with ETH and buy with USDT\r\n     * @param _amount is the amount to buy in dollars\r\n     */\r\n    modifier requireToBuy(uint128 _amount) {\r\n        require(\r\n            (investors[msg.sender].isWhitelisted &&\r\n                salesStatus == SalesStatus(1)) || salesStatus == SalesStatus(2),\r\n            \"Vous ne pouvez pas investir pour le moment !\"\r\n        );\r\n        require(\r\n            _amount>=1,\r\n            \"Ce montant est inferieur au montant minimum !\"\r\n        );\r\n        require(\r\n            calculNumberOfTokenToBuy(_amount) <= numberOfTokenToSell,\r\n            \"Il ne reste plus assez de tokens disponibles !\"\r\n        );\r\n        _;\r\n    }\r\n\r\n    /**\r\n     * @notice add the address to the whitelist\r\n     * @dev only the Owner of the contract can call this function\r\n     * @param _address is an array of address\r\n     */\r\n    function setWhitelist(address[] memory _address) external onlyOwner {\r\n        for (uint256 i = 0; i < _address.length; i++) {\r\n            investors[_address[i]].isWhitelisted = true;\r\n        }\r\n    }\r\n\r\n    /**\r\n     * @notice change the status of the sale\r\n     * @dev only the Owner of the contract can call this function\r\n     * @param _idStatus is the id of the status\r\n     */\r\n    function changeSalesStatus(uint256 _idStatus) external onlyOwner {\r\n        salesStatus = SalesStatus(_idStatus);\r\n\r\n        emit newStatus(SalesStatus(_idStatus));\r\n    }\r\n\r\n    /**\r\n     * @notice calcul number of token to buy\r\n     * @dev this is a public function, called in the modifier and buy function\r\n     * @dev we use it with the dapp to show the number of token to buy\r\n     * @param _amountDollars is the amount to buy in dollars\r\n     */\r\n    function calculNumberOfTokenToBuy(uint128 _amountDollars)\r\n        public\r\n        view\r\n        returns (uint128)\r\n    {\r\n        require(\r\n            _amountDollars <= 100000,\r\n            \"Vous ne pouvez pas investir plus de 100 000 $\"\r\n        );\r\n        if (numberOfTokenToSell > 400000000) {\r\n            if (\r\n                (numberOfTokenToSell - (_amountDollars * 10000) / 6) >=\r\n                400000000\r\n            ) return (_amountDollars * 10000) / 6;\r\n            else {\r\n                return\r\n                    (numberOfTokenToSell - 400000000) +\r\n                    ((_amountDollars -\r\n                        (((numberOfTokenToSell - 400000000) * 6) / 10000)) /\r\n                        8) *\r\n                    10000;\r\n            }\r\n        } else if (numberOfTokenToSell > 300000000) {\r\n            if (\r\n                (numberOfTokenToSell - (_amountDollars * 10000) / 8) >=\r\n                300000000\r\n            ) return (_amountDollars * 10000) / 8;\r\n            else {\r\n                return\r\n                    (numberOfTokenToSell - 300000000) +\r\n                    (_amountDollars -\r\n                        (((numberOfTokenToSell - 300000000) * 8) / 10000)) *\r\n                    1000;\r\n            }\r\n        } else {\r\n            return _amountDollars * 1000;\r\n        }\r\n    }\r\n\r\n    /**\r\n     * @notice buy ANTK with USDT\r\n     * @param _amountDollars is the amount to buy in dollars\r\n     */\r\n    function buyTokenWithTether(uint128 _amountDollars)\r\n        external\r\n        requireToBuy(_amountDollars)\r\n    {\r\n        require(\r\n            IERC20(usdt).allowance(msg.sender, address(this)) >=\r\n                _amountDollars * 10**6,\r\n            \"Vous n'avez pas approuve le transfert de Tether !\"\r\n        );\r\n        require(\r\n            IERC20(usdt).balanceOf(msg.sender) >= _amountDollars * 10**6,\r\n            \"Vous n'avez pas assez de Tether !\"\r\n        );\r\n\r\n        uint128 numberOfTokenToBuy = calculNumberOfTokenToBuy(_amountDollars);\r\n\r\n        bool result = IERC20(usdt).transferFrom(\r\n            msg.sender,\r\n            address(this),\r\n            _amountDollars * 10**6\r\n        );\r\n        require(result, \"Transfer from error\");\r\n\r\n        investors[msg.sender]\r\n            .numberOfTokensPurchased += numberOfTokenToBuy;\r\n        investors[msg.sender].amountSpendInDollars += _amountDollars;\r\n\r\n        emit TokensBuy(\r\n            msg.sender,\r\n            numberOfTokenToBuy,\r\n            _amountDollars\r\n        );\r\n\r\n        numberOfTokenToSell -= numberOfTokenToBuy;\r\n    }\r\n\r\n    /**\r\n     * @notice Get price of ETH in $ with Chainlink\r\n     */\r\n    function getLatestPrice() public view returns (uint128) {\r\n        AggregatorV3Interface priceFeed = AggregatorV3Interface(\r\n            0x5f4eC3Df9cbd43714FE2740f5E3616155c5b8419\r\n        );\r\n        (, int256 price, , , ) = priceFeed.latestRoundData();\r\n\r\n        return uint128(uint256(price));\r\n    }\r\n\r\n    /**\r\n     * @notice buy ANTK with ETH\r\n     * @dev msg.value is the amount of ETH to send buy the buyer\r\n     */\r\n    function buyTokenWithEth()\r\n        external\r\n        payable\r\n        requireToBuy(uint128((msg.value * getLatestPrice()) / 10**26))\r\n    {\r\n        require(\r\n            msg.sender.balance > msg.value,\r\n            \"Vous n'avez pas assez d'ETH !\"\r\n        );\r\n        uint128 amountInDollars = uint128(\r\n            (msg.value * getLatestPrice()) / 10**26\r\n        );\r\n        \r\n        uint128 numberOfTokenToBuy = calculNumberOfTokenToBuy(amountInDollars);\r\n\r\n        investors[msg.sender].numberOfTokensPurchased += numberOfTokenToBuy;\r\n        investors[msg.sender].amountSpendInDollars += amountInDollars;\r\n\r\n        emit TokensBuy(\r\n            msg.sender,\r\n            numberOfTokenToBuy,\r\n            amountInDollars\r\n        );\r\n\r\n        numberOfTokenToSell -= numberOfTokenToBuy;\r\n    }\r\n\r\n    /**\r\n     * @notice send the USDT and the ETH to ANTK company\r\n     * @dev only the Owner of the contract can call this function\r\n     */\r\n    function getFunds() external onlyOwner {\r\n        IERC20(usdt).transfer(owner(), IERC20(usdt).balanceOf(address(this)));\r\n\r\n        (bool sent, ) = owner().call{value: address(this).balance}(\"\");\r\n        require(sent, \"Failed to send Ether\");\r\n    }\r\n\r\n    /**\r\n     * @notice see the USDT and the ETH on the contract\r\n     */\r\n    function seeFunds() external view returns (uint256 USDT, uint256 ETH) {\r\n        return (IERC20(usdt).balanceOf(address(this)), address(this).balance);\r\n    }\r\n}",
  "sourcePath": "E:\\Projets\\Antk\\Dapp\\truffle\\contracts\\AntkPrivate.sol",
  "compiler": {
    "name": "solc",
    "version": "0.8.17+commit.8df45f5f.Emscripten.clang"
  },
  "schemaVersion": "3.4.9",
  "updatedAt": "2022-09-20T15:11:45.759Z",
  "devdoc": {
    "author": "https://antk.io",
    "details": "Buyers can buy only with ETH or USDTCan add whitelists address to buy firstImplementation of the {IERC20} interfaceImplementation of the {Ownable} contractImplementation of the {AggregatorV3Interface} contract",
    "kind": "dev",
    "methods": {
      "buyTokenWithEth()": {
        "details": "msg.value is the amount of ETH to send buy the buyer"
      },
      "buyTokenWithTether(uint128)": {
        "params": {
          "_amountDollars": "is the amount to buy in dollars"
        }
      },
      "calculNumberOfTokenToBuy(uint128)": {
        "details": "this is a public function, called in the modifier and buy functionwe use it with the dapp to show the number of token to buy",
        "params": {
          "_amountDollars": "is the amount to buy in dollars"
        }
      },
      "changeSalesStatus(uint256)": {
        "details": "only the Owner of the contract can call this function",
        "params": {
          "_idStatus": "is the id of the status"
        }
      },
      "getFunds()": {
        "details": "only the Owner of the contract can call this function"
      },
      "owner()": {
        "details": "Returns the address of the current owner."
      },
      "renounceOwnership()": {
        "details": "Leaves the contract without owner. It will not be possible to call `onlyOwner` functions anymore. Can only be called by the current owner. NOTE: Renouncing ownership will leave the contract without an owner, thereby removing any functionality that is only available to the owner."
      },
      "setWhitelist(address[])": {
        "details": "only the Owner of the contract can call this function",
        "params": {
          "_address": "is an array of address"
        }
      },
      "transferOwnership(address)": {
        "details": "Transfers ownership of the contract to a new account (`newOwner`). Can only be called by the current owner."
      }
    },
    "stateVariables": {
      "numberOfTokenToSell": {
        "details": "numberOfTokenToSell is the number of ANTK to sellIt is update when someone buy"
      },
      "usdt": {
        "details": "tether is the only ERC20 asset to buy ANTK"
      }
    },
    "title": "Private Sale ANTK",
    "version": 1
  },
  "userdoc": {
    "events": {
      "TokensBuy(address,uint128,uint128)": {
        "notice": "event when someone buy"
      },
      "newStatus(uint8)": {
        "notice": "event when owner change status"
      }
    },
    "kind": "user",
    "methods": {
      "buyTokenWithEth()": {
        "notice": "buy ANTK with ETH"
      },
      "buyTokenWithTether(uint128)": {
        "notice": "buy ANTK with USDT"
      },
      "calculNumberOfTokenToBuy(uint128)": {
        "notice": "calcul number of token to buy"
      },
      "changeSalesStatus(uint256)": {
        "notice": "change the status of the sale"
      },
      "getFunds()": {
        "notice": "send the USDT and the ETH to ANTK company"
      },
      "getLatestPrice()": {
        "notice": "Get price of ETH in $ with Chainlink"
      },
      "investors(address)": {
        "notice": "buyer's address  => buyer's informations"
      },
      "salesStatus()": {
        "notice": "salesStatus is the status of the sales"
      },
      "seeFunds()": {
        "notice": "see the USDT and the ETH on the contract"
      },
      "setWhitelist(address[])": {
        "notice": "add the address to the whitelist"
      }
    },
    "notice": "This contract is a pre sale contract",
    "version": 1
  }
}