{
  "contractName": "AntkPrivate",
  "abi": [
    {
      "inputs": [
        {
          "internalType": "address",
          "name": "_usdt",
          "type": "address"
        },
        {
          "internalType": "address",
          "name": "_ethPrice",
          "type": "address"
        },
        {
          "internalType": "address",
          "name": "_antkWallet",
          "type": "address"
        },
        {
          "internalType": "bytes32",
          "name": "_root",
          "type": "bytes32"
        }
      ],
      "stateMutability": "nonpayable",
      "type": "constructor"
    },
    {
      "anonymous": false,
      "inputs": [
        {
          "indexed": false,
          "internalType": "enum AntkPrivate.SalesStatus",
          "name": "newStatus",
          "type": "uint8"
        }
      ],
      "name": "NewStatus",
      "type": "event"
    },
    {
      "anonymous": false,
      "inputs": [
        {
          "indexed": true,
          "internalType": "address",
          "name": "previousOwner",
          "type": "address"
        },
        {
          "indexed": true,
          "internalType": "address",
          "name": "newOwner",
          "type": "address"
        }
      ],
      "name": "OwnershipTransferred",
      "type": "event"
    },
    {
      "anonymous": false,
      "inputs": [
        {
          "indexed": false,
          "internalType": "address",
          "name": "addressBuyer",
          "type": "address"
        },
        {
          "indexed": false,
          "internalType": "uint256",
          "name": "numberOfTokensPurchased",
          "type": "uint256"
        },
        {
          "indexed": false,
          "internalType": "uint256",
          "name": "amountSpendInDollars",
          "type": "uint256"
        }
      ],
      "name": "TokensBuy",
      "type": "event"
    },
    {
      "inputs": [
        {
          "internalType": "address",
          "name": "",
          "type": "address"
        }
      ],
      "name": "investors",
      "outputs": [
        {
          "internalType": "uint128",
          "name": "numberOfTokensPurchased",
          "type": "uint128"
        },
        {
          "internalType": "uint128",
          "name": "amountSpendInDollars",
          "type": "uint128"
        },
        {
          "internalType": "uint128",
          "name": "bonusTokens",
          "type": "uint128"
        }
      ],
      "stateMutability": "view",
      "type": "function",
      "constant": true
    },
    {
      "inputs": [],
      "name": "numberOfTokenBonus",
      "outputs": [
        {
          "internalType": "uint256",
          "name": "",
          "type": "uint256"
        }
      ],
      "stateMutability": "view",
      "type": "function",
      "constant": true
    },
    {
      "inputs": [],
      "name": "numberOfTokenToSell",
      "outputs": [
        {
          "internalType": "uint256",
          "name": "",
          "type": "uint256"
        }
      ],
      "stateMutability": "view",
      "type": "function",
      "constant": true
    },
    {
      "inputs": [],
      "name": "owner",
      "outputs": [
        {
          "internalType": "address",
          "name": "",
          "type": "address"
        }
      ],
      "stateMutability": "view",
      "type": "function",
      "constant": true
    },
    {
      "inputs": [],
      "name": "renounceOwnership",
      "outputs": [],
      "stateMutability": "nonpayable",
      "type": "function"
    },
    {
      "inputs": [],
      "name": "salesStatus",
      "outputs": [
        {
          "internalType": "enum AntkPrivate.SalesStatus",
          "name": "",
          "type": "uint8"
        }
      ],
      "stateMutability": "view",
      "type": "function",
      "constant": true
    },
    {
      "inputs": [
        {
          "internalType": "address",
          "name": "newOwner",
          "type": "address"
        }
      ],
      "name": "transferOwnership",
      "outputs": [],
      "stateMutability": "nonpayable",
      "type": "function"
    },
    {
      "inputs": [
        {
          "internalType": "bytes32",
          "name": "_root",
          "type": "bytes32"
        }
      ],
      "name": "setRoot",
      "outputs": [],
      "stateMutability": "nonpayable",
      "type": "function"
    },
    {
      "inputs": [
        {
          "internalType": "bytes32[]",
          "name": "_merkleProof",
          "type": "bytes32[]"
        }
      ],
      "name": "isWhitelist",
      "outputs": [
        {
          "internalType": "bool",
          "name": "",
          "type": "bool"
        }
      ],
      "stateMutability": "view",
      "type": "function",
      "constant": true
    },
    {
      "inputs": [
        {
          "internalType": "uint256",
          "name": "_idStatus",
          "type": "uint256"
        }
      ],
      "name": "changeSalesStatus",
      "outputs": [],
      "stateMutability": "nonpayable",
      "type": "function"
    },
    {
      "inputs": [
        {
          "internalType": "uint256",
          "name": "_amountDollars",
          "type": "uint256"
        }
      ],
      "name": "calculNumberOfTokenToBuy",
      "outputs": [
        {
          "internalType": "uint256",
          "name": "",
          "type": "uint256"
        }
      ],
      "stateMutability": "view",
      "type": "function",
      "constant": true
    },
    {
      "inputs": [
        {
          "internalType": "uint128",
          "name": "_amountDollars",
          "type": "uint128"
        },
        {
          "internalType": "bytes32[]",
          "name": "_merkleProof",
          "type": "bytes32[]"
        }
      ],
      "name": "buyTokenWithTether",
      "outputs": [],
      "stateMutability": "nonpayable",
      "type": "function"
    },
    {
      "inputs": [],
      "name": "getLatestPrice",
      "outputs": [
        {
          "internalType": "uint256",
          "name": "",
          "type": "uint256"
        }
      ],
      "stateMutability": "view",
      "type": "function",
      "constant": true
    },
    {
      "inputs": [
        {
          "internalType": "bytes32[]",
          "name": "_merkleProof",
          "type": "bytes32[]"
        }
      ],
      "name": "buyTokenWithEth",
      "outputs": [],
      "stateMutability": "payable",
      "type": "function",
      "payable": true
    },
    {
      "inputs": [],
      "name": "secureBuyEth",
      "outputs": [],
      "stateMutability": "nonpayable",
      "type": "function"
    },
    {
      "inputs": [],
      "name": "getFunds",
      "outputs": [],
      "stateMutability": "nonpayable",
      "type": "function"
    }
  ],
  "bytecode": "0x60e0604052631dcd6500600155629896806002553480156200002057600080fd5b506040516200291938038062002919833981810160405281019062000046919062000284565b620000666200005a6200011360201b60201c565b6200011b60201b60201c565b8373ffffffffffffffffffffffffffffffffffffffff1660808173ffffffffffffffffffffffffffffffffffffffff16815250508273ffffffffffffffffffffffffffffffffffffffff1660a08173ffffffffffffffffffffffffffffffffffffffff16815250508173ffffffffffffffffffffffffffffffffffffffff1660c08173ffffffffffffffffffffffffffffffffffffffff16815250508060038190555050505050620002f6565b600033905090565b60008060009054906101000a900473ffffffffffffffffffffffffffffffffffffffff169050816000806101000a81548173ffffffffffffffffffffffffffffffffffffffff021916908373ffffffffffffffffffffffffffffffffffffffff1602179055508173ffffffffffffffffffffffffffffffffffffffff168173ffffffffffffffffffffffffffffffffffffffff167f8be0079c531659141344cd1fd0a4f28419497f9722a3daafe3b4186f6b6457e060405160405180910390a35050565b600080fd5b600073ffffffffffffffffffffffffffffffffffffffff82169050919050565b60006200021182620001e4565b9050919050565b620002238162000204565b81146200022f57600080fd5b50565b600081519050620002438162000218565b92915050565b6000819050919050565b6200025e8162000249565b81146200026a57600080fd5b50565b6000815190506200027e8162000253565b92915050565b60008060008060808587031215620002a157620002a0620001df565b5b6000620002b18782880162000232565b9450506020620002c48782880162000232565b9350506040620002d78782880162000232565b9250506060620002ea878288016200026d565b91505092959194509250565b60805160a05160c0516125de6200033b60003960008181610a320152610b50015260006111eb0152600081816109f601528181610a530152610ef501526125de6000f3fe6080604052600436106100f35760003560e01c80636f7bc9be1161008a5780638e15f473116100595780638e15f473146102d3578063dab5f340146102fe578063ed475f6314610327578063f2fde38b14610364576100f3565b80636f7bc9be14610229578063715018a61461026857806372f5301d1461027f5780638da5cb5b146102a8576100f3565b806337d2047b116100c657806337d2047b146101935780634d9b3735146101be5780635007bb55146101d5578063533e9e7e146101fe576100f3565b8063252fb902146100f85780632f37009b146101355780633528dc5c1461015157806336d3421714610168575b600080fd5b34801561010457600080fd5b5061011f600480360381019061011a919061176e565b61038d565b60405161012c91906117aa565b60405180910390f35b61014f600480360381019061014a919061182a565b610583565b005b34801561015d57600080fd5b50610166610979565b005b34801561017457600080fd5b5061017d6109d3565b60405161018a91906117aa565b60405180910390f35b34801561019f57600080fd5b506101a86109d9565b6040516101b591906118ee565b60405180910390f35b3480156101ca57600080fd5b506101d36109ec565b005b3480156101e157600080fd5b506101fc60048036038101906101f7919061176e565b610c1b565b005b34801561020a57600080fd5b50610213610cab565b60405161022091906117aa565b60405180910390f35b34801561023557600080fd5b50610250600480360381019061024b9190611967565b610cb1565b60405161025f939291906119bf565b60405180910390f35b34801561027457600080fd5b5061027d610d2f565b005b34801561028b57600080fd5b506102a660048036038101906102a19190611a22565b610d43565b005b3480156102b457600080fd5b506102bd6111bd565b6040516102ca9190611a91565b60405180910390f35b3480156102df57600080fd5b506102e86111e6565b6040516102f591906117aa565b60405180910390f35b34801561030a57600080fd5b5061032560048036038101906103209190611ae2565b61128b565b005b34801561033357600080fd5b5061034e6004803603810190610349919061182a565b61129d565b60405161035b9190611b2a565b60405180910390f35b34801561037057600080fd5b5061038b60048036038101906103869190611967565b611320565b005b6000620186a08211156103d5576040517f08c379a00000000000000000000000000000000000000000000000000000000081526004016103cc90611bc8565b60405180910390fd5b6317d7840060015411156104a7576317d784006006612710846103f89190611c17565b6104029190611c88565b60015461040f9190611cb9565b10610435576006612710836104249190611c17565b61042e9190611c88565b905061057e565b612710600861271060066317d784006001546104519190611cb9565b61045b9190611c17565b6104659190611c88565b846104709190611cb9565b61047a9190611c88565b6104849190611c17565b6317d784006001546104969190611cb9565b6104a09190611ced565b905061057e565b6311e1a300600154111561056d576311e1a3006008612710846104ca9190611c17565b6104d49190611c88565b6001546104e19190611cb9565b10610507576008612710836104f69190611c17565b6105009190611c88565b905061057e565b6103e861271060086311e1a3006001546105219190611cb9565b61052b9190611c17565b6105359190611c88565b836105409190611cb9565b61054a9190611c17565b6311e1a30060015461055c9190611cb9565b6105669190611ced565b905061057e565b6103e88261057b9190611c17565b90505b919050565b6a52b7d2dcc80cd2e40000006105976111e6565b346105a29190611c17565b6105ac9190611c88565b82826105b8828261129d565b80156106095750600160028111156105d3576105d2611877565b5b60028111156105e5576105e4611877565b5b600660009054906101000a900460ff16600281111561060757610606611877565b5b145b80610658575060028081111561062257610621611877565b5b600281111561063457610633611877565b5b600660009054906101000a900460ff16600281111561065657610655611877565b5b145b610697576040517f08c379a000000000000000000000000000000000000000000000000000000000815260040161068e90611d93565b60405180910390fd5b60018310156106db576040517f08c379a00000000000000000000000000000000000000000000000000000000081526004016106d290611e25565b60405180910390fd5b6001546106e78461038d565b1115610728576040517f08c379a000000000000000000000000000000000000000000000000000000000815260040161071f90611eb7565b60405180910390fd5b600460009054906101000a900460ff1615610778576040517f08c379a000000000000000000000000000000000000000000000000000000000815260040161076f90611f49565b60405180910390fd5b60006a52b7d2dcc80cd2e400000061078e6111e6565b346107999190611c17565b6107a39190611c88565b905060006107b08261038d565b905080600560003373ffffffffffffffffffffffffffffffffffffffff1673ffffffffffffffffffffffffffffffffffffffff16815260200190815260200160002060000160008282829054906101000a90046fffffffffffffffffffffffffffffffff1661081f9190611f69565b92506101000a8154816fffffffffffffffffffffffffffffffff02191690836fffffffffffffffffffffffffffffffff16021790555081600560003373ffffffffffffffffffffffffffffffffffffffff1673ffffffffffffffffffffffffffffffffffffffff16815260200190815260200160002060000160108282829054906101000a90046fffffffffffffffffffffffffffffffff166108c29190611f69565b92506101000a8154816fffffffffffffffffffffffffffffffff02191690836fffffffffffffffffffffffffffffffff1602179055507f2fd6899af903fe2e9dbb9631ff641c605a832dab80053a4ae29d541a1b041d7233828460405161092b93929190611fad565b60405180910390a180600160008282546109459190611cb9565b925050819055506101f4821015801561096057506000600254115b156109705761096f81836113a3565b5b50505050505050565b610981611535565b600460009054906101000a900460ff166109b5576001600460006101000a81548160ff0219169083151502179055506109d1565b6000600460006101000a81548160ff0219169083151502179055505b565b60015481565b600660009054906101000a900460ff1681565b6109f4611535565b7f000000000000000000000000000000000000000000000000000000000000000073ffffffffffffffffffffffffffffffffffffffff1663a9059cbb7f00000000000000000000000000000000000000000000000000000000000000007f000000000000000000000000000000000000000000000000000000000000000073ffffffffffffffffffffffffffffffffffffffff166370a08231306040518263ffffffff1660e01b8152600401610aaa9190611a91565b602060405180830381865afa158015610ac7573d6000803e3d6000fd5b505050506040513d601f19601f82011682018060405250810190610aeb9190611ff9565b6040518363ffffffff1660e01b8152600401610b08929190612026565b6020604051808303816000875af1158015610b27573d6000803e3d6000fd5b505050506040513d601f19601f82011682018060405250810190610b4b919061207b565b5060007f000000000000000000000000000000000000000000000000000000000000000073ffffffffffffffffffffffffffffffffffffffff1647604051610b92906120d9565b60006040518083038185875af1925050503d8060008114610bcf576040519150601f19603f3d011682016040523d82523d6000602084013e610bd4565b606091505b5050905080610c18576040517f08c379a0000000000000000000000000000000000000000000000000000000008152600401610c0f9061213a565b60405180910390fd5b50565b610c23611535565b806002811115610c3657610c35611877565b5b600660006101000a81548160ff02191690836002811115610c5a57610c59611877565b5b02179055507faf0a4d7cc70eddd40590b61186ad27449477c80b2d8b8fde44736ff9942b6043816002811115610c9357610c92611877565b5b604051610ca091906118ee565b60405180910390a150565b60025481565b60056020528060005260406000206000915090508060000160009054906101000a90046fffffffffffffffffffffffffffffffff16908060000160109054906101000a90046fffffffffffffffffffffffffffffffff16908060010160009054906101000a90046fffffffffffffffffffffffffffffffff16905083565b610d37611535565b610d4160006115b3565b565b826fffffffffffffffffffffffffffffffff168282610d62828261129d565b8015610db3575060016002811115610d7d57610d7c611877565b5b6002811115610d8f57610d8e611877565b5b600660009054906101000a900460ff166002811115610db157610db0611877565b5b145b80610e025750600280811115610dcc57610dcb611877565b5b6002811115610dde57610ddd611877565b5b600660009054906101000a900460ff166002811115610e0057610dff611877565b5b145b610e41576040517f08c379a0000000000000000000000000000000000000000000000000000000008152600401610e3890611d93565b60405180910390fd5b6001831015610e85576040517f08c379a0000000000000000000000000000000000000000000000000000000008152600401610e7c90611e25565b60405180910390fd5b600154610e918461038d565b1115610ed2576040517f08c379a0000000000000000000000000000000000000000000000000000000008152600401610ec990611eb7565b60405180910390fd5b6000610eef876fffffffffffffffffffffffffffffffff1661038d565b905060007f000000000000000000000000000000000000000000000000000000000000000073ffffffffffffffffffffffffffffffffffffffff166323b872dd3330620f42408c610f40919061215a565b6040518463ffffffff1660e01b8152600401610f5e939291906121d2565b6020604051808303816000875af1158015610f7d573d6000803e3d6000fd5b505050506040513d601f19601f82011682018060405250810190610fa1919061207b565b905080610fe3576040517f08c379a0000000000000000000000000000000000000000000000000000000008152600401610fda90612255565b60405180910390fd5b81600560003373ffffffffffffffffffffffffffffffffffffffff1673ffffffffffffffffffffffffffffffffffffffff16815260200190815260200160002060000160008282829054906101000a90046fffffffffffffffffffffffffffffffff166110509190611f69565b92506101000a8154816fffffffffffffffffffffffffffffffff02191690836fffffffffffffffffffffffffffffffff16021790555087600560003373ffffffffffffffffffffffffffffffffffffffff1673ffffffffffffffffffffffffffffffffffffffff16815260200190815260200160002060000160108282829054906101000a90046fffffffffffffffffffffffffffffffff166110f39190611f69565b92506101000a8154816fffffffffffffffffffffffffffffffff02191690836fffffffffffffffffffffffffffffffff1602179055507f2fd6899af903fe2e9dbb9631ff641c605a832dab80053a4ae29d541a1b041d7233838a60405161115c93929190612275565b60405180910390a181600160008282546111769190611cb9565b925050819055506101f4886fffffffffffffffffffffffffffffffff16101580156111a357506000600254115b156111b3576111b282896113a3565b5b5050505050505050565b60008060009054906101000a900473ffffffffffffffffffffffffffffffffffffffff16905090565b6000807f0000000000000000000000000000000000000000000000000000000000000000905060008173ffffffffffffffffffffffffffffffffffffffff1663feaf968c6040518163ffffffff1660e01b815260040160a060405180830381865afa158015611259573d6000803e3d6000fd5b505050506040513d601f19601f8201168201806040525081019061127d9190612324565b505050915050809250505090565b611293611535565b8060038190555050565b600080336040516020016112b191906123e7565b604051602081830303815290604052805190602001209050611317848480806020026020016040519081016040528093929190818152602001838360200280828437600081840152601f19601f8201169050808301925050505050505060035483611677565b91505092915050565b611328611535565b600073ffffffffffffffffffffffffffffffffffffffff168173ffffffffffffffffffffffffffffffffffffffff1603611397576040517f08c379a000000000000000000000000000000000000000000000000000000000815260040161138e90612474565b60405180910390fd5b6113a0816115b3565b50565b60006105dc826fffffffffffffffffffffffffffffffff161061140657600a836113cd9190612494565b6fffffffffffffffffffffffffffffffff16600254106113fb57600a836113f49190612494565b9050611401565b60025490505b611462565b6103e8604184611416919061215a565b6114209190612494565b6fffffffffffffffffffffffffffffffff166002541061145b576103e860418461144a919061215a565b6114549190612494565b9050611461565b60025490505b5b80600560003373ffffffffffffffffffffffffffffffffffffffff1673ffffffffffffffffffffffffffffffffffffffff16815260200190815260200160002060010160008282829054906101000a90046fffffffffffffffffffffffffffffffff166114cf9190611f69565b92506101000a8154816fffffffffffffffffffffffffffffffff02191690836fffffffffffffffffffffffffffffffff160217905550806fffffffffffffffffffffffffffffffff16600260008282546115299190611cb9565b92505081905550505050565b61153d61168e565b73ffffffffffffffffffffffffffffffffffffffff1661155b6111bd565b73ffffffffffffffffffffffffffffffffffffffff16146115b1576040517f08c379a00000000000000000000000000000000000000000000000000000000081526004016115a890612511565b60405180910390fd5b565b60008060009054906101000a900473ffffffffffffffffffffffffffffffffffffffff169050816000806101000a81548173ffffffffffffffffffffffffffffffffffffffff021916908373ffffffffffffffffffffffffffffffffffffffff1602179055508173ffffffffffffffffffffffffffffffffffffffff168173ffffffffffffffffffffffffffffffffffffffff167f8be0079c531659141344cd1fd0a4f28419497f9722a3daafe3b4186f6b6457e060405160405180910390a35050565b6000826116848584611696565b1490509392505050565b600033905090565b60008082905060005b84518110156116e1576116cc828683815181106116bf576116be612531565b5b60200260200101516116ec565b915080806116d990612560565b91505061169f565b508091505092915050565b6000818310611704576116ff8284611717565b61170f565b61170e8383611717565b5b905092915050565b600082600052816020526040600020905092915050565b600080fd5b600080fd5b6000819050919050565b61174b81611738565b811461175657600080fd5b50565b60008135905061176881611742565b92915050565b6000602082840312156117845761178361172e565b5b600061179284828501611759565b91505092915050565b6117a481611738565b82525050565b60006020820190506117bf600083018461179b565b92915050565b600080fd5b600080fd5b600080fd5b60008083601f8401126117ea576117e96117c5565b5b8235905067ffffffffffffffff811115611807576118066117ca565b5b602083019150836020820283011115611823576118226117cf565b5b9250929050565b600080602083850312156118415761184061172e565b5b600083013567ffffffffffffffff81111561185f5761185e611733565b5b61186b858286016117d4565b92509250509250929050565b7f4e487b7100000000000000000000000000000000000000000000000000000000600052602160045260246000fd5b600381106118b7576118b6611877565b5b50565b60008190506118c8826118a6565b919050565b60006118d8826118ba565b9050919050565b6118e8816118cd565b82525050565b600060208201905061190360008301846118df565b92915050565b600073ffffffffffffffffffffffffffffffffffffffff82169050919050565b600061193482611909565b9050919050565b61194481611929565b811461194f57600080fd5b50565b6000813590506119618161193b565b92915050565b60006020828403121561197d5761197c61172e565b5b600061198b84828501611952565b91505092915050565b60006fffffffffffffffffffffffffffffffff82169050919050565b6119b981611994565b82525050565b60006060820190506119d460008301866119b0565b6119e160208301856119b0565b6119ee60408301846119b0565b949350505050565b6119ff81611994565b8114611a0a57600080fd5b50565b600081359050611a1c816119f6565b92915050565b600080600060408486031215611a3b57611a3a61172e565b5b6000611a4986828701611a0d565b935050602084013567ffffffffffffffff811115611a6a57611a69611733565b5b611a76868287016117d4565b92509250509250925092565b611a8b81611929565b82525050565b6000602082019050611aa66000830184611a82565b92915050565b6000819050919050565b611abf81611aac565b8114611aca57600080fd5b50565b600081359050611adc81611ab6565b92915050565b600060208284031215611af857611af761172e565b5b6000611b0684828501611acd565b91505092915050565b60008115159050919050565b611b2481611b0f565b82525050565b6000602082019050611b3f6000830184611b1b565b92915050565b600082825260208201905092915050565b7f566f7573206e6520706f7576657a2070617320696e76657374697220706c757360008201527f2064652031303020303030202400000000000000000000000000000000000000602082015250565b6000611bb2602d83611b45565b9150611bbd82611b56565b604082019050919050565b60006020820190508181036000830152611be181611ba5565b9050919050565b7f4e487b7100000000000000000000000000000000000000000000000000000000600052601160045260246000fd5b6000611c2282611738565b9150611c2d83611738565b9250828202611c3b81611738565b91508282048414831517611c5257611c51611be8565b5b5092915050565b7f4e487b7100000000000000000000000000000000000000000000000000000000600052601260045260246000fd5b6000611c9382611738565b9150611c9e83611738565b925082611cae57611cad611c59565b5b828204905092915050565b6000611cc482611738565b9150611ccf83611738565b9250828203905081811115611ce757611ce6611be8565b5b92915050565b6000611cf882611738565b9150611d0383611738565b9250828201905080821115611d1b57611d1a611be8565b5b92915050565b7f566f7573206e6520706f7576657a2070617320696e76657374697220706f757260008201527f206c65206d6f6d656e7420210000000000000000000000000000000000000000602082015250565b6000611d7d602c83611b45565b9150611d8882611d21565b604082019050919050565b60006020820190508181036000830152611dac81611d70565b9050919050565b7f4365206d6f6e74616e742065737420696e66657269657572206175206d6f6e7460008201527f616e74206d696e696d756d202100000000000000000000000000000000000000602082015250565b6000611e0f602d83611b45565b9150611e1a82611db3565b604082019050919050565b60006020820190508181036000830152611e3e81611e02565b9050919050565b7f496c206e6520726573746520706c757320617373657a20646520746f6b656e7360008201527f20646973706f6e69626c65732021000000000000000000000000000000000000602082015250565b6000611ea1602e83611b45565b9150611eac82611e45565b604082019050919050565b60006020820190508181036000830152611ed081611e94565b9050919050565b7f566f7573206e6520706f7576657a20706173206163686574657220656e20457460008201527f6820706f7572206c65206d6f6d656e7420210000000000000000000000000000602082015250565b6000611f33603283611b45565b9150611f3e82611ed7565b604082019050919050565b60006020820190508181036000830152611f6281611f26565b9050919050565b6000611f7482611994565b9150611f7f83611994565b925082820190506fffffffffffffffffffffffffffffffff811115611fa757611fa6611be8565b5b92915050565b6000606082019050611fc26000830186611a82565b611fcf602083018561179b565b611fdc604083018461179b565b949350505050565b600081519050611ff381611742565b92915050565b60006020828403121561200f5761200e61172e565b5b600061201d84828501611fe4565b91505092915050565b600060408201905061203b6000830185611a82565b612048602083018461179b565b9392505050565b61205881611b0f565b811461206357600080fd5b50565b6000815190506120758161204f565b92915050565b6000602082840312156120915761209061172e565b5b600061209f84828501612066565b91505092915050565b600081905092915050565b50565b60006120c36000836120a8565b91506120ce826120b3565b600082019050919050565b60006120e4826120b6565b9150819050919050565b7f4661696c656420746f2073656e64204574686572000000000000000000000000600082015250565b6000612124601483611b45565b915061212f826120ee565b602082019050919050565b6000602082019050818103600083015261215381612117565b9050919050565b600061216582611994565b915061217083611994565b925082820261217e81611994565b91508082146121905761218f611be8565b5b5092915050565b6000819050919050565b60006121bc6121b76121b284611994565b612197565b611738565b9050919050565b6121cc816121a1565b82525050565b60006060820190506121e76000830186611a82565b6121f46020830185611a82565b61220160408301846121c3565b949350505050565b7f5472616e736665722066726f6d206572726f7200000000000000000000000000600082015250565b600061223f601383611b45565b915061224a82612209565b602082019050919050565b6000602082019050818103600083015261226e81612232565b9050919050565b600060608201905061228a6000830186611a82565b612297602083018561179b565b6122a460408301846121c3565b949350505050565b600069ffffffffffffffffffff82169050919050565b6122cb816122ac565b81146122d657600080fd5b50565b6000815190506122e8816122c2565b92915050565b6000819050919050565b612301816122ee565b811461230c57600080fd5b50565b60008151905061231e816122f8565b92915050565b600080600080600060a086880312156123405761233f61172e565b5b600061234e888289016122d9565b955050602061235f8882890161230f565b945050604061237088828901611fe4565b935050606061238188828901611fe4565b9250506080612392888289016122d9565b9150509295509295909350565b60008160601b9050919050565b60006123b78261239f565b9050919050565b60006123c9826123ac565b9050919050565b6123e16123dc82611929565b6123be565b82525050565b60006123f382846123d0565b60148201915081905092915050565b7f4f776e61626c653a206e6577206f776e657220697320746865207a65726f206160008201527f6464726573730000000000000000000000000000000000000000000000000000602082015250565b600061245e602683611b45565b915061246982612402565b604082019050919050565b6000602082019050818103600083015261248d81612451565b9050919050565b600061249f82611994565b91506124aa83611994565b9250826124ba576124b9611c59565b5b828204905092915050565b7f4f776e61626c653a2063616c6c6572206973206e6f7420746865206f776e6572600082015250565b60006124fb602083611b45565b9150612506826124c5565b602082019050919050565b6000602082019050818103600083015261252a816124ee565b9050919050565b7f4e487b7100000000000000000000000000000000000000000000000000000000600052603260045260246000fd5b600061256b82611738565b91507fffffffffffffffffffffffffffffffffffffffffffffffffffffffffffffffff820361259d5761259c611be8565b5b60018201905091905056fea2646970667358221220940eb171c29ec4dae0f092ea5854abf20bf9e104395c5250d38ebdeee1621dcf64736f6c63430008110033",
  "immutableReferences": {
    "18": [
      {
        "length": 32,
        "start": 2550
      },
      {
        "length": 32,
        "start": 2643
      },
      {
        "length": 32,
        "start": 3829
      }
    ],
    "20": [
      {
        "length": 32,
        "start": 4587
      }
    ],
    "22": [
      {
        "length": 32,
        "start": 2610
      },
      {
        "length": 32,
        "start": 2896
      }
    ]
  },
  "source": "// SPDX-License-Identifier: MIT\r\npragma solidity 0.8.17;\r\n\r\nimport \"../node_modules/@openzeppelin/contracts/access/Ownable.sol\";\r\nimport \"../node_modules/@openzeppelin/contracts/token/ERC20/IERC20.sol\";\r\nimport \"../node_modules/@openzeppelin/contracts/utils/cryptography/MerkleProof.sol\";\r\n\r\nimport \"../node_modules/@chainlink/contracts/src/v0.8/interfaces/AggregatorV3Interface.sol\";\r\n\r\n/**\r\n * @title Private Sale ANTK\r\n *\r\n * @notice This contract is a pre sale contract\r\n *\r\n * @author https://antk.io\r\n *\r\n * @dev Buyers can buy only with ETH or USDT\r\n * @dev Can add whitelists address to buy first\r\n *\r\n * @dev Implementation of the {Ownable} contract\r\n *\r\n */\r\n\r\ncontract AntkPrivate is Ownable {\r\n    /**\r\n     * @dev numberOfTokenToSell is the number of ANTK to sell\r\n     * @dev numberOfTokenBonus is the number of ANTK in bonus\r\n     * @dev 6.5% if amountInDollars>500$ and 10% if >1500\r\n     * @dev They are update when someone buy\r\n     */\r\n    uint256 public numberOfTokenToSell = 500000000;\r\n    uint256 public numberOfTokenBonus = 10000000;\r\n\r\n    /**\r\n     * @dev tether is the only ERC20 asset to buy ANTK\r\n     * @dev ethPrice is the Chainlink address Price of eth\r\n     * @dev anktWallet is the wallet that will recover the funds\r\n     */\r\n    address immutable usdt;\r\n    address immutable ethPrice;\r\n    address immutable antkWallet;\r\n\r\n    /**\r\n     * @dev root is the rootHash of the whitelisted address\r\n     */\r\n    bytes32 private root;\r\n\r\n    /**\r\n     * @dev activeEth to secure the buyEth if chainlink doesn't work\r\n     */\r\n    bool unactiveEth;\r\n\r\n    /// save informations about the buyers\r\n    struct Investor {\r\n        uint128 numberOfTokensPurchased;\r\n        uint128 amountSpendInDollars;\r\n        uint128 bonusTokens;\r\n    }\r\n\r\n    /// buyer's address  => buyer's informations\r\n    mapping(address => Investor) public investors;\r\n\r\n    /// status of this sales contract\r\n    enum SalesStatus {\r\n        AdminTime,\r\n        SalesForWhitelist,\r\n        SalesForAll\r\n    }\r\n\r\n    /// salesStatus is the status of the sales\r\n    SalesStatus public salesStatus;\r\n\r\n    /// event when owner change status\r\n    event NewStatus(SalesStatus newStatus);\r\n\r\n    /// event when someone buy\r\n    event TokensBuy(\r\n        address addressBuyer,\r\n        uint256 numberOfTokensPurchased,\r\n        uint256 amountSpendInDollars\r\n    );\r\n\r\n    /**\r\n     * @notice Constructor to set address at the deployement\r\n     * @param _usdt is the ERC20 asset to buy Antk\r\n     * @param _ethPrice is the Chainlink address Price of eth\r\n     * @param _antkWallet is the wallet that will recover the funds\r\n     * @param _root is the rootHash of the whitelisted address\r\n     */\r\n    constructor(\r\n        address _usdt,\r\n        address _ethPrice,\r\n        address _antkWallet,\r\n        bytes32 _root\r\n    ) {\r\n        usdt = _usdt;\r\n        ethPrice = _ethPrice;\r\n        antkWallet = _antkWallet;\r\n        root = _root;\r\n    }\r\n\r\n    /**\r\n     * @notice check that the purchase parameters are correct\r\n     * @dev called in function buy with ETH and buy with USDT\r\n     * @param _amount is the amount to buy in dollars\r\n     */\r\n    modifier requireToBuy(uint256 _amount, bytes32[] calldata _merkleProof) {\r\n        require(\r\n            (isWhitelist(_merkleProof) && salesStatus == SalesStatus(1)) ||\r\n                salesStatus == SalesStatus(2),\r\n            \"Vous ne pouvez pas investir pour le moment !\"\r\n        );\r\n        require(_amount >= 1, \"Ce montant est inferieur au montant minimum !\");\r\n        require(\r\n            calculNumberOfTokenToBuy(_amount) <= numberOfTokenToSell,\r\n            \"Il ne reste plus assez de tokens disponibles !\"\r\n        );\r\n        _;\r\n    }\r\n\r\n    /**\r\n     * @notice set the root to set whitelisted address\r\n     * @dev only owner can call this function\r\n     * @param _root is the rootHash of the whitelisted address\r\n     */\r\n    function setRoot(bytes32 _root) external onlyOwner {\r\n        root = _root;\r\n    }\r\n\r\n    /**\r\n     * @notice check if the address is whitelisted\r\n     * @param _merkleProof is an array of proof on the webApp\r\n     */\r\n    function isWhitelist(bytes32[] calldata _merkleProof)\r\n        public\r\n        view\r\n        returns (bool)\r\n    {\r\n        bytes32 leaf = keccak256(abi.encodePacked(msg.sender));\r\n        return MerkleProof.verify(_merkleProof, root, leaf);\r\n    }\r\n\r\n    /**\r\n     * @notice change the status of the sale\r\n     * @dev only the Owner of the contract can call this function\r\n     * @param _idStatus is the id of the status\r\n     */\r\n    function changeSalesStatus(uint256 _idStatus) external onlyOwner {\r\n        salesStatus = SalesStatus(_idStatus);\r\n\r\n        emit NewStatus(SalesStatus(_idStatus));\r\n    }\r\n\r\n    /**\r\n     * @notice calcul number of token to buy\r\n     * @dev this is a public function, called in the modifier and buy function\r\n     * @dev we use it with the dapp to show the number of token to buy\r\n     * @param _amountDollars is the amount to buy in dollars\r\n     */\r\n    function calculNumberOfTokenToBuy(uint256 _amountDollars)\r\n        public\r\n        view\r\n        returns (uint256)\r\n    {\r\n        require(\r\n            _amountDollars <= 100000,\r\n            \"Vous ne pouvez pas investir plus de 100 000 $\"\r\n        );\r\n        if (numberOfTokenToSell > 400000000) {\r\n            if (\r\n                (numberOfTokenToSell - (_amountDollars * 10000) / 6) >=\r\n                400000000\r\n            ) return (_amountDollars * 10000) / 6;\r\n            else {\r\n                return\r\n                    (numberOfTokenToSell - 400000000) +\r\n                    ((_amountDollars -\r\n                        (((numberOfTokenToSell - 400000000) * 6) / 10000)) /\r\n                        8) *\r\n                    10000;\r\n            }\r\n        } else if (numberOfTokenToSell > 300000000) {\r\n            if (\r\n                (numberOfTokenToSell - (_amountDollars * 10000) / 8) >=\r\n                300000000\r\n            ) return (_amountDollars * 10000) / 8;\r\n            else {\r\n                return\r\n                    (numberOfTokenToSell - 300000000) +\r\n                    (_amountDollars -\r\n                        (((numberOfTokenToSell - 300000000) * 8) / 10000)) *\r\n                    1000;\r\n            }\r\n        } else {\r\n            return _amountDollars * 1000;\r\n        }\r\n    }\r\n\r\n    /**\r\n     * @notice buy ANTK with USDT\r\n     * @param _amountDollars is the amount to buy in dollars\r\n     */\r\n    function buyTokenWithTether(\r\n        uint128 _amountDollars,\r\n        bytes32[] calldata _merkleProof\r\n    ) external requireToBuy(_amountDollars, _merkleProof) {\r\n        uint256 numberOfTokenToBuy = calculNumberOfTokenToBuy(_amountDollars);\r\n\r\n        bool result = IERC20(usdt).transferFrom(\r\n            msg.sender,\r\n            address(this),\r\n            _amountDollars * 10**6\r\n        );\r\n        require(result, \"Transfer from error\");\r\n\r\n        investors[msg.sender].numberOfTokensPurchased += uint128(\r\n            numberOfTokenToBuy\r\n        );\r\n        investors[msg.sender].amountSpendInDollars += _amountDollars;\r\n\r\n        emit TokensBuy(msg.sender, numberOfTokenToBuy, _amountDollars);\r\n\r\n        numberOfTokenToSell -= numberOfTokenToBuy;\r\n\r\n        if (_amountDollars >= 500 && numberOfTokenBonus > 0) {\r\n            _setBonus(uint128(numberOfTokenToBuy), uint128(_amountDollars));\r\n        }\r\n    }\r\n\r\n    /**\r\n     * @notice Get price of ETH in $ with Chainlink\r\n     */\r\n    function getLatestPrice() public view returns (uint256) {\r\n        AggregatorV3Interface priceFeed = AggregatorV3Interface(\r\n            ethPrice\r\n        );\r\n        (, int256 price, , , ) = priceFeed.latestRoundData();\r\n\r\n        return uint256(price);\r\n    }\r\n\r\n    /**\r\n     * @notice buy ANTK with ETH\r\n     * @dev msg.value is the amount of ETH to send buy the buyer\r\n     */\r\n    function buyTokenWithEth(bytes32[] calldata _merkleProof)\r\n        external\r\n        payable\r\n        requireToBuy(\r\n            uint256((msg.value * getLatestPrice()) / 10**26),\r\n            _merkleProof\r\n        )\r\n    {\r\n        require(\r\n            !unactiveEth,\r\n            \"Vous ne pouvez pas acheter en Eth pour le moment !\"\r\n        );\r\n        uint256 amountInDollars = uint256(\r\n            (msg.value * getLatestPrice()) / 10**26\r\n        );\r\n\r\n        uint256 numberOfTokenToBuy = calculNumberOfTokenToBuy(amountInDollars);\r\n\r\n        investors[msg.sender].numberOfTokensPurchased += uint128(\r\n            numberOfTokenToBuy\r\n        );\r\n        investors[msg.sender].amountSpendInDollars += uint128(amountInDollars);\r\n\r\n        emit TokensBuy(msg.sender, numberOfTokenToBuy, amountInDollars);\r\n\r\n        numberOfTokenToSell -= numberOfTokenToBuy;\r\n\r\n        if (amountInDollars >= 500 && numberOfTokenBonus > 0) {\r\n            _setBonus(uint128(numberOfTokenToBuy), uint128(amountInDollars));\r\n        }\r\n    }\r\n\r\n    /**\r\n     * @notice set the bonus to the buyer\r\n     * @param _numberToken is the number of token buy\r\n     * @param _amountDollars is the price in dollars\r\n     */\r\n    function _setBonus(uint128 _numberToken, uint128 _amountDollars) private {\r\n        uint128 bonus;\r\n        if (_amountDollars >= 1500) {\r\n            if (numberOfTokenBonus >= _numberToken / 10) {\r\n                bonus = _numberToken / 10;\r\n            } else bonus = uint128(numberOfTokenBonus);\r\n        } else {\r\n            if (numberOfTokenBonus >= (_numberToken * 65) / 1000) {\r\n                bonus = (_numberToken * 65) / 1000;\r\n            } else {\r\n                bonus = uint128(numberOfTokenBonus);\r\n            }\r\n        }\r\n        investors[msg.sender].bonusTokens += bonus;\r\n        numberOfTokenBonus -= bonus;\r\n    }\r\n\r\n    /**\r\n     * @notice send the USDT and the ETH to ANTK company\r\n     * @dev only the Owner of the contract can call this function\r\n     */\r\n     function secureBuyEth() external onlyOwner {\r\n        if(!unactiveEth){unactiveEth=true;}\r\n        else unactiveEth = false;\r\n     }\r\n\r\n    /**\r\n     * @notice send the USDT and the ETH to ANTK company\r\n     * @dev only the Owner of the contract can call this function\r\n     */\r\n    function getFunds() external onlyOwner {\r\n        IERC20(usdt).transfer(\r\n            antkWallet,\r\n            IERC20(usdt).balanceOf(address(this))\r\n        );\r\n\r\n        (bool sent, ) = antkWallet.call{value: address(this).balance}(\"\");\r\n        require(sent, \"Failed to send Ether\");\r\n    }\r\n\r\n}",
  "sourcePath": "E:\\Projets\\Antk\\Dapp\\truffle\\contracts\\AntkPrivate.sol",
  "compiler": {
    "name": "solc",
    "version": "0.8.17+commit.8df45f5f.Emscripten.clang"
  },
  "schemaVersion": "3.4.9",
  "updatedAt": "2022-09-22T01:08:28.138Z",
  "networkType": "ethereum",
  "devdoc": {
    "author": "https://antk.io",
    "details": "Buyers can buy only with ETH or USDTCan add whitelists address to buy firstImplementation of the {Ownable} contract",
    "kind": "dev",
    "methods": {
      "buyTokenWithEth(bytes32[])": {
        "details": "msg.value is the amount of ETH to send buy the buyer"
      },
      "buyTokenWithTether(uint128,bytes32[])": {
        "params": {
          "_amountDollars": "is the amount to buy in dollars"
        }
      },
      "calculNumberOfTokenToBuy(uint256)": {
        "details": "this is a public function, called in the modifier and buy functionwe use it with the dapp to show the number of token to buy",
        "params": {
          "_amountDollars": "is the amount to buy in dollars"
        }
      },
      "changeSalesStatus(uint256)": {
        "details": "only the Owner of the contract can call this function",
        "params": {
          "_idStatus": "is the id of the status"
        }
      },
      "constructor": {
        "params": {
          "_antkWallet": "is the wallet that will recover the funds",
          "_ethPrice": "is the Chainlink address Price of eth",
          "_root": "is the rootHash of the whitelisted address",
          "_usdt": "is the ERC20 asset to buy Antk"
        }
      },
      "getFunds()": {
        "details": "only the Owner of the contract can call this function"
      },
      "isWhitelist(bytes32[])": {
        "params": {
          "_merkleProof": "is an array of proof on the webApp"
        }
      },
      "owner()": {
        "details": "Returns the address of the current owner."
      },
      "renounceOwnership()": {
        "details": "Leaves the contract without owner. It will not be possible to call `onlyOwner` functions anymore. Can only be called by the current owner. NOTE: Renouncing ownership will leave the contract without an owner, thereby removing any functionality that is only available to the owner."
      },
      "secureBuyEth()": {
        "details": "only the Owner of the contract can call this function"
      },
      "setRoot(bytes32)": {
        "details": "only owner can call this function",
        "params": {
          "_root": "is the rootHash of the whitelisted address"
        }
      },
      "transferOwnership(address)": {
        "details": "Transfers ownership of the contract to a new account (`newOwner`). Can only be called by the current owner."
      }
    },
    "stateVariables": {
      "numberOfTokenToSell": {
        "details": "numberOfTokenToSell is the number of ANTK to sellnumberOfTokenBonus is the number of ANTK in bonus6.5% if amountInDollars>500$ and 10% if >1500They are update when someone buy"
      },
      "root": {
        "details": "root is the rootHash of the whitelisted address"
      },
      "unactiveEth": {
        "details": "activeEth to secure the buyEth if chainlink doesn't work"
      },
      "usdt": {
        "details": "tether is the only ERC20 asset to buy ANTKethPrice is the Chainlink address Price of ethanktWallet is the wallet that will recover the funds"
      }
    },
    "title": "Private Sale ANTK",
    "version": 1
  },
  "userdoc": {
    "events": {
      "NewStatus(uint8)": {
        "notice": "event when owner change status"
      },
      "TokensBuy(address,uint256,uint256)": {
        "notice": "event when someone buy"
      }
    },
    "kind": "user",
    "methods": {
      "buyTokenWithEth(bytes32[])": {
        "notice": "buy ANTK with ETH"
      },
      "buyTokenWithTether(uint128,bytes32[])": {
        "notice": "buy ANTK with USDT"
      },
      "calculNumberOfTokenToBuy(uint256)": {
        "notice": "calcul number of token to buy"
      },
      "changeSalesStatus(uint256)": {
        "notice": "change the status of the sale"
      },
      "constructor": {
        "notice": "Constructor to set address at the deployement"
      },
      "getFunds()": {
        "notice": "send the USDT and the ETH to ANTK company"
      },
      "getLatestPrice()": {
        "notice": "Get price of ETH in $ with Chainlink"
      },
      "investors(address)": {
        "notice": "buyer's address  => buyer's informations"
      },
      "isWhitelist(bytes32[])": {
        "notice": "check if the address is whitelisted"
      },
      "salesStatus()": {
        "notice": "salesStatus is the status of the sales"
      },
      "secureBuyEth()": {
        "notice": "send the USDT and the ETH to ANTK company"
      },
      "setRoot(bytes32)": {
        "notice": "set the root to set whitelisted address"
      }
    },
    "notice": "This contract is a pre sale contract",
    "version": 1
  }
}