{
  "contractName": "AntkPrivateTest",
  "abi": [
    {
      "anonymous": false,
      "inputs": [
        {
          "indexed": true,
          "internalType": "address",
          "name": "previousOwner",
          "type": "address"
        },
        {
          "indexed": true,
          "internalType": "address",
          "name": "newOwner",
          "type": "address"
        }
      ],
      "name": "OwnershipTransferred",
      "type": "event"
    },
    {
      "anonymous": false,
      "inputs": [
        {
          "indexed": false,
          "internalType": "address",
          "name": "addressBuyer",
          "type": "address"
        },
        {
          "indexed": false,
          "internalType": "uint128",
          "name": "numberOfTokensPurchased",
          "type": "uint128"
        },
        {
          "indexed": false,
          "internalType": "uint128",
          "name": "amountSpendInDollars",
          "type": "uint128"
        }
      ],
      "name": "TokensBuy",
      "type": "event"
    },
    {
      "anonymous": false,
      "inputs": [
        {
          "indexed": false,
          "internalType": "enum AntkPrivateTest.SalesStatus",
          "name": "newStatus",
          "type": "uint8"
        }
      ],
      "name": "newStatus",
      "type": "event"
    },
    {
      "inputs": [
        {
          "internalType": "address",
          "name": "",
          "type": "address"
        }
      ],
      "name": "investors",
      "outputs": [
        {
          "internalType": "bool",
          "name": "isWhitelisted",
          "type": "bool"
        },
        {
          "internalType": "uint128",
          "name": "numberOfTokensPurchased",
          "type": "uint128"
        },
        {
          "internalType": "uint128",
          "name": "amountSpendInDollars",
          "type": "uint128"
        },
        {
          "internalType": "uint128",
          "name": "bonusTokens",
          "type": "uint128"
        }
      ],
      "stateMutability": "view",
      "type": "function",
      "constant": true
    },
    {
      "inputs": [],
      "name": "numberOfTokenBonus",
      "outputs": [
        {
          "internalType": "uint128",
          "name": "",
          "type": "uint128"
        }
      ],
      "stateMutability": "view",
      "type": "function",
      "constant": true
    },
    {
      "inputs": [],
      "name": "numberOfTokenToSell",
      "outputs": [
        {
          "internalType": "uint128",
          "name": "",
          "type": "uint128"
        }
      ],
      "stateMutability": "view",
      "type": "function",
      "constant": true
    },
    {
      "inputs": [],
      "name": "owner",
      "outputs": [
        {
          "internalType": "address",
          "name": "",
          "type": "address"
        }
      ],
      "stateMutability": "view",
      "type": "function",
      "constant": true
    },
    {
      "inputs": [],
      "name": "renounceOwnership",
      "outputs": [],
      "stateMutability": "nonpayable",
      "type": "function"
    },
    {
      "inputs": [],
      "name": "salesStatus",
      "outputs": [
        {
          "internalType": "enum AntkPrivateTest.SalesStatus",
          "name": "",
          "type": "uint8"
        }
      ],
      "stateMutability": "view",
      "type": "function",
      "constant": true
    },
    {
      "inputs": [
        {
          "internalType": "address",
          "name": "newOwner",
          "type": "address"
        }
      ],
      "name": "transferOwnership",
      "outputs": [],
      "stateMutability": "nonpayable",
      "type": "function"
    },
    {
      "inputs": [
        {
          "internalType": "address[]",
          "name": "_address",
          "type": "address[]"
        }
      ],
      "name": "setWhitelist",
      "outputs": [],
      "stateMutability": "nonpayable",
      "type": "function"
    },
    {
      "inputs": [
        {
          "internalType": "uint256",
          "name": "_idStatus",
          "type": "uint256"
        }
      ],
      "name": "changeSalesStatus",
      "outputs": [],
      "stateMutability": "nonpayable",
      "type": "function"
    },
    {
      "inputs": [
        {
          "internalType": "uint128",
          "name": "_amountDollars",
          "type": "uint128"
        }
      ],
      "name": "buyTokenWithTether",
      "outputs": [],
      "stateMutability": "nonpayable",
      "type": "function"
    },
    {
      "inputs": [],
      "name": "getLatestPrice",
      "outputs": [
        {
          "internalType": "uint128",
          "name": "",
          "type": "uint128"
        }
      ],
      "stateMutability": "pure",
      "type": "function",
      "constant": true
    },
    {
      "inputs": [],
      "name": "buyTokenWithEth",
      "outputs": [],
      "stateMutability": "payable",
      "type": "function",
      "payable": true
    },
    {
      "inputs": [],
      "name": "getFunds",
      "outputs": [],
      "stateMutability": "nonpayable",
      "type": "function"
    },
    {
      "inputs": [],
      "name": "seeFunds",
      "outputs": [
        {
          "internalType": "uint256",
          "name": "USDT",
          "type": "uint256"
        },
        {
          "internalType": "uint256",
          "name": "ETH",
          "type": "uint256"
        }
      ],
      "stateMutability": "view",
      "type": "function",
      "constant": true
    }
  ],
  "bytecode": "0x608060405273b684b241a0ca25a995eae765118b4f2ffcc34409600160006101000a81548173ffffffffffffffffffffffffffffffffffffffff021916908373ffffffffffffffffffffffffffffffffffffffff160217905550631dcd6500600260006101000a8154816fffffffffffffffffffffffffffffffff02191690836fffffffffffffffffffffffffffffffff16021790555062989680600260106101000a8154816fffffffffffffffffffffffffffffffff02191690836fffffffffffffffffffffffffffffffff160217905550348015620000df57600080fd5b5062000100620000f46200010660201b60201c565b6200010e60201b60201c565b620001d2565b600033905090565b60008060009054906101000a900473ffffffffffffffffffffffffffffffffffffffff169050816000806101000a81548173ffffffffffffffffffffffffffffffffffffffff021916908373ffffffffffffffffffffffffffffffffffffffff1602179055508173ffffffffffffffffffffffffffffffffffffffff168173ffffffffffffffffffffffffffffffffffffffff167f8be0079c531659141344cd1fd0a4f28419497f9722a3daafe3b4186f6b6457e060405160405180910390a35050565b612aab80620001e26000396000f3fe6080604052600436106100dd5760003560e01c80636f7bc9be1161007f5780638e15f473116100595780638e15f4731461025b578063bc28c7b114610286578063f2fde38b146102af578063f4217648146102d8576100dd565b80636f7bc9be146101d9578063715018a6146102195780638da5cb5b14610230576100dd565b806338fc3fa0116100bb57806338fc3fa0146101425780634d9b37351461016e5780635007bb5514610185578063533e9e7e146101ae576100dd565b806336d34217146100e25780633788a3871461010d57806337d2047b14610117575b600080fd5b3480156100ee57600080fd5b506100f7610301565b6040516101049190611c30565b60405180910390f35b610115610323565b005b34801561012357600080fd5b5061012c610861565b6040516101399190611cc2565b60405180910390f35b34801561014e57600080fd5b50610157610874565b604051610165929190611cf6565b60405180910390f35b34801561017a57600080fd5b5061018361091c565b005b34801561019157600080fd5b506101ac60048036038101906101a79190611d5f565b610b1d565b005b3480156101ba57600080fd5b506101c3610bad565b6040516101d09190611c30565b60405180910390f35b3480156101e557600080fd5b5061020060048036038101906101fb9190611dea565b610bcf565b6040516102109493929190611e32565b60405180910390f35b34801561022557600080fd5b5061022e610c60565b005b34801561023c57600080fd5b50610245610c74565b6040516102529190611e86565b60405180910390f35b34801561026757600080fd5b50610270610c9d565b60405161027d9190611c30565b60405180910390f35b34801561029257600080fd5b506102ad60048036038101906102a89190611ecd565b610caf565b005b3480156102bb57600080fd5b506102d660048036038101906102d19190611dea565b61140e565b005b3480156102e457600080fd5b506102ff60048036038101906102fa9190612053565b611491565b005b600260009054906101000a90046fffffffffffffffffffffffffffffffff1681565b6a52b7d2dcc80cd2e4000000610337610c9d565b6fffffffffffffffffffffffffffffffff163461035491906120cb565b61035e919061213c565b600360003373ffffffffffffffffffffffffffffffffffffffff1673ffffffffffffffffffffffffffffffffffffffff16815260200190815260200160002060000160009054906101000a900460ff1680156103ff5750600160028111156103c9576103c8611c4b565b5b60028111156103db576103da611c4b565b5b600460009054906101000a900460ff1660028111156103fd576103fc611c4b565b5b145b8061044e575060028081111561041857610417611c4b565b5b600281111561042a57610429611c4b565b5b600460009054906101000a900460ff16600281111561044c5761044b611c4b565b5b145b61048d576040517f08c379a0000000000000000000000000000000000000000000000000000000008152600401610484906121f0565b60405180910390fd5b6001816fffffffffffffffffffffffffffffffff1610156104e3576040517f08c379a00000000000000000000000000000000000000000000000000000000081526004016104da90612282565b60405180910390fd5b600260009054906101000a90046fffffffffffffffffffffffffffffffff166fffffffffffffffffffffffffffffffff1661051d82611531565b6fffffffffffffffffffffffffffffffff161115610570576040517f08c379a000000000000000000000000000000000000000000000000000000000815260040161056790612314565b60405180910390fd5b343373ffffffffffffffffffffffffffffffffffffffff1631116105c9576040517f08c379a00000000000000000000000000000000000000000000000000000000081526004016105c090612380565b60405180910390fd5b60006a52b7d2dcc80cd2e40000006105df610c9d565b6fffffffffffffffffffffffffffffffff16346105fc91906120cb565b610606919061213c565b9050600061061382611531565b905080600360003373ffffffffffffffffffffffffffffffffffffffff1673ffffffffffffffffffffffffffffffffffffffff16815260200190815260200160002060000160018282829054906101000a90046fffffffffffffffffffffffffffffffff1661068291906123a0565b92506101000a8154816fffffffffffffffffffffffffffffffff02191690836fffffffffffffffffffffffffffffffff16021790555081600360003373ffffffffffffffffffffffffffffffffffffffff1673ffffffffffffffffffffffffffffffffffffffff16815260200190815260200160002060010160008282829054906101000a90046fffffffffffffffffffffffffffffffff1661072591906123a0565b92506101000a8154816fffffffffffffffffffffffffffffffff02191690836fffffffffffffffffffffffffffffffff1602179055507f6c10c020a374273ba2bec4494362a1cba501ec48a3716a4963bc87de748fc6ac33828460405161078e939291906123e4565b60405180910390a180600260008282829054906101000a90046fffffffffffffffffffffffffffffffff166107c3919061241b565b92506101000a8154816fffffffffffffffffffffffffffffffff02191690836fffffffffffffffffffffffffffffffff1602179055506101f4826fffffffffffffffffffffffffffffffff1611801561084c57506000600260109054906101000a90046fffffffffffffffffffffffffffffffff166fffffffffffffffffffffffffffffffff16115b1561085c5761085b8183611861565b5b505050565b600460009054906101000a900460ff1681565b600080600160009054906101000a900473ffffffffffffffffffffffffffffffffffffffff1673ffffffffffffffffffffffffffffffffffffffff166370a08231306040518263ffffffff1660e01b81526004016108d29190611e86565b602060405180830381865afa1580156108ef573d6000803e3d6000fd5b505050506040513d601f19601f820116820180604052508101906109139190612474565b47915091509091565b61092461197a565b600160009054906101000a900473ffffffffffffffffffffffffffffffffffffffff1673ffffffffffffffffffffffffffffffffffffffff1663a9059cbb61096a610c74565b600160009054906101000a900473ffffffffffffffffffffffffffffffffffffffff1673ffffffffffffffffffffffffffffffffffffffff166370a08231306040518263ffffffff1660e01b81526004016109c59190611e86565b602060405180830381865afa1580156109e2573d6000803e3d6000fd5b505050506040513d601f19601f82011682018060405250810190610a069190612474565b6040518363ffffffff1660e01b8152600401610a239291906124a1565b6020604051808303816000875af1158015610a42573d6000803e3d6000fd5b505050506040513d601f19601f82011682018060405250810190610a6691906124f6565b506000610a71610c74565b73ffffffffffffffffffffffffffffffffffffffff1647604051610a9490612554565b60006040518083038185875af1925050503d8060008114610ad1576040519150601f19603f3d011682016040523d82523d6000602084013e610ad6565b606091505b5050905080610b1a576040517f08c379a0000000000000000000000000000000000000000000000000000000008152600401610b11906125b5565b60405180910390fd5b50565b610b2561197a565b806002811115610b3857610b37611c4b565b5b600460006101000a81548160ff02191690836002811115610b5c57610b5b611c4b565b5b02179055507f41919ca94feb948873b3bc1af54edc2d3f3b4a4a4723eb681e3b871cd697917c816002811115610b9557610b94611c4b565b5b604051610ba29190611cc2565b60405180910390a150565b600260109054906101000a90046fffffffffffffffffffffffffffffffff1681565b60036020528060005260406000206000915090508060000160009054906101000a900460ff16908060000160019054906101000a90046fffffffffffffffffffffffffffffffff16908060010160009054906101000a90046fffffffffffffffffffffffffffffffff16908060010160109054906101000a90046fffffffffffffffffffffffffffffffff16905084565b610c6861197a565b610c7260006119f8565b565b60008060009054906101000a900473ffffffffffffffffffffffffffffffffffffffff16905090565b6000806422ecb25c0090508091505090565b80600360003373ffffffffffffffffffffffffffffffffffffffff1673ffffffffffffffffffffffffffffffffffffffff16815260200190815260200160002060000160009054906101000a900460ff168015610d51575060016002811115610d1b57610d1a611c4b565b5b6002811115610d2d57610d2c611c4b565b5b600460009054906101000a900460ff166002811115610d4f57610d4e611c4b565b5b145b80610da05750600280811115610d6a57610d69611c4b565b5b6002811115610d7c57610d7b611c4b565b5b600460009054906101000a900460ff166002811115610d9e57610d9d611c4b565b5b145b610ddf576040517f08c379a0000000000000000000000000000000000000000000000000000000008152600401610dd6906121f0565b60405180910390fd5b6001816fffffffffffffffffffffffffffffffff161015610e35576040517f08c379a0000000000000000000000000000000000000000000000000000000008152600401610e2c90612282565b60405180910390fd5b600260009054906101000a90046fffffffffffffffffffffffffffffffff166fffffffffffffffffffffffffffffffff16610e6f82611531565b6fffffffffffffffffffffffffffffffff161115610ec2576040517f08c379a0000000000000000000000000000000000000000000000000000000008152600401610eb990612314565b60405180910390fd5b620f424082610ed191906125d5565b6fffffffffffffffffffffffffffffffff16600160009054906101000a900473ffffffffffffffffffffffffffffffffffffffff1673ffffffffffffffffffffffffffffffffffffffff1663dd62ed3e33306040518363ffffffff1660e01b8152600401610f40929190612612565b602060405180830381865afa158015610f5d573d6000803e3d6000fd5b505050506040513d601f19601f82011682018060405250810190610f819190612474565b1015610fc2576040517f08c379a0000000000000000000000000000000000000000000000000000000008152600401610fb9906126ad565b60405180910390fd5b620f424082610fd191906125d5565b6fffffffffffffffffffffffffffffffff16600160009054906101000a900473ffffffffffffffffffffffffffffffffffffffff1673ffffffffffffffffffffffffffffffffffffffff166370a08231336040518263ffffffff1660e01b815260040161103e9190611e86565b602060405180830381865afa15801561105b573d6000803e3d6000fd5b505050506040513d601f19601f8201168201806040525081019061107f9190612474565b10156110c0576040517f08c379a00000000000000000000000000000000000000000000000000000000081526004016110b79061273f565b60405180910390fd5b60006110cb83611531565b90506000600160009054906101000a900473ffffffffffffffffffffffffffffffffffffffff1673ffffffffffffffffffffffffffffffffffffffff166323b872dd3330620f42408861111e91906125d5565b6040518463ffffffff1660e01b815260040161113c9392919061279a565b6020604051808303816000875af115801561115b573d6000803e3d6000fd5b505050506040513d601f19601f8201168201806040525081019061117f91906124f6565b9050806111c1576040517f08c379a00000000000000000000000000000000000000000000000000000000081526004016111b89061281d565b60405180910390fd5b81600360003373ffffffffffffffffffffffffffffffffffffffff1673ffffffffffffffffffffffffffffffffffffffff16815260200190815260200160002060000160018282829054906101000a90046fffffffffffffffffffffffffffffffff1661122e91906123a0565b92506101000a8154816fffffffffffffffffffffffffffffffff02191690836fffffffffffffffffffffffffffffffff16021790555083600360003373ffffffffffffffffffffffffffffffffffffffff1673ffffffffffffffffffffffffffffffffffffffff16815260200190815260200160002060010160008282829054906101000a90046fffffffffffffffffffffffffffffffff166112d191906123a0565b92506101000a8154816fffffffffffffffffffffffffffffffff02191690836fffffffffffffffffffffffffffffffff1602179055507f6c10c020a374273ba2bec4494362a1cba501ec48a3716a4963bc87de748fc6ac33838660405161133a939291906123e4565b60405180910390a181600260008282829054906101000a90046fffffffffffffffffffffffffffffffff1661136f919061241b565b92506101000a8154816fffffffffffffffffffffffffffffffff02191690836fffffffffffffffffffffffffffffffff1602179055506101f4846fffffffffffffffffffffffffffffffff161180156113f857506000600260109054906101000a90046fffffffffffffffffffffffffffffffff166fffffffffffffffffffffffffffffffff16115b15611408576114078285611861565b5b50505050565b61141661197a565b600073ffffffffffffffffffffffffffffffffffffffff168173ffffffffffffffffffffffffffffffffffffffff1603611485576040517f08c379a000000000000000000000000000000000000000000000000000000000815260040161147c906128af565b60405180910390fd5b61148e816119f8565b50565b61149961197a565b60005b815181101561152d576001600360008484815181106114be576114bd6128cf565b5b602002602001015173ffffffffffffffffffffffffffffffffffffffff1673ffffffffffffffffffffffffffffffffffffffff16815260200190815260200160002060000160006101000a81548160ff0219169083151502179055508080611525906128fe565b91505061149c565b5050565b6000620186a0826fffffffffffffffffffffffffffffffff16111561158b576040517f08c379a0000000000000000000000000000000000000000000000000000000008152600401611582906129b8565b60405180910390fd5b6317d78400600260009054906101000a90046fffffffffffffffffffffffffffffffff166fffffffffffffffffffffffffffffffff1611156116f1576317d784006006612710846115dc91906125d5565b6115e691906129d8565b600260009054906101000a90046fffffffffffffffffffffffffffffffff1661160f919061241b565b6fffffffffffffffffffffffffffffffff16106116475760066127108361163691906125d5565b61164091906129d8565b905061185c565b612710600861271060066317d78400600260009054906101000a90046fffffffffffffffffffffffffffffffff1661167f919061241b565b61168991906125d5565b61169391906129d8565b8461169e919061241b565b6116a891906129d8565b6116b291906125d5565b6317d78400600260009054906101000a90046fffffffffffffffffffffffffffffffff166116e0919061241b565b6116ea91906123a0565b905061185c565b6311e1a300600260009054906101000a90046fffffffffffffffffffffffffffffffff166fffffffffffffffffffffffffffffffff16111561184b576311e1a30060086127108461174291906125d5565b61174c91906129d8565b600260009054906101000a90046fffffffffffffffffffffffffffffffff16611775919061241b565b6fffffffffffffffffffffffffffffffff16106117ad5760086127108361179c91906125d5565b6117a691906129d8565b905061185c565b6103e861271060086311e1a300600260009054906101000a90046fffffffffffffffffffffffffffffffff166117e3919061241b565b6117ed91906125d5565b6117f791906129d8565b83611802919061241b565b61180c91906125d5565b6311e1a300600260009054906101000a90046fffffffffffffffffffffffffffffffff1661183a919061241b565b61184491906123a0565b905061185c565b6103e88261185991906125d5565b90505b919050565b600061186d8383611abc565b905080600360003373ffffffffffffffffffffffffffffffffffffffff1673ffffffffffffffffffffffffffffffffffffffff16815260200190815260200160002060010160108282829054906101000a90046fffffffffffffffffffffffffffffffff166118dc91906123a0565b92506101000a8154816fffffffffffffffffffffffffffffffff02191690836fffffffffffffffffffffffffffffffff16021790555080600260108282829054906101000a90046fffffffffffffffffffffffffffffffff1661193f919061241b565b92506101000a8154816fffffffffffffffffffffffffffffffff02191690836fffffffffffffffffffffffffffffffff160217905550505050565b611982611bfd565b73ffffffffffffffffffffffffffffffffffffffff166119a0610c74565b73ffffffffffffffffffffffffffffffffffffffff16146119f6576040517f08c379a00000000000000000000000000000000000000000000000000000000081526004016119ed90612a55565b60405180910390fd5b565b60008060009054906101000a900473ffffffffffffffffffffffffffffffffffffffff169050816000806101000a81548173ffffffffffffffffffffffffffffffffffffffff021916908373ffffffffffffffffffffffffffffffffffffffff1602179055508173ffffffffffffffffffffffffffffffffffffffff168173ffffffffffffffffffffffffffffffffffffffff167f8be0079c531659141344cd1fd0a4f28419497f9722a3daafe3b4186f6b6457e060405160405180910390a35050565b60006105dc826fffffffffffffffffffffffffffffffff161115611b64576000600a84611ae991906129d8565b9050600260109054906101000a90046fffffffffffffffffffffffffffffffff166fffffffffffffffffffffffffffffffff16816fffffffffffffffffffffffffffffffff1611611b3d5780915050611bf7565b600260109054906101000a90046fffffffffffffffffffffffffffffffff16915050611bf7565b60006103e8604185611b7691906125d5565b611b8091906129d8565b9050600260109054906101000a90046fffffffffffffffffffffffffffffffff166fffffffffffffffffffffffffffffffff16816fffffffffffffffffffffffffffffffff1611611bd45780915050611bf7565b600260109054906101000a90046fffffffffffffffffffffffffffffffff169150505b92915050565b600033905090565b60006fffffffffffffffffffffffffffffffff82169050919050565b611c2a81611c05565b82525050565b6000602082019050611c456000830184611c21565b92915050565b7f4e487b7100000000000000000000000000000000000000000000000000000000600052602160045260246000fd5b60038110611c8b57611c8a611c4b565b5b50565b6000819050611c9c82611c7a565b919050565b6000611cac82611c8e565b9050919050565b611cbc81611ca1565b82525050565b6000602082019050611cd76000830184611cb3565b92915050565b6000819050919050565b611cf081611cdd565b82525050565b6000604082019050611d0b6000830185611ce7565b611d186020830184611ce7565b9392505050565b6000604051905090565b600080fd5b600080fd5b611d3c81611cdd565b8114611d4757600080fd5b50565b600081359050611d5981611d33565b92915050565b600060208284031215611d7557611d74611d29565b5b6000611d8384828501611d4a565b91505092915050565b600073ffffffffffffffffffffffffffffffffffffffff82169050919050565b6000611db782611d8c565b9050919050565b611dc781611dac565b8114611dd257600080fd5b50565b600081359050611de481611dbe565b92915050565b600060208284031215611e0057611dff611d29565b5b6000611e0e84828501611dd5565b91505092915050565b60008115159050919050565b611e2c81611e17565b82525050565b6000608082019050611e476000830187611e23565b611e546020830186611c21565b611e616040830185611c21565b611e6e6060830184611c21565b95945050505050565b611e8081611dac565b82525050565b6000602082019050611e9b6000830184611e77565b92915050565b611eaa81611c05565b8114611eb557600080fd5b50565b600081359050611ec781611ea1565b92915050565b600060208284031215611ee357611ee2611d29565b5b6000611ef184828501611eb8565b91505092915050565b600080fd5b6000601f19601f8301169050919050565b7f4e487b7100000000000000000000000000000000000000000000000000000000600052604160045260246000fd5b611f4882611eff565b810181811067ffffffffffffffff82111715611f6757611f66611f10565b5b80604052505050565b6000611f7a611d1f565b9050611f868282611f3f565b919050565b600067ffffffffffffffff821115611fa657611fa5611f10565b5b602082029050602081019050919050565b600080fd5b6000611fcf611fca84611f8b565b611f70565b90508083825260208201905060208402830185811115611ff257611ff1611fb7565b5b835b8181101561201b57806120078882611dd5565b845260208401935050602081019050611ff4565b5050509392505050565b600082601f83011261203a57612039611efa565b5b813561204a848260208601611fbc565b91505092915050565b60006020828403121561206957612068611d29565b5b600082013567ffffffffffffffff81111561208757612086611d2e565b5b61209384828501612025565b91505092915050565b7f4e487b7100000000000000000000000000000000000000000000000000000000600052601160045260246000fd5b60006120d682611cdd565b91506120e183611cdd565b92508282026120ef81611cdd565b915082820484148315176121065761210561209c565b5b5092915050565b7f4e487b7100000000000000000000000000000000000000000000000000000000600052601260045260246000fd5b600061214782611cdd565b915061215283611cdd565b9250826121625761216161210d565b5b828204905092915050565b600082825260208201905092915050565b7f566f7573206e6520706f7576657a2070617320696e76657374697220706f757260008201527f206c65206d6f6d656e7420210000000000000000000000000000000000000000602082015250565b60006121da602c8361216d565b91506121e58261217e565b604082019050919050565b60006020820190508181036000830152612209816121cd565b9050919050565b7f4365206d6f6e74616e742065737420696e66657269657572206175206d6f6e7460008201527f616e74206d696e696d756d202100000000000000000000000000000000000000602082015250565b600061226c602d8361216d565b915061227782612210565b604082019050919050565b6000602082019050818103600083015261229b8161225f565b9050919050565b7f496c206e6520726573746520706c757320617373657a20646520746f6b656e7360008201527f20646973706f6e69626c65732021000000000000000000000000000000000000602082015250565b60006122fe602e8361216d565b9150612309826122a2565b604082019050919050565b6000602082019050818103600083015261232d816122f1565b9050919050565b7f566f7573206e276176657a2070617320617373657a2064274554482021000000600082015250565b600061236a601d8361216d565b915061237582612334565b602082019050919050565b600060208201905081810360008301526123998161235d565b9050919050565b60006123ab82611c05565b91506123b683611c05565b925082820190506fffffffffffffffffffffffffffffffff8111156123de576123dd61209c565b5b92915050565b60006060820190506123f96000830186611e77565b6124066020830185611c21565b6124136040830184611c21565b949350505050565b600061242682611c05565b915061243183611c05565b925082820390506fffffffffffffffffffffffffffffffff8111156124595761245861209c565b5b92915050565b60008151905061246e81611d33565b92915050565b60006020828403121561248a57612489611d29565b5b60006124988482850161245f565b91505092915050565b60006040820190506124b66000830185611e77565b6124c36020830184611ce7565b9392505050565b6124d381611e17565b81146124de57600080fd5b50565b6000815190506124f0816124ca565b92915050565b60006020828403121561250c5761250b611d29565b5b600061251a848285016124e1565b91505092915050565b600081905092915050565b50565b600061253e600083612523565b91506125498261252e565b600082019050919050565b600061255f82612531565b9150819050919050565b7f4661696c656420746f2073656e64204574686572000000000000000000000000600082015250565b600061259f60148361216d565b91506125aa82612569565b602082019050919050565b600060208201905081810360008301526125ce81612592565b9050919050565b60006125e082611c05565b91506125eb83611c05565b92508282026125f981611c05565b915080821461260b5761260a61209c565b5b5092915050565b60006040820190506126276000830185611e77565b6126346020830184611e77565b9392505050565b7f566f7573206e276176657a2070617320617070726f757665206c65207472616e60008201527f7366657274206465205465746865722021000000000000000000000000000000602082015250565b600061269760318361216d565b91506126a28261263b565b604082019050919050565b600060208201905081810360008301526126c68161268a565b9050919050565b7f566f7573206e276176657a2070617320617373657a206465205465746865722060008201527f2100000000000000000000000000000000000000000000000000000000000000602082015250565b600061272960218361216d565b9150612734826126cd565b604082019050919050565b600060208201905081810360008301526127588161271c565b9050919050565b6000819050919050565b600061278461277f61277a84611c05565b61275f565b611cdd565b9050919050565b61279481612769565b82525050565b60006060820190506127af6000830186611e77565b6127bc6020830185611e77565b6127c9604083018461278b565b949350505050565b7f5472616e736665722066726f6d206572726f7200000000000000000000000000600082015250565b600061280760138361216d565b9150612812826127d1565b602082019050919050565b60006020820190508181036000830152612836816127fa565b9050919050565b7f4f776e61626c653a206e6577206f776e657220697320746865207a65726f206160008201527f6464726573730000000000000000000000000000000000000000000000000000602082015250565b600061289960268361216d565b91506128a48261283d565b604082019050919050565b600060208201905081810360008301526128c88161288c565b9050919050565b7f4e487b7100000000000000000000000000000000000000000000000000000000600052603260045260246000fd5b600061290982611cdd565b91507fffffffffffffffffffffffffffffffffffffffffffffffffffffffffffffffff820361293b5761293a61209c565b5b600182019050919050565b7f566f7573206e6520706f7576657a2070617320696e76657374697220706c757360008201527f2064652031303020303030202400000000000000000000000000000000000000602082015250565b60006129a2602d8361216d565b91506129ad82612946565b604082019050919050565b600060208201905081810360008301526129d181612995565b9050919050565b60006129e382611c05565b91506129ee83611c05565b9250826129fe576129fd61210d565b5b828204905092915050565b7f4f776e61626c653a2063616c6c6572206973206e6f7420746865206f776e6572600082015250565b6000612a3f60208361216d565b9150612a4a82612a09565b602082019050919050565b60006020820190508181036000830152612a6e81612a32565b905091905056fea2646970667358221220b9939522bab79842b8f32f3e4647a205d336744cd6c78c71fef97bcdc9faef7a64736f6c63430008110033",
  "immutableReferences": {},
  "source": "// SPDX-License-Identifier: MIT\r\npragma solidity 0.8.17;\r\n\r\nimport \"../node_modules/@openzeppelin/contracts/access/Ownable.sol\";\r\nimport \"../node_modules/@openzeppelin/contracts/token/ERC20/IERC20.sol\";\r\n\r\nimport \"../node_modules/@chainlink/contracts/src/v0.8/interfaces/AggregatorV3Interface.sol\";\r\n\r\n/**\r\n * @title Private Sale ANTK\r\n *\r\n * @notice This contract is a pre sale contract\r\n *\r\n * @dev Buyers can buy only with ETH or USDT\r\n * @dev Can add whitelists address to buy first\r\n *\r\n * @dev Implementation of the {IERC20} interface\r\n * @dev Implementation of the {Ownable} contract\r\n * @dev Implementation of the {AggregatorV3Interface} contract\r\n *\r\n */\r\n\r\ncontract AntkPrivateTest is Ownable {\r\n    /**\r\n     * @dev tether is the only ERC20 asset to buy ANTK\r\n     */\r\n    address usdt = 0xb684b241a0ca25a995eae765118b4F2FFcc34409;\r\n\r\n    /**\r\n     * @dev numberOfTokenToSell is the number of ANTK to sell\r\n     * @dev It is update when someone buy\r\n     */\r\n    uint128 public numberOfTokenToSell = 500000000;\r\n    uint128 public numberOfTokenBonus = 10000000;\r\n\r\n    /// save informations about the buyers\r\n    struct Investor {\r\n        bool isWhitelisted;\r\n        uint128 numberOfTokensPurchased;\r\n        uint128 amountSpendInDollars;\r\n        uint128 bonusTokens;\r\n    }\r\n\r\n    /// buyer's address  => buyer's informations\r\n    mapping(address => Investor) public investors;\r\n\r\n    /// status of this sales contract\r\n    enum SalesStatus {\r\n        AdminTime,\r\n        SalesForWhitelist,\r\n        SalesForAll\r\n    }\r\n\r\n    /// salesStatus is the status of the sales\r\n    SalesStatus public salesStatus;\r\n\r\n    /// event when owner change status\r\n    event newStatus(SalesStatus newStatus);\r\n\r\n    /// event when someone buy\r\n    event TokensBuy(\r\n        address addressBuyer,\r\n        uint128 numberOfTokensPurchased,\r\n        uint128 amountSpendInDollars\r\n    );\r\n\r\n    /**\r\n     * @notice check that the purchase parameters are correct\r\n     * @dev called in function buy with ETH and buy with USDT\r\n     * @param _amount is the amount to buy in dollars\r\n     */\r\n    modifier requireToBuy(uint128 _amount) {\r\n        require(\r\n            (investors[msg.sender].isWhitelisted &&\r\n                salesStatus == SalesStatus(1)) || salesStatus == SalesStatus(2),\r\n            \"Vous ne pouvez pas investir pour le moment !\"\r\n        );\r\n        require(_amount >= 1, \"Ce montant est inferieur au montant minimum !\");\r\n        require(\r\n            _calculNumberOfTokenToBuy(_amount) <= numberOfTokenToSell,\r\n            \"Il ne reste plus assez de tokens disponibles !\"\r\n        );\r\n        _;\r\n    }\r\n\r\n    /**\r\n     * @notice add the address to the whitelist\r\n     * @dev only the Owner of the contract can call this function\r\n     * @param _address is an array of address\r\n     */\r\n    function setWhitelist(address[] memory _address) external onlyOwner {\r\n        for (uint256 i = 0; i < _address.length; i++) {\r\n            investors[_address[i]].isWhitelisted = true;\r\n        }\r\n    }\r\n\r\n    /**\r\n     * @notice change the status of the sale\r\n     * @dev only the Owner of the contract can call this function\r\n     * @param _idStatus is the id of the status\r\n     */\r\n    function changeSalesStatus(uint256 _idStatus) external onlyOwner {\r\n        salesStatus = SalesStatus(_idStatus);\r\n\r\n        emit newStatus(SalesStatus(_idStatus));\r\n    }\r\n\r\n    /**\r\n     * @notice calcul number of token to buy\r\n     * @dev this is a private function, called in the modifier and buy function\r\n     * @dev we use it with the dapp to show the number of token to buy\r\n     * @param _amountDollars is the amount to buy in dollars\r\n     */\r\n    function _calculNumberOfTokenToBuy(uint128 _amountDollars)\r\n        private\r\n        view\r\n        returns (uint128)\r\n    {\r\n        require(\r\n            _amountDollars <= 100000,\r\n            \"Vous ne pouvez pas investir plus de 100 000 $\"\r\n        );\r\n        if (numberOfTokenToSell > 400000000) {\r\n            if (\r\n                (numberOfTokenToSell - (_amountDollars * 10000) / 6) >=\r\n                400000000\r\n            ) return (_amountDollars * 10000) / 6;\r\n            else {\r\n                return\r\n                    (numberOfTokenToSell - 400000000) +\r\n                    ((_amountDollars -\r\n                        (((numberOfTokenToSell - 400000000) * 6) / 10000)) /\r\n                        8) *\r\n                    10000;\r\n            }\r\n        } else if (numberOfTokenToSell > 300000000) {\r\n            if (\r\n                (numberOfTokenToSell - (_amountDollars * 10000) / 8) >=\r\n                300000000\r\n            ) return (_amountDollars * 10000) / 8;\r\n            else {\r\n                return\r\n                    (numberOfTokenToSell - 300000000) +\r\n                    (_amountDollars -\r\n                        (((numberOfTokenToSell - 300000000) * 8) / 10000)) *\r\n                    1000;\r\n            }\r\n        } else {\r\n            return _amountDollars * 1000;\r\n        }\r\n    }\r\n\r\n    /**\r\n     * @notice buy ANTK with USDT\r\n     * @param _amountDollars is the amount to buy in dollars\r\n     */\r\n    function buyTokenWithTether(uint128 _amountDollars)\r\n        external\r\n        requireToBuy(_amountDollars)\r\n    {\r\n        require(\r\n            IERC20(usdt).allowance(msg.sender, address(this)) >=\r\n                _amountDollars * 10**6,\r\n            \"Vous n'avez pas approuve le transfert de Tether !\"\r\n        );\r\n        require(\r\n            IERC20(usdt).balanceOf(msg.sender) >= _amountDollars * 10**6,\r\n            \"Vous n'avez pas assez de Tether !\"\r\n        );\r\n\r\n        uint128 numberOfTokenToBuy = _calculNumberOfTokenToBuy(_amountDollars);\r\n\r\n        bool result = IERC20(usdt).transferFrom(\r\n            msg.sender,\r\n            address(this),\r\n            _amountDollars * 10**6\r\n        );\r\n        require(result, \"Transfer from error\");\r\n\r\n        investors[msg.sender].numberOfTokensPurchased += numberOfTokenToBuy;\r\n        investors[msg.sender].amountSpendInDollars += _amountDollars;\r\n\r\n        emit TokensBuy(msg.sender, numberOfTokenToBuy, _amountDollars);\r\n\r\n        numberOfTokenToSell -= numberOfTokenToBuy;\r\n\r\n        if (_amountDollars > 500 && numberOfTokenBonus > 0) {\r\n            _setBonus(numberOfTokenToBuy, _amountDollars);\r\n        }\r\n    }\r\n\r\n    /**\r\n     * @notice Get price of ETH in $ with Chainlink\r\n     */\r\n    function getLatestPrice() public pure returns (uint128) {\r\n        // AggregatorV3Interface priceFeed = AggregatorV3Interface(\r\n        //     0x5f4eC3Df9cbd43714FE2740f5E3616155c5b8419\r\n        // );\r\n        // (, int256 price, , , ) = priceFeed.latestRoundData();\r\n        uint256 price = 150000000000;\r\n        return uint128(uint256(price));\r\n    }\r\n\r\n    /**\r\n     * @notice buy ANTK with ETH\r\n     * @dev msg.value is the amount of ETH to send buy the buyer\r\n     */\r\n    function buyTokenWithEth()\r\n        external\r\n        payable\r\n        requireToBuy(uint128((msg.value * getLatestPrice()) / 10**26))\r\n    {\r\n        require(\r\n            msg.sender.balance > msg.value,\r\n            \"Vous n'avez pas assez d'ETH !\"\r\n        );\r\n        uint128 amountInDollars = uint128(\r\n            (msg.value * getLatestPrice()) / 10**26\r\n        );\r\n\r\n        uint128 numberOfTokenToBuy = _calculNumberOfTokenToBuy(amountInDollars);\r\n\r\n        investors[msg.sender].numberOfTokensPurchased += numberOfTokenToBuy;\r\n        investors[msg.sender].amountSpendInDollars += amountInDollars;\r\n\r\n        emit TokensBuy(msg.sender, numberOfTokenToBuy, amountInDollars);\r\n\r\n        numberOfTokenToSell -= numberOfTokenToBuy;\r\n\r\n        if (amountInDollars > 500 && numberOfTokenBonus > 0) {\r\n            _setBonus(numberOfTokenToBuy, amountInDollars);\r\n        }\r\n    }\r\n\r\n    /**\r\n     * @notice calcul of the bonus tokens\r\n     * @param _numberToken is the number of token buy\r\n     * @param _amountDollars is the price in dollars\r\n     */\r\n    function _calculBonus(uint128 _numberToken, uint128 _amountDollars)\r\n        private\r\n        view\r\n        returns (uint128)\r\n    {\r\n        if (_amountDollars > 1500) {\r\n            uint128 bonus = _numberToken / 10;\r\n            if (bonus <= numberOfTokenBonus) {\r\n                return bonus;\r\n            } else {\r\n                return numberOfTokenBonus;\r\n            }\r\n        } else {\r\n            uint128 bonus2 = (_numberToken * 65) / 1000;\r\n            if (bonus2 <= numberOfTokenBonus) {\r\n                return bonus2;\r\n            } else {\r\n                return numberOfTokenBonus;\r\n            }\r\n        }\r\n    }\r\n\r\n    /**\r\n     * @notice set the bonus to the buyer\r\n     * @param _numberToken is the number of token buy\r\n     * @param _amountDollars is the price in dollars\r\n     */\r\n    function _setBonus(uint128 _numberToken, uint128 _amountDollars) private {\r\n        uint128 bonus = _calculBonus(_numberToken, _amountDollars);\r\n        investors[msg.sender].bonusTokens += bonus;\r\n        numberOfTokenBonus -= bonus;\r\n    }\r\n\r\n    /**\r\n     * @notice send the USDT and the ETH to ANTK company\r\n     * @dev only the Owner of the contract can call this function\r\n     */\r\n    function getFunds() external onlyOwner {\r\n        IERC20(usdt).transfer(owner(), IERC20(usdt).balanceOf(address(this)));\r\n\r\n        (bool sent, ) = owner().call{value: address(this).balance}(\"\");\r\n        require(sent, \"Failed to send Ether\");\r\n    }\r\n\r\n    /**\r\n     * @notice see the USDT and the ETH on the contract\r\n     */\r\n    function seeFunds() external view returns (uint256 USDT, uint256 ETH) {\r\n        return (IERC20(usdt).balanceOf(address(this)), address(this).balance);\r\n    }\r\n}\r\n\r\n// ETH/USD Chainlink (ETH Mainet): 0x5f4eC3Df9cbd43714FE2740f5E3616155c5b8419 (8 dcimales)\r\n// ETH/USD Chainlink (ETH Goerli Testnet): 0xD4a33860578De61DBAbDc8BFdb98FD742fA7028e (8 dcimales)\r\n\r\n// USDT mainet address 0xdAC17F958D2ee523a2206206994597C13D831ec7 (6 dcimales)\r\n// USDC Ropsten for tests : 0x07865c6E87B9F70255377e024ace6630C1Eaa37F (6 dcimales)\r\n\r\n//Interface     function investors (address _address) external view returns\r\n//(bool isWhitelisted, address referrer, uint numberOfTokensPurchased, uint amountSpendInDollars, string memory asset);\r\n\r\n// function getOwnerBalance(address addr) public view returns (uint) {\r\n//     return addr.balance;\r\n// }\r\n\r\n// [0x1dCDc0A79dac4ff8Ed895453dFE89402f7248D04,0xdCCfba966ee4d796099F987e32ceb104C7FC6653,0x7569Bd912eBB96b427DD33A1Dfbcb0A04235B97f,0x5Ced2f3EE793Ec0106cf8C9b2dc9b0b2CAFc5c52,0x90707B780319c7cA040c7c6B041E285f837E130B,0x6E4294AAfb21Df95Bb0578E104E791EeFE378c7B,0x51eE6aE0c3574C7d39084280389e57Bf02fe09a5,0x1Bf9Ee786B600A294DFd0151D1aF027a286A8f4B,0x311EEfAE053Eeb0fB77C750Ee3d84dFd88B2c5b5,0x39C4Ce965b9F81de90D5F91127afB807bdd1F705,0x4412d9ec2Fc336C28D0bfFeE7aF70fb34eA0ad73,0x726C04AA475B0A3Ab02c462aA38018a1Cd483A31,0x54d5d33C8E70A87edBFE24BbF7eFf4353CD3a460,0x4005De8557D796631dA6539D3d11a715485Eb03C,0xC895f2a7E0e338F7996fE1E0233c22a24a2A2359,0x7C61135E243Fa101B6Cc0F166e341A034b208420,0x5eC00cD9ff8b2D14d968B440879D335AE7bB5EC7,0x7b50aF1EC8E6634B88d7dAb4e785Bc852f1ef130,0xc16E917FaB5e13FDfe9E319522A6d9844d481C8d,0x29903927DAA5b70BE16178Cb6F955C8DE144ecEE,0x2DbA0f48cdaA3A3E95a342bA2C2ce41F64E30994,0x23e9cCf6Fbaf8A6ACc0162a7cC19A25983407260,0x4589bF02926c184E1a26E2698e9d79acaB7A33f8,0x8ff48d01152C8116404E6a3347d15E39992cc32b,0xC8E59966D04aa1297583950e4FfE7Fb25084bC95,0x622BFeb402067662acFb40Ba68df9804c7d6BccA,0x84A651d21d432BdF4804f8bc44D978F0dd653475,0x19E35115C0d4E1036eEB963bc5400a37b513c72A,0x7D401190854336dE8F6F3060C464783c327abeA2,0x1dB8bca1761286345117D71dc6604f6Bc84ECFcB]\r\n// [0x1dCDc0A79dac4ff8Ed895453dFE89402f7248D04,0xdCCfba966ee4d796099F987e32ceb104C7FC6653,0x7569Bd912eBB96b427DD33A1Dfbcb0A04235B97f]\r\n",
  "sourcePath": "E:\\Projets\\Antk\\Dapp\\truffle\\contracts\\AntkPrivateTest.sol",
  "compiler": {
    "name": "solc",
    "version": "0.8.17+commit.8df45f5f.Emscripten.clang"
  },
  "schemaVersion": "3.4.9",
  "updatedAt": "2022-09-19T22:36:18.913Z",
  "networkType": "ethereum",
  "devdoc": {
    "details": "Buyers can buy only with ETH or USDTCan add whitelists address to buy firstImplementation of the {IERC20} interfaceImplementation of the {Ownable} contractImplementation of the {AggregatorV3Interface} contract",
    "kind": "dev",
    "methods": {
      "buyTokenWithEth()": {
        "details": "msg.value is the amount of ETH to send buy the buyer"
      },
      "buyTokenWithTether(uint128)": {
        "params": {
          "_amountDollars": "is the amount to buy in dollars"
        }
      },
      "changeSalesStatus(uint256)": {
        "details": "only the Owner of the contract can call this function",
        "params": {
          "_idStatus": "is the id of the status"
        }
      },
      "getFunds()": {
        "details": "only the Owner of the contract can call this function"
      },
      "owner()": {
        "details": "Returns the address of the current owner."
      },
      "renounceOwnership()": {
        "details": "Leaves the contract without owner. It will not be possible to call `onlyOwner` functions anymore. Can only be called by the current owner. NOTE: Renouncing ownership will leave the contract without an owner, thereby removing any functionality that is only available to the owner."
      },
      "setWhitelist(address[])": {
        "details": "only the Owner of the contract can call this function",
        "params": {
          "_address": "is an array of address"
        }
      },
      "transferOwnership(address)": {
        "details": "Transfers ownership of the contract to a new account (`newOwner`). Can only be called by the current owner."
      }
    },
    "stateVariables": {
      "numberOfTokenToSell": {
        "details": "numberOfTokenToSell is the number of ANTK to sellIt is update when someone buy"
      },
      "usdt": {
        "details": "tether is the only ERC20 asset to buy ANTK"
      }
    },
    "title": "Private Sale ANTK",
    "version": 1
  },
  "userdoc": {
    "events": {
      "TokensBuy(address,uint128,uint128)": {
        "notice": "event when someone buy"
      },
      "newStatus(uint8)": {
        "notice": "event when owner change status"
      }
    },
    "kind": "user",
    "methods": {
      "buyTokenWithEth()": {
        "notice": "buy ANTK with ETH"
      },
      "buyTokenWithTether(uint128)": {
        "notice": "buy ANTK with USDT"
      },
      "changeSalesStatus(uint256)": {
        "notice": "change the status of the sale"
      },
      "getFunds()": {
        "notice": "send the USDT and the ETH to ANTK company"
      },
      "getLatestPrice()": {
        "notice": "Get price of ETH in $ with Chainlink"
      },
      "investors(address)": {
        "notice": "buyer's address  => buyer's informations"
      },
      "salesStatus()": {
        "notice": "salesStatus is the status of the sales"
      },
      "seeFunds()": {
        "notice": "see the USDT and the ETH on the contract"
      },
      "setWhitelist(address[])": {
        "notice": "add the address to the whitelist"
      }
    },
    "notice": "This contract is a pre sale contract",
    "version": 1
  }
}