{
  "contractName": "AntkPrivate",
  "abi": [
    {
      "inputs": [
        {
          "internalType": "address",
          "name": "_usdt",
          "type": "address"
        },
        {
          "internalType": "address",
          "name": "_ethPrice",
          "type": "address"
        },
        {
          "internalType": "address",
          "name": "_antkWallet",
          "type": "address"
        },
        {
          "internalType": "bytes32",
          "name": "_root",
          "type": "bytes32"
        }
      ],
      "stateMutability": "nonpayable",
      "type": "constructor"
    },
    {
      "anonymous": false,
      "inputs": [
        {
          "indexed": false,
          "internalType": "enum AntkPrivate.SalesStatus",
          "name": "newStatus",
          "type": "uint8"
        }
      ],
      "name": "NewStatus",
      "type": "event"
    },
    {
      "anonymous": false,
      "inputs": [
        {
          "indexed": true,
          "internalType": "address",
          "name": "previousOwner",
          "type": "address"
        },
        {
          "indexed": true,
          "internalType": "address",
          "name": "newOwner",
          "type": "address"
        }
      ],
      "name": "OwnershipTransferred",
      "type": "event"
    },
    {
      "anonymous": false,
      "inputs": [
        {
          "indexed": false,
          "internalType": "address",
          "name": "addressBuyer",
          "type": "address"
        },
        {
          "indexed": false,
          "internalType": "uint256",
          "name": "numberOfTokensPurchased",
          "type": "uint256"
        },
        {
          "indexed": false,
          "internalType": "uint256",
          "name": "amountSpendInDollars",
          "type": "uint256"
        }
      ],
      "name": "TokensBuy",
      "type": "event"
    },
    {
      "inputs": [
        {
          "internalType": "address",
          "name": "",
          "type": "address"
        }
      ],
      "name": "investors",
      "outputs": [
        {
          "internalType": "uint128",
          "name": "numberOfTokensPurchased",
          "type": "uint128"
        },
        {
          "internalType": "uint128",
          "name": "amountSpendInDollars",
          "type": "uint128"
        },
        {
          "internalType": "uint128",
          "name": "bonusTokens",
          "type": "uint128"
        }
      ],
      "stateMutability": "view",
      "type": "function",
      "constant": true
    },
    {
      "inputs": [],
      "name": "numberOfTokenBonus",
      "outputs": [
        {
          "internalType": "uint256",
          "name": "",
          "type": "uint256"
        }
      ],
      "stateMutability": "view",
      "type": "function",
      "constant": true
    },
    {
      "inputs": [],
      "name": "numberOfTokenToSell",
      "outputs": [
        {
          "internalType": "uint256",
          "name": "",
          "type": "uint256"
        }
      ],
      "stateMutability": "view",
      "type": "function",
      "constant": true
    },
    {
      "inputs": [],
      "name": "owner",
      "outputs": [
        {
          "internalType": "address",
          "name": "",
          "type": "address"
        }
      ],
      "stateMutability": "view",
      "type": "function",
      "constant": true
    },
    {
      "inputs": [],
      "name": "renounceOwnership",
      "outputs": [],
      "stateMutability": "nonpayable",
      "type": "function"
    },
    {
      "inputs": [],
      "name": "salesStatus",
      "outputs": [
        {
          "internalType": "enum AntkPrivate.SalesStatus",
          "name": "",
          "type": "uint8"
        }
      ],
      "stateMutability": "view",
      "type": "function",
      "constant": true
    },
    {
      "inputs": [
        {
          "internalType": "address",
          "name": "newOwner",
          "type": "address"
        }
      ],
      "name": "transferOwnership",
      "outputs": [],
      "stateMutability": "nonpayable",
      "type": "function"
    },
    {
      "inputs": [
        {
          "internalType": "bytes32",
          "name": "_root",
          "type": "bytes32"
        }
      ],
      "name": "setRoot",
      "outputs": [],
      "stateMutability": "nonpayable",
      "type": "function"
    },
    {
      "inputs": [
        {
          "internalType": "bytes32[]",
          "name": "_merkleProof",
          "type": "bytes32[]"
        }
      ],
      "name": "isWhitelist",
      "outputs": [
        {
          "internalType": "bool",
          "name": "",
          "type": "bool"
        }
      ],
      "stateMutability": "view",
      "type": "function",
      "constant": true
    },
    {
      "inputs": [
        {
          "internalType": "uint256",
          "name": "_idStatus",
          "type": "uint256"
        }
      ],
      "name": "changeSalesStatus",
      "outputs": [],
      "stateMutability": "nonpayable",
      "type": "function"
    },
    {
      "inputs": [
        {
          "internalType": "uint256",
          "name": "_amountDollars",
          "type": "uint256"
        }
      ],
      "name": "calculNumberOfTokenToBuy",
      "outputs": [
        {
          "internalType": "uint256",
          "name": "",
          "type": "uint256"
        }
      ],
      "stateMutability": "view",
      "type": "function",
      "constant": true
    },
    {
      "inputs": [
        {
          "internalType": "uint128",
          "name": "_amountDollars",
          "type": "uint128"
        },
        {
          "internalType": "bytes32[]",
          "name": "_merkleProof",
          "type": "bytes32[]"
        }
      ],
      "name": "buyTokenWithTether",
      "outputs": [],
      "stateMutability": "nonpayable",
      "type": "function"
    },
    {
      "inputs": [],
      "name": "getLatestPrice",
      "outputs": [
        {
          "internalType": "uint256",
          "name": "",
          "type": "uint256"
        }
      ],
      "stateMutability": "view",
      "type": "function",
      "constant": true
    },
    {
      "inputs": [
        {
          "internalType": "bytes32[]",
          "name": "_merkleProof",
          "type": "bytes32[]"
        }
      ],
      "name": "buyTokenWithEth",
      "outputs": [],
      "stateMutability": "payable",
      "type": "function",
      "payable": true
    },
    {
      "inputs": [],
      "name": "secureBuyEth",
      "outputs": [],
      "stateMutability": "nonpayable",
      "type": "function"
    },
    {
      "inputs": [],
      "name": "getFunds",
      "outputs": [],
      "stateMutability": "nonpayable",
      "type": "function"
    },
    {
      "inputs": [],
      "name": "seeFunds",
      "outputs": [
        {
          "internalType": "uint256",
          "name": "USDT",
          "type": "uint256"
        },
        {
          "internalType": "uint256",
          "name": "ETH",
          "type": "uint256"
        }
      ],
      "stateMutability": "view",
      "type": "function",
      "constant": true
    }
  ],
  "bytecode": "0x60e0604052631dcd6500600155629896806002553480156200002057600080fd5b5060405162002a2638038062002a26833981810160405281019062000046919062000284565b620000666200005a6200011360201b60201c565b6200011b60201b60201c565b8373ffffffffffffffffffffffffffffffffffffffff1660808173ffffffffffffffffffffffffffffffffffffffff16815250508273ffffffffffffffffffffffffffffffffffffffff1660a08173ffffffffffffffffffffffffffffffffffffffff16815250508173ffffffffffffffffffffffffffffffffffffffff1660c08173ffffffffffffffffffffffffffffffffffffffff16815250508060038190555050505050620002f6565b600033905090565b60008060009054906101000a900473ffffffffffffffffffffffffffffffffffffffff169050816000806101000a81548173ffffffffffffffffffffffffffffffffffffffff021916908373ffffffffffffffffffffffffffffffffffffffff1602179055508173ffffffffffffffffffffffffffffffffffffffff168173ffffffffffffffffffffffffffffffffffffffff167f8be0079c531659141344cd1fd0a4f28419497f9722a3daafe3b4186f6b6457e060405160405180910390a35050565b600080fd5b600073ffffffffffffffffffffffffffffffffffffffff82169050919050565b60006200021182620001e4565b9050919050565b620002238162000204565b81146200022f57600080fd5b50565b600081519050620002438162000218565b92915050565b6000819050919050565b6200025e8162000249565b81146200026a57600080fd5b50565b6000815190506200027e8162000253565b92915050565b60008060008060808587031215620002a157620002a0620001df565b5b6000620002b18782880162000232565b9450506020620002c48782880162000232565b9350506040620002d78782880162000232565b9250506060620002ea878288016200026d565b91505092959194509250565b60805160a05160c0516126e46200034260003960008181610b0f0152610c2d015260006112c8015260008181610a2801528181610ad301528181610b300152610fd201526126e46000f3fe6080604052600436106100fe5760003560e01c8063533e9e7e116100955780638da5cb5b116100645780638da5cb5b146102df5780638e15f4731461030a578063dab5f34014610335578063ed475f631461035e578063f2fde38b1461039b576100fe565b8063533e9e7e146102355780636f7bc9be14610260578063715018a61461029f57806372f5301d146102b6576100fe565b806337d2047b116100d157806337d2047b1461019e57806338fc3fa0146101c95780634d9b3735146101f55780635007bb551461020c576100fe565b8063252fb902146101035780632f37009b146101405780633528dc5c1461015c57806336d3421714610173575b600080fd5b34801561010f57600080fd5b5061012a6004803603810190610125919061184b565b6103c4565b6040516101379190611887565b60405180910390f35b61015a60048036038101906101559190611907565b6105ba565b005b34801561016857600080fd5b506101716109b0565b005b34801561017f57600080fd5b50610188610a0a565b6040516101959190611887565b60405180910390f35b3480156101aa57600080fd5b506101b3610a10565b6040516101c091906119cb565b60405180910390f35b3480156101d557600080fd5b506101de610a23565b6040516101ec9291906119e6565b60405180910390f35b34801561020157600080fd5b5061020a610ac9565b005b34801561021857600080fd5b50610233600480360381019061022e919061184b565b610cf8565b005b34801561024157600080fd5b5061024a610d88565b6040516102579190611887565b60405180910390f35b34801561026c57600080fd5b5061028760048036038101906102829190611a6d565b610d8e565b60405161029693929190611ac5565b60405180910390f35b3480156102ab57600080fd5b506102b4610e0c565b005b3480156102c257600080fd5b506102dd60048036038101906102d89190611b28565b610e20565b005b3480156102eb57600080fd5b506102f461129a565b6040516103019190611b97565b60405180910390f35b34801561031657600080fd5b5061031f6112c3565b60405161032c9190611887565b60405180910390f35b34801561034157600080fd5b5061035c60048036038101906103579190611be8565b611368565b005b34801561036a57600080fd5b5061038560048036038101906103809190611907565b61137a565b6040516103929190611c30565b60405180910390f35b3480156103a757600080fd5b506103c260048036038101906103bd9190611a6d565b6113fd565b005b6000620186a082111561040c576040517f08c379a000000000000000000000000000000000000000000000000000000000815260040161040390611cce565b60405180910390fd5b6317d7840060015411156104de576317d7840060066127108461042f9190611d1d565b6104399190611d8e565b6001546104469190611dbf565b1061046c5760066127108361045b9190611d1d565b6104659190611d8e565b90506105b5565b612710600861271060066317d784006001546104889190611dbf565b6104929190611d1d565b61049c9190611d8e565b846104a79190611dbf565b6104b19190611d8e565b6104bb9190611d1d565b6317d784006001546104cd9190611dbf565b6104d79190611df3565b90506105b5565b6311e1a30060015411156105a4576311e1a3006008612710846105019190611d1d565b61050b9190611d8e565b6001546105189190611dbf565b1061053e5760086127108361052d9190611d1d565b6105379190611d8e565b90506105b5565b6103e861271060086311e1a3006001546105589190611dbf565b6105629190611d1d565b61056c9190611d8e565b836105779190611dbf565b6105819190611d1d565b6311e1a3006001546105939190611dbf565b61059d9190611df3565b90506105b5565b6103e8826105b29190611d1d565b90505b919050565b6a52b7d2dcc80cd2e40000006105ce6112c3565b346105d99190611d1d565b6105e39190611d8e565b82826105ef828261137a565b801561064057506001600281111561060a57610609611954565b5b600281111561061c5761061b611954565b5b600660009054906101000a900460ff16600281111561063e5761063d611954565b5b145b8061068f575060028081111561065957610658611954565b5b600281111561066b5761066a611954565b5b600660009054906101000a900460ff16600281111561068d5761068c611954565b5b145b6106ce576040517f08c379a00000000000000000000000000000000000000000000000000000000081526004016106c590611e99565b60405180910390fd5b6001831015610712576040517f08c379a000000000000000000000000000000000000000000000000000000000815260040161070990611f2b565b60405180910390fd5b60015461071e846103c4565b111561075f576040517f08c379a000000000000000000000000000000000000000000000000000000000815260040161075690611fbd565b60405180910390fd5b600460009054906101000a900460ff16156107af576040517f08c379a00000000000000000000000000000000000000000000000000000000081526004016107a69061204f565b60405180910390fd5b60006a52b7d2dcc80cd2e40000006107c56112c3565b346107d09190611d1d565b6107da9190611d8e565b905060006107e7826103c4565b905080600560003373ffffffffffffffffffffffffffffffffffffffff1673ffffffffffffffffffffffffffffffffffffffff16815260200190815260200160002060000160008282829054906101000a90046fffffffffffffffffffffffffffffffff16610856919061206f565b92506101000a8154816fffffffffffffffffffffffffffffffff02191690836fffffffffffffffffffffffffffffffff16021790555081600560003373ffffffffffffffffffffffffffffffffffffffff1673ffffffffffffffffffffffffffffffffffffffff16815260200190815260200160002060000160108282829054906101000a90046fffffffffffffffffffffffffffffffff166108f9919061206f565b92506101000a8154816fffffffffffffffffffffffffffffffff02191690836fffffffffffffffffffffffffffffffff1602179055507f2fd6899af903fe2e9dbb9631ff641c605a832dab80053a4ae29d541a1b041d72338284604051610962939291906120b3565b60405180910390a1806001600082825461097c9190611dbf565b925050819055506101f4821015801561099757506000600254115b156109a7576109a68183611480565b5b50505050505050565b6109b8611612565b600460009054906101000a900460ff166109ec576001600460006101000a81548160ff021916908315150217905550610a08565b6000600460006101000a81548160ff0219169083151502179055505b565b60015481565b600660009054906101000a900460ff1681565b6000807f000000000000000000000000000000000000000000000000000000000000000073ffffffffffffffffffffffffffffffffffffffff166370a08231306040518263ffffffff1660e01b8152600401610a7f9190611b97565b602060405180830381865afa158015610a9c573d6000803e3d6000fd5b505050506040513d601f19601f82011682018060405250810190610ac091906120ff565b47915091509091565b610ad1611612565b7f000000000000000000000000000000000000000000000000000000000000000073ffffffffffffffffffffffffffffffffffffffff1663a9059cbb7f00000000000000000000000000000000000000000000000000000000000000007f000000000000000000000000000000000000000000000000000000000000000073ffffffffffffffffffffffffffffffffffffffff166370a08231306040518263ffffffff1660e01b8152600401610b879190611b97565b602060405180830381865afa158015610ba4573d6000803e3d6000fd5b505050506040513d601f19601f82011682018060405250810190610bc891906120ff565b6040518363ffffffff1660e01b8152600401610be592919061212c565b6020604051808303816000875af1158015610c04573d6000803e3d6000fd5b505050506040513d601f19601f82011682018060405250810190610c289190612181565b5060007f000000000000000000000000000000000000000000000000000000000000000073ffffffffffffffffffffffffffffffffffffffff1647604051610c6f906121df565b60006040518083038185875af1925050503d8060008114610cac576040519150601f19603f3d011682016040523d82523d6000602084013e610cb1565b606091505b5050905080610cf5576040517f08c379a0000000000000000000000000000000000000000000000000000000008152600401610cec90612240565b60405180910390fd5b50565b610d00611612565b806002811115610d1357610d12611954565b5b600660006101000a81548160ff02191690836002811115610d3757610d36611954565b5b02179055507faf0a4d7cc70eddd40590b61186ad27449477c80b2d8b8fde44736ff9942b6043816002811115610d7057610d6f611954565b5b604051610d7d91906119cb565b60405180910390a150565b60025481565b60056020528060005260406000206000915090508060000160009054906101000a90046fffffffffffffffffffffffffffffffff16908060000160109054906101000a90046fffffffffffffffffffffffffffffffff16908060010160009054906101000a90046fffffffffffffffffffffffffffffffff16905083565b610e14611612565b610e1e6000611690565b565b826fffffffffffffffffffffffffffffffff168282610e3f828261137a565b8015610e90575060016002811115610e5a57610e59611954565b5b6002811115610e6c57610e6b611954565b5b600660009054906101000a900460ff166002811115610e8e57610e8d611954565b5b145b80610edf5750600280811115610ea957610ea8611954565b5b6002811115610ebb57610eba611954565b5b600660009054906101000a900460ff166002811115610edd57610edc611954565b5b145b610f1e576040517f08c379a0000000000000000000000000000000000000000000000000000000008152600401610f1590611e99565b60405180910390fd5b6001831015610f62576040517f08c379a0000000000000000000000000000000000000000000000000000000008152600401610f5990611f2b565b60405180910390fd5b600154610f6e846103c4565b1115610faf576040517f08c379a0000000000000000000000000000000000000000000000000000000008152600401610fa690611fbd565b60405180910390fd5b6000610fcc876fffffffffffffffffffffffffffffffff166103c4565b905060007f000000000000000000000000000000000000000000000000000000000000000073ffffffffffffffffffffffffffffffffffffffff166323b872dd3330620f42408c61101d9190612260565b6040518463ffffffff1660e01b815260040161103b939291906122d8565b6020604051808303816000875af115801561105a573d6000803e3d6000fd5b505050506040513d601f19601f8201168201806040525081019061107e9190612181565b9050806110c0576040517f08c379a00000000000000000000000000000000000000000000000000000000081526004016110b79061235b565b60405180910390fd5b81600560003373ffffffffffffffffffffffffffffffffffffffff1673ffffffffffffffffffffffffffffffffffffffff16815260200190815260200160002060000160008282829054906101000a90046fffffffffffffffffffffffffffffffff1661112d919061206f565b92506101000a8154816fffffffffffffffffffffffffffffffff02191690836fffffffffffffffffffffffffffffffff16021790555087600560003373ffffffffffffffffffffffffffffffffffffffff1673ffffffffffffffffffffffffffffffffffffffff16815260200190815260200160002060000160108282829054906101000a90046fffffffffffffffffffffffffffffffff166111d0919061206f565b92506101000a8154816fffffffffffffffffffffffffffffffff02191690836fffffffffffffffffffffffffffffffff1602179055507f2fd6899af903fe2e9dbb9631ff641c605a832dab80053a4ae29d541a1b041d7233838a6040516112399392919061237b565b60405180910390a181600160008282546112539190611dbf565b925050819055506101f4886fffffffffffffffffffffffffffffffff161015801561128057506000600254115b156112905761128f8289611480565b5b5050505050505050565b60008060009054906101000a900473ffffffffffffffffffffffffffffffffffffffff16905090565b6000807f0000000000000000000000000000000000000000000000000000000000000000905060008173ffffffffffffffffffffffffffffffffffffffff1663feaf968c6040518163ffffffff1660e01b815260040160a060405180830381865afa158015611336573d6000803e3d6000fd5b505050506040513d601f19601f8201168201806040525081019061135a919061242a565b505050915050809250505090565b611370611612565b8060038190555050565b6000803360405160200161138e91906124ed565b6040516020818303038152906040528051906020012090506113f4848480806020026020016040519081016040528093929190818152602001838360200280828437600081840152601f19601f8201169050808301925050505050505060035483611754565b91505092915050565b611405611612565b600073ffffffffffffffffffffffffffffffffffffffff168173ffffffffffffffffffffffffffffffffffffffff1603611474576040517f08c379a000000000000000000000000000000000000000000000000000000000815260040161146b9061257a565b60405180910390fd5b61147d81611690565b50565b60006105dc826fffffffffffffffffffffffffffffffff16106114e357600a836114aa919061259a565b6fffffffffffffffffffffffffffffffff16600254106114d857600a836114d1919061259a565b90506114de565b60025490505b61153f565b6103e86041846114f39190612260565b6114fd919061259a565b6fffffffffffffffffffffffffffffffff1660025410611538576103e86041846115279190612260565b611531919061259a565b905061153e565b60025490505b5b80600560003373ffffffffffffffffffffffffffffffffffffffff1673ffffffffffffffffffffffffffffffffffffffff16815260200190815260200160002060010160008282829054906101000a90046fffffffffffffffffffffffffffffffff166115ac919061206f565b92506101000a8154816fffffffffffffffffffffffffffffffff02191690836fffffffffffffffffffffffffffffffff160217905550806fffffffffffffffffffffffffffffffff16600260008282546116069190611dbf565b92505081905550505050565b61161a61176b565b73ffffffffffffffffffffffffffffffffffffffff1661163861129a565b73ffffffffffffffffffffffffffffffffffffffff161461168e576040517f08c379a000000000000000000000000000000000000000000000000000000000815260040161168590612617565b60405180910390fd5b565b60008060009054906101000a900473ffffffffffffffffffffffffffffffffffffffff169050816000806101000a81548173ffffffffffffffffffffffffffffffffffffffff021916908373ffffffffffffffffffffffffffffffffffffffff1602179055508173ffffffffffffffffffffffffffffffffffffffff168173ffffffffffffffffffffffffffffffffffffffff167f8be0079c531659141344cd1fd0a4f28419497f9722a3daafe3b4186f6b6457e060405160405180910390a35050565b6000826117618584611773565b1490509392505050565b600033905090565b60008082905060005b84518110156117be576117a98286838151811061179c5761179b612637565b5b60200260200101516117c9565b915080806117b690612666565b91505061177c565b508091505092915050565b60008183106117e1576117dc82846117f4565b6117ec565b6117eb83836117f4565b5b905092915050565b600082600052816020526040600020905092915050565b600080fd5b600080fd5b6000819050919050565b61182881611815565b811461183357600080fd5b50565b6000813590506118458161181f565b92915050565b6000602082840312156118615761186061180b565b5b600061186f84828501611836565b91505092915050565b61188181611815565b82525050565b600060208201905061189c6000830184611878565b92915050565b600080fd5b600080fd5b600080fd5b60008083601f8401126118c7576118c66118a2565b5b8235905067ffffffffffffffff8111156118e4576118e36118a7565b5b602083019150836020820283011115611900576118ff6118ac565b5b9250929050565b6000806020838503121561191e5761191d61180b565b5b600083013567ffffffffffffffff81111561193c5761193b611810565b5b611948858286016118b1565b92509250509250929050565b7f4e487b7100000000000000000000000000000000000000000000000000000000600052602160045260246000fd5b6003811061199457611993611954565b5b50565b60008190506119a582611983565b919050565b60006119b582611997565b9050919050565b6119c5816119aa565b82525050565b60006020820190506119e060008301846119bc565b92915050565b60006040820190506119fb6000830185611878565b611a086020830184611878565b9392505050565b600073ffffffffffffffffffffffffffffffffffffffff82169050919050565b6000611a3a82611a0f565b9050919050565b611a4a81611a2f565b8114611a5557600080fd5b50565b600081359050611a6781611a41565b92915050565b600060208284031215611a8357611a8261180b565b5b6000611a9184828501611a58565b91505092915050565b60006fffffffffffffffffffffffffffffffff82169050919050565b611abf81611a9a565b82525050565b6000606082019050611ada6000830186611ab6565b611ae76020830185611ab6565b611af46040830184611ab6565b949350505050565b611b0581611a9a565b8114611b1057600080fd5b50565b600081359050611b2281611afc565b92915050565b600080600060408486031215611b4157611b4061180b565b5b6000611b4f86828701611b13565b935050602084013567ffffffffffffffff811115611b7057611b6f611810565b5b611b7c868287016118b1565b92509250509250925092565b611b9181611a2f565b82525050565b6000602082019050611bac6000830184611b88565b92915050565b6000819050919050565b611bc581611bb2565b8114611bd057600080fd5b50565b600081359050611be281611bbc565b92915050565b600060208284031215611bfe57611bfd61180b565b5b6000611c0c84828501611bd3565b91505092915050565b60008115159050919050565b611c2a81611c15565b82525050565b6000602082019050611c456000830184611c21565b92915050565b600082825260208201905092915050565b7f566f7573206e6520706f7576657a2070617320696e76657374697220706c757360008201527f2064652031303020303030202400000000000000000000000000000000000000602082015250565b6000611cb8602d83611c4b565b9150611cc382611c5c565b604082019050919050565b60006020820190508181036000830152611ce781611cab565b9050919050565b7f4e487b7100000000000000000000000000000000000000000000000000000000600052601160045260246000fd5b6000611d2882611815565b9150611d3383611815565b9250828202611d4181611815565b91508282048414831517611d5857611d57611cee565b5b5092915050565b7f4e487b7100000000000000000000000000000000000000000000000000000000600052601260045260246000fd5b6000611d9982611815565b9150611da483611815565b925082611db457611db3611d5f565b5b828204905092915050565b6000611dca82611815565b9150611dd583611815565b9250828203905081811115611ded57611dec611cee565b5b92915050565b6000611dfe82611815565b9150611e0983611815565b9250828201905080821115611e2157611e20611cee565b5b92915050565b7f566f7573206e6520706f7576657a2070617320696e76657374697220706f757260008201527f206c65206d6f6d656e7420210000000000000000000000000000000000000000602082015250565b6000611e83602c83611c4b565b9150611e8e82611e27565b604082019050919050565b60006020820190508181036000830152611eb281611e76565b9050919050565b7f4365206d6f6e74616e742065737420696e66657269657572206175206d6f6e7460008201527f616e74206d696e696d756d202100000000000000000000000000000000000000602082015250565b6000611f15602d83611c4b565b9150611f2082611eb9565b604082019050919050565b60006020820190508181036000830152611f4481611f08565b9050919050565b7f496c206e6520726573746520706c757320617373657a20646520746f6b656e7360008201527f20646973706f6e69626c65732021000000000000000000000000000000000000602082015250565b6000611fa7602e83611c4b565b9150611fb282611f4b565b604082019050919050565b60006020820190508181036000830152611fd681611f9a565b9050919050565b7f566f7573206e6520706f7576657a20706173206163686574657220656e20457460008201527f6820706f7572206c65206d6f6d656e7420210000000000000000000000000000602082015250565b6000612039603283611c4b565b915061204482611fdd565b604082019050919050565b600060208201905081810360008301526120688161202c565b9050919050565b600061207a82611a9a565b915061208583611a9a565b925082820190506fffffffffffffffffffffffffffffffff8111156120ad576120ac611cee565b5b92915050565b60006060820190506120c86000830186611b88565b6120d56020830185611878565b6120e26040830184611878565b949350505050565b6000815190506120f98161181f565b92915050565b6000602082840312156121155761211461180b565b5b6000612123848285016120ea565b91505092915050565b60006040820190506121416000830185611b88565b61214e6020830184611878565b9392505050565b61215e81611c15565b811461216957600080fd5b50565b60008151905061217b81612155565b92915050565b6000602082840312156121975761219661180b565b5b60006121a58482850161216c565b91505092915050565b600081905092915050565b50565b60006121c96000836121ae565b91506121d4826121b9565b600082019050919050565b60006121ea826121bc565b9150819050919050565b7f4661696c656420746f2073656e64204574686572000000000000000000000000600082015250565b600061222a601483611c4b565b9150612235826121f4565b602082019050919050565b600060208201905081810360008301526122598161221d565b9050919050565b600061226b82611a9a565b915061227683611a9a565b925082820261228481611a9a565b915080821461229657612295611cee565b5b5092915050565b6000819050919050565b60006122c26122bd6122b884611a9a565b61229d565b611815565b9050919050565b6122d2816122a7565b82525050565b60006060820190506122ed6000830186611b88565b6122fa6020830185611b88565b61230760408301846122c9565b949350505050565b7f5472616e736665722066726f6d206572726f7200000000000000000000000000600082015250565b6000612345601383611c4b565b91506123508261230f565b602082019050919050565b6000602082019050818103600083015261237481612338565b9050919050565b60006060820190506123906000830186611b88565b61239d6020830185611878565b6123aa60408301846122c9565b949350505050565b600069ffffffffffffffffffff82169050919050565b6123d1816123b2565b81146123dc57600080fd5b50565b6000815190506123ee816123c8565b92915050565b6000819050919050565b612407816123f4565b811461241257600080fd5b50565b600081519050612424816123fe565b92915050565b600080600080600060a086880312156124465761244561180b565b5b6000612454888289016123df565b955050602061246588828901612415565b9450506040612476888289016120ea565b9350506060612487888289016120ea565b9250506080612498888289016123df565b9150509295509295909350565b60008160601b9050919050565b60006124bd826124a5565b9050919050565b60006124cf826124b2565b9050919050565b6124e76124e282611a2f565b6124c4565b82525050565b60006124f982846124d6565b60148201915081905092915050565b7f4f776e61626c653a206e6577206f776e657220697320746865207a65726f206160008201527f6464726573730000000000000000000000000000000000000000000000000000602082015250565b6000612564602683611c4b565b915061256f82612508565b604082019050919050565b6000602082019050818103600083015261259381612557565b9050919050565b60006125a582611a9a565b91506125b083611a9a565b9250826125c0576125bf611d5f565b5b828204905092915050565b7f4f776e61626c653a2063616c6c6572206973206e6f7420746865206f776e6572600082015250565b6000612601602083611c4b565b915061260c826125cb565b602082019050919050565b60006020820190508181036000830152612630816125f4565b9050919050565b7f4e487b7100000000000000000000000000000000000000000000000000000000600052603260045260246000fd5b600061267182611815565b91507fffffffffffffffffffffffffffffffffffffffffffffffffffffffffffffffff82036126a3576126a2611cee565b5b60018201905091905056fea2646970667358221220a8bafbe7f281bd8bcfb78ae3a3a10db55bc6c29ae24e72898eef0cae5c055a7164736f6c63430008110033",
  "immutableReferences": {
    "18": [
      {
        "length": 32,
        "start": 2600
      },
      {
        "length": 32,
        "start": 2771
      },
      {
        "length": 32,
        "start": 2864
      },
      {
        "length": 32,
        "start": 4050
      }
    ],
    "20": [
      {
        "length": 32,
        "start": 4808
      }
    ],
    "22": [
      {
        "length": 32,
        "start": 2831
      },
      {
        "length": 32,
        "start": 3117
      }
    ]
  },
  "source": "// SPDX-License-Identifier: MIT\r\npragma solidity 0.8.17;\r\n\r\nimport \"../node_modules/@openzeppelin/contracts/access/Ownable.sol\";\r\nimport \"../node_modules/@openzeppelin/contracts/token/ERC20/IERC20.sol\";\r\nimport \"../node_modules/@openzeppelin/contracts/utils/cryptography/MerkleProof.sol\";\r\n\r\nimport \"../node_modules/@chainlink/contracts/src/v0.8/interfaces/AggregatorV3Interface.sol\";\r\n\r\n/**\r\n * @title Private Sale ANTK\r\n *\r\n * @notice This contract is a pre sale contract\r\n *\r\n * @author https://antk.io\r\n *\r\n * @dev Buyers can buy only with ETH or USDT\r\n * @dev Can add whitelists address to buy first\r\n *\r\n * @dev Implementation of the {Ownable} contract\r\n *\r\n */\r\n\r\ncontract AntkPrivate is Ownable {\r\n    /**\r\n     * @dev numberOfTokenToSell is the number of ANTK to sell\r\n     * @dev numberOfTokenBonus is the number of ANTK in bonus\r\n     * @dev 6.5% if amountInDollars>500$ and 10% if >1500\r\n     * @dev They are update when someone buy\r\n     */\r\n    uint256 public numberOfTokenToSell = 500000000;\r\n    uint256 public numberOfTokenBonus = 10000000;\r\n\r\n    /**\r\n     * @dev tether is the only ERC20 asset to buy ANTK\r\n     * @dev ethPrice is the Chainlink address Price of eth\r\n     * @dev anktWallet is the wallet that will recover the funds\r\n     */\r\n    address immutable usdt;\r\n    address immutable ethPrice;\r\n    address immutable antkWallet;\r\n\r\n    /**\r\n     * @dev root is the rootHash of the whitelisted address\r\n     */\r\n    bytes32 private root;\r\n\r\n    /**\r\n     * @dev activeEth to secure the buyEth if chainlink doesn't work\r\n     */\r\n    bool unactiveEth;\r\n\r\n    /// save informations about the buyers\r\n    struct Investor {\r\n        uint128 numberOfTokensPurchased;\r\n        uint128 amountSpendInDollars;\r\n        uint128 bonusTokens;\r\n    }\r\n\r\n    /// buyer's address  => buyer's informations\r\n    mapping(address => Investor) public investors;\r\n\r\n    /// status of this sales contract\r\n    enum SalesStatus {\r\n        AdminTime,\r\n        SalesForWhitelist,\r\n        SalesForAll\r\n    }\r\n\r\n    /// salesStatus is the status of the sales\r\n    SalesStatus public salesStatus;\r\n\r\n    /// event when owner change status\r\n    event NewStatus(SalesStatus newStatus);\r\n\r\n    /// event when someone buy\r\n    event TokensBuy(\r\n        address addressBuyer,\r\n        uint256 numberOfTokensPurchased,\r\n        uint256 amountSpendInDollars\r\n    );\r\n\r\n    /**\r\n     * @notice Constructor to set address at the deployement\r\n     * @param _usdt is the ERC20 asset to buy Antk\r\n     * @param _ethPrice is the Chainlink address Price of eth\r\n     * @param _antkWallet is the wallet that will recover the funds\r\n     * @param _root is the rootHash of the whitelisted address\r\n     */\r\n    constructor(\r\n        address _usdt,\r\n        address _ethPrice,\r\n        address _antkWallet,\r\n        bytes32 _root\r\n    ) {\r\n        usdt = _usdt;\r\n        ethPrice = _ethPrice;\r\n        antkWallet = _antkWallet;\r\n        root = _root;\r\n    }\r\n\r\n    /**\r\n     * @notice check that the purchase parameters are correct\r\n     * @dev called in function buy with ETH and buy with USDT\r\n     * @param _amount is the amount to buy in dollars\r\n     */\r\n    modifier requireToBuy(uint256 _amount, bytes32[] calldata _merkleProof) {\r\n        require(\r\n            (isWhitelist(_merkleProof) && salesStatus == SalesStatus(1)) ||\r\n                salesStatus == SalesStatus(2),\r\n            \"Vous ne pouvez pas investir pour le moment !\"\r\n        );\r\n        require(_amount >= 1, \"Ce montant est inferieur au montant minimum !\");\r\n        require(\r\n            calculNumberOfTokenToBuy(_amount) <= numberOfTokenToSell,\r\n            \"Il ne reste plus assez de tokens disponibles !\"\r\n        );\r\n        _;\r\n    }\r\n\r\n    /**\r\n     * @notice set the root to set whitelisted address\r\n     * @dev only owner can call this function\r\n     * @param _root is the rootHash of the whitelisted address\r\n     */\r\n    function setRoot(bytes32 _root) external onlyOwner {\r\n        root = _root;\r\n    }\r\n\r\n    /**\r\n     * @notice check if the address is whitelisted\r\n     * @param _merkleProof is an array of proof on the webApp\r\n     */\r\n    function isWhitelist(bytes32[] calldata _merkleProof)\r\n        public\r\n        view\r\n        returns (bool)\r\n    {\r\n        bytes32 leaf = keccak256(abi.encodePacked(msg.sender));\r\n        return MerkleProof.verify(_merkleProof, root, leaf);\r\n    }\r\n\r\n    /**\r\n     * @notice change the status of the sale\r\n     * @dev only the Owner of the contract can call this function\r\n     * @param _idStatus is the id of the status\r\n     */\r\n    function changeSalesStatus(uint256 _idStatus) external onlyOwner {\r\n        salesStatus = SalesStatus(_idStatus);\r\n\r\n        emit NewStatus(SalesStatus(_idStatus));\r\n    }\r\n\r\n    /**\r\n     * @notice calcul number of token to buy\r\n     * @dev this is a public function, called in the modifier and buy function\r\n     * @dev we use it with the dapp to show the number of token to buy\r\n     * @param _amountDollars is the amount to buy in dollars\r\n     */\r\n    function calculNumberOfTokenToBuy(uint256 _amountDollars)\r\n        public\r\n        view\r\n        returns (uint256)\r\n    {\r\n        require(\r\n            _amountDollars <= 100000,\r\n            \"Vous ne pouvez pas investir plus de 100 000 $\"\r\n        );\r\n        if (numberOfTokenToSell > 400000000) {\r\n            if (\r\n                (numberOfTokenToSell - (_amountDollars * 10000) / 6) >=\r\n                400000000\r\n            ) return (_amountDollars * 10000) / 6;\r\n            else {\r\n                return\r\n                    (numberOfTokenToSell - 400000000) +\r\n                    ((_amountDollars -\r\n                        (((numberOfTokenToSell - 400000000) * 6) / 10000)) /\r\n                        8) *\r\n                    10000;\r\n            }\r\n        } else if (numberOfTokenToSell > 300000000) {\r\n            if (\r\n                (numberOfTokenToSell - (_amountDollars * 10000) / 8) >=\r\n                300000000\r\n            ) return (_amountDollars * 10000) / 8;\r\n            else {\r\n                return\r\n                    (numberOfTokenToSell - 300000000) +\r\n                    (_amountDollars -\r\n                        (((numberOfTokenToSell - 300000000) * 8) / 10000)) *\r\n                    1000;\r\n            }\r\n        } else {\r\n            return _amountDollars * 1000;\r\n        }\r\n    }\r\n\r\n    /**\r\n     * @notice buy ANTK with USDT\r\n     * @param _amountDollars is the amount to buy in dollars\r\n     */\r\n    function buyTokenWithTether(\r\n        uint128 _amountDollars,\r\n        bytes32[] calldata _merkleProof\r\n    ) external requireToBuy(_amountDollars, _merkleProof) {\r\n        uint256 numberOfTokenToBuy = calculNumberOfTokenToBuy(_amountDollars);\r\n\r\n        bool result = IERC20(usdt).transferFrom(\r\n            msg.sender,\r\n            address(this),\r\n            _amountDollars * 10**6\r\n        );\r\n        require(result, \"Transfer from error\");\r\n\r\n        investors[msg.sender].numberOfTokensPurchased += uint128(\r\n            numberOfTokenToBuy\r\n        );\r\n        investors[msg.sender].amountSpendInDollars += _amountDollars;\r\n\r\n        emit TokensBuy(msg.sender, numberOfTokenToBuy, _amountDollars);\r\n\r\n        numberOfTokenToSell -= numberOfTokenToBuy;\r\n\r\n        if (_amountDollars >= 500 && numberOfTokenBonus > 0) {\r\n            _setBonus(uint128(numberOfTokenToBuy), uint128(_amountDollars));\r\n        }\r\n    }\r\n\r\n    /**\r\n     * @notice Get price of ETH in $ with Chainlink\r\n     */\r\n    function getLatestPrice() public view returns (uint256) {\r\n        AggregatorV3Interface priceFeed = AggregatorV3Interface(\r\n            ethPrice\r\n        );\r\n        (, int256 price, , , ) = priceFeed.latestRoundData();\r\n\r\n        return uint256(price);\r\n    }\r\n\r\n    /**\r\n     * @notice buy ANTK with ETH\r\n     * @dev msg.value is the amount of ETH to send buy the buyer\r\n     */\r\n    function buyTokenWithEth(bytes32[] calldata _merkleProof)\r\n        external\r\n        payable\r\n        requireToBuy(\r\n            uint256((msg.value * getLatestPrice()) / 10**26),\r\n            _merkleProof\r\n        )\r\n    {\r\n        require(\r\n            !unactiveEth,\r\n            \"Vous ne pouvez pas acheter en Eth pour le moment !\"\r\n        );\r\n        uint256 amountInDollars = uint256(\r\n            (msg.value * getLatestPrice()) / 10**26\r\n        );\r\n\r\n        uint256 numberOfTokenToBuy = calculNumberOfTokenToBuy(amountInDollars);\r\n\r\n        investors[msg.sender].numberOfTokensPurchased += uint128(\r\n            numberOfTokenToBuy\r\n        );\r\n        investors[msg.sender].amountSpendInDollars += uint128(amountInDollars);\r\n\r\n        emit TokensBuy(msg.sender, numberOfTokenToBuy, amountInDollars);\r\n\r\n        numberOfTokenToSell -= numberOfTokenToBuy;\r\n\r\n        if (amountInDollars >= 500 && numberOfTokenBonus > 0) {\r\n            _setBonus(uint128(numberOfTokenToBuy), uint128(amountInDollars));\r\n        }\r\n    }\r\n\r\n    /**\r\n     * @notice set the bonus to the buyer\r\n     * @param _numberToken is the number of token buy\r\n     * @param _amountDollars is the price in dollars\r\n     */\r\n    function _setBonus(uint128 _numberToken, uint128 _amountDollars) private {\r\n        uint128 bonus;\r\n        if (_amountDollars >= 1500) {\r\n            if (numberOfTokenBonus >= _numberToken / 10) {\r\n                bonus = _numberToken / 10;\r\n            } else bonus = uint128(numberOfTokenBonus);\r\n        } else {\r\n            if (numberOfTokenBonus >= (_numberToken * 65) / 1000) {\r\n                bonus = (_numberToken * 65) / 1000;\r\n            } else {\r\n                bonus = uint128(numberOfTokenBonus);\r\n            }\r\n        }\r\n        investors[msg.sender].bonusTokens += bonus;\r\n        numberOfTokenBonus -= bonus;\r\n    }\r\n\r\n    /**\r\n     * @notice send the USDT and the ETH to ANTK company\r\n     * @dev only the Owner of the contract can call this function\r\n     */\r\n     function secureBuyEth() external onlyOwner {\r\n        if(!unactiveEth){unactiveEth=true;}\r\n        else unactiveEth = false;\r\n     }\r\n\r\n    /**\r\n     * @notice send the USDT and the ETH to ANTK company\r\n     * @dev only the Owner of the contract can call this function\r\n     */\r\n    function getFunds() external onlyOwner {\r\n        IERC20(usdt).transfer(\r\n            antkWallet,\r\n            IERC20(usdt).balanceOf(address(this))\r\n        );\r\n\r\n        (bool sent, ) = antkWallet.call{value: address(this).balance}(\"\");\r\n        require(sent, \"Failed to send Ether\");\r\n    }\r\n\r\n    /**\r\n     * @notice see the USDT and the ETH on the contract\r\n     */\r\n    function seeFunds() external view returns (uint256 USDT, uint256 ETH) {\r\n        return (IERC20(usdt).balanceOf(address(this)), address(this).balance);\r\n    }\r\n}\r\n\r\n  // ::::::::::::: Mainnet ::::::::::::: //\r\n\r\n// usdt = 0xdAC17F958D2ee523a2206206994597C13D831ec7;\r\n// ethPrice = 0x5f4eC3Df9cbd43714FE2740f5E3616155c5b8419;\r\n// antkWallet = 0x80920A7960670f01f63d6fA9B1f2a2Efd1C2A371;\r\n\r\n\r\n  // ::::::::::::: TestNet Goerli::::::::::::: //\r\n\r\n// usdt = 0x4Aec1F50164e9B09EcD966495993a47fb0B80467;\r\n// ethPrice = 0xD4a33860578De61DBAbDc8BFdb98FD742fA7028e;\r\n// antkWallet = 0x39C4Ce965b9F81de90D5F91127afB807bdd1F705;",
  "sourcePath": "E:\\Projets\\Antk\\Dapp\\truffle\\contracts\\AntkPrivate.sol",
  "compiler": {
    "name": "solc",
    "version": "0.8.17+commit.8df45f5f.Emscripten.clang"
  },
  "schemaVersion": "3.4.9",
  "updatedAt": "2022-09-21T23:33:52.582Z",
  "networkType": "ethereum",
  "devdoc": {
    "author": "https://antk.io",
    "details": "Buyers can buy only with ETH or USDTCan add whitelists address to buy firstImplementation of the {Ownable} contract",
    "kind": "dev",
    "methods": {
      "buyTokenWithEth(bytes32[])": {
        "details": "msg.value is the amount of ETH to send buy the buyer"
      },
      "buyTokenWithTether(uint128,bytes32[])": {
        "params": {
          "_amountDollars": "is the amount to buy in dollars"
        }
      },
      "calculNumberOfTokenToBuy(uint256)": {
        "details": "this is a public function, called in the modifier and buy functionwe use it with the dapp to show the number of token to buy",
        "params": {
          "_amountDollars": "is the amount to buy in dollars"
        }
      },
      "changeSalesStatus(uint256)": {
        "details": "only the Owner of the contract can call this function",
        "params": {
          "_idStatus": "is the id of the status"
        }
      },
      "constructor": {
        "params": {
          "_antkWallet": "is the wallet that will recover the funds",
          "_ethPrice": "is the Chainlink address Price of eth",
          "_root": "is the rootHash of the whitelisted address",
          "_usdt": "is the ERC20 asset to buy Antk"
        }
      },
      "getFunds()": {
        "details": "only the Owner of the contract can call this function"
      },
      "isWhitelist(bytes32[])": {
        "params": {
          "_merkleProof": "is an array of proof on the webApp"
        }
      },
      "owner()": {
        "details": "Returns the address of the current owner."
      },
      "renounceOwnership()": {
        "details": "Leaves the contract without owner. It will not be possible to call `onlyOwner` functions anymore. Can only be called by the current owner. NOTE: Renouncing ownership will leave the contract without an owner, thereby removing any functionality that is only available to the owner."
      },
      "secureBuyEth()": {
        "details": "only the Owner of the contract can call this function"
      },
      "setRoot(bytes32)": {
        "details": "only owner can call this function",
        "params": {
          "_root": "is the rootHash of the whitelisted address"
        }
      },
      "transferOwnership(address)": {
        "details": "Transfers ownership of the contract to a new account (`newOwner`). Can only be called by the current owner."
      }
    },
    "stateVariables": {
      "numberOfTokenToSell": {
        "details": "numberOfTokenToSell is the number of ANTK to sellnumberOfTokenBonus is the number of ANTK in bonus6.5% if amountInDollars>500$ and 10% if >1500They are update when someone buy"
      },
      "root": {
        "details": "root is the rootHash of the whitelisted address"
      },
      "unactiveEth": {
        "details": "activeEth to secure the buyEth if chainlink doesn't work"
      },
      "usdt": {
        "details": "tether is the only ERC20 asset to buy ANTKethPrice is the Chainlink address Price of ethanktWallet is the wallet that will recover the funds"
      }
    },
    "title": "Private Sale ANTK",
    "version": 1
  },
  "userdoc": {
    "events": {
      "NewStatus(uint8)": {
        "notice": "event when owner change status"
      },
      "TokensBuy(address,uint256,uint256)": {
        "notice": "event when someone buy"
      }
    },
    "kind": "user",
    "methods": {
      "buyTokenWithEth(bytes32[])": {
        "notice": "buy ANTK with ETH"
      },
      "buyTokenWithTether(uint128,bytes32[])": {
        "notice": "buy ANTK with USDT"
      },
      "calculNumberOfTokenToBuy(uint256)": {
        "notice": "calcul number of token to buy"
      },
      "changeSalesStatus(uint256)": {
        "notice": "change the status of the sale"
      },
      "constructor": {
        "notice": "Constructor to set address at the deployement"
      },
      "getFunds()": {
        "notice": "send the USDT and the ETH to ANTK company"
      },
      "getLatestPrice()": {
        "notice": "Get price of ETH in $ with Chainlink"
      },
      "investors(address)": {
        "notice": "buyer's address  => buyer's informations"
      },
      "isWhitelist(bytes32[])": {
        "notice": "check if the address is whitelisted"
      },
      "salesStatus()": {
        "notice": "salesStatus is the status of the sales"
      },
      "secureBuyEth()": {
        "notice": "send the USDT and the ETH to ANTK company"
      },
      "seeFunds()": {
        "notice": "see the USDT and the ETH on the contract"
      },
      "setRoot(bytes32)": {
        "notice": "set the root to set whitelisted address"
      }
    },
    "notice": "This contract is a pre sale contract",
    "version": 1
  }
}