{
  "contractName": "AntkPrivateTest",
  "abi": [
    {
      "anonymous": false,
      "inputs": [
        {
          "indexed": true,
          "internalType": "address",
          "name": "previousOwner",
          "type": "address"
        },
        {
          "indexed": true,
          "internalType": "address",
          "name": "newOwner",
          "type": "address"
        }
      ],
      "name": "OwnershipTransferred",
      "type": "event"
    },
    {
      "anonymous": false,
      "inputs": [
        {
          "indexed": false,
          "internalType": "address",
          "name": "addressBuyer",
          "type": "address"
        },
        {
          "indexed": false,
          "internalType": "uint128",
          "name": "numberOfTokensPurchased",
          "type": "uint128"
        },
        {
          "indexed": false,
          "internalType": "uint128",
          "name": "amountSpendInDollars",
          "type": "uint128"
        }
      ],
      "name": "TokensBuy",
      "type": "event"
    },
    {
      "anonymous": false,
      "inputs": [
        {
          "indexed": false,
          "internalType": "enum AntkPrivateTest.SalesStatus",
          "name": "newStatus",
          "type": "uint8"
        }
      ],
      "name": "newStatus",
      "type": "event"
    },
    {
      "inputs": [
        {
          "internalType": "address",
          "name": "",
          "type": "address"
        }
      ],
      "name": "investors",
      "outputs": [
        {
          "internalType": "bool",
          "name": "isWhitelisted",
          "type": "bool"
        },
        {
          "internalType": "uint128",
          "name": "numberOfTokensPurchased",
          "type": "uint128"
        },
        {
          "internalType": "uint128",
          "name": "amountSpendInDollars",
          "type": "uint128"
        }
      ],
      "stateMutability": "view",
      "type": "function",
      "constant": true
    },
    {
      "inputs": [],
      "name": "numberOfTokenToSell",
      "outputs": [
        {
          "internalType": "uint128",
          "name": "",
          "type": "uint128"
        }
      ],
      "stateMutability": "view",
      "type": "function",
      "constant": true
    },
    {
      "inputs": [],
      "name": "owner",
      "outputs": [
        {
          "internalType": "address",
          "name": "",
          "type": "address"
        }
      ],
      "stateMutability": "view",
      "type": "function",
      "constant": true
    },
    {
      "inputs": [],
      "name": "renounceOwnership",
      "outputs": [],
      "stateMutability": "nonpayable",
      "type": "function"
    },
    {
      "inputs": [],
      "name": "salesStatus",
      "outputs": [
        {
          "internalType": "enum AntkPrivateTest.SalesStatus",
          "name": "",
          "type": "uint8"
        }
      ],
      "stateMutability": "view",
      "type": "function",
      "constant": true
    },
    {
      "inputs": [
        {
          "internalType": "address",
          "name": "newOwner",
          "type": "address"
        }
      ],
      "name": "transferOwnership",
      "outputs": [],
      "stateMutability": "nonpayable",
      "type": "function"
    },
    {
      "inputs": [
        {
          "internalType": "address[]",
          "name": "_address",
          "type": "address[]"
        }
      ],
      "name": "setWhitelist",
      "outputs": [],
      "stateMutability": "nonpayable",
      "type": "function"
    },
    {
      "inputs": [
        {
          "internalType": "uint256",
          "name": "_idStatus",
          "type": "uint256"
        }
      ],
      "name": "changeSalesStatus",
      "outputs": [],
      "stateMutability": "nonpayable",
      "type": "function"
    },
    {
      "inputs": [
        {
          "internalType": "uint128",
          "name": "_amountDollars",
          "type": "uint128"
        }
      ],
      "name": "calculNumberOfTokenToBuy",
      "outputs": [
        {
          "internalType": "uint128",
          "name": "",
          "type": "uint128"
        }
      ],
      "stateMutability": "view",
      "type": "function",
      "constant": true
    },
    {
      "inputs": [
        {
          "internalType": "uint128",
          "name": "_amountDollars",
          "type": "uint128"
        }
      ],
      "name": "buyTokenWithTether",
      "outputs": [],
      "stateMutability": "nonpayable",
      "type": "function"
    },
    {
      "inputs": [],
      "name": "getLatestPrice",
      "outputs": [
        {
          "internalType": "uint128",
          "name": "",
          "type": "uint128"
        }
      ],
      "stateMutability": "pure",
      "type": "function",
      "constant": true
    },
    {
      "inputs": [],
      "name": "buyTokenWithEth",
      "outputs": [],
      "stateMutability": "payable",
      "type": "function",
      "payable": true
    },
    {
      "inputs": [],
      "name": "getFunds",
      "outputs": [],
      "stateMutability": "nonpayable",
      "type": "function"
    },
    {
      "inputs": [],
      "name": "seeFunds",
      "outputs": [
        {
          "internalType": "uint256",
          "name": "USDT",
          "type": "uint256"
        },
        {
          "internalType": "uint256",
          "name": "ETH",
          "type": "uint256"
        }
      ],
      "stateMutability": "view",
      "type": "function",
      "constant": true
    }
  ],
  "bytecode": "0x60806040527305e797f41f54e7ef542775143b43f0b224b11760600160006101000a81548173ffffffffffffffffffffffffffffffffffffffff021916908373ffffffffffffffffffffffffffffffffffffffff160217905550631dcd6500600260006101000a8154816fffffffffffffffffffffffffffffffff02191690836fffffffffffffffffffffffffffffffff160217905550348015620000a357600080fd5b50620000c4620000b8620000ca60201b60201c565b620000d260201b60201c565b62000196565b600033905090565b60008060009054906101000a900473ffffffffffffffffffffffffffffffffffffffff169050816000806101000a81548173ffffffffffffffffffffffffffffffffffffffff021916908373ffffffffffffffffffffffffffffffffffffffff1602179055508173ffffffffffffffffffffffffffffffffffffffff168173ffffffffffffffffffffffffffffffffffffffff167f8be0079c531659141344cd1fd0a4f28419497f9722a3daafe3b4186f6b6457e060405160405180910390a35050565b61274a80620001a66000396000f3fe6080604052600436106100dd5760003560e01c80636f7bc9be1161007f5780638e15f473116100595780638e15f4731461026c578063bc28c7b114610297578063f2fde38b146102c0578063f4217648146102e9576100dd565b80636f7bc9be146101eb578063715018a61461022a5780638da5cb5b14610241576100dd565b806337d2047b116100bb57806337d2047b1461015457806338fc3fa01461017f5780634d9b3735146101ab5780635007bb55146101c2576100dd565b80632bcabeaf146100e257806336d342171461011f5780633788a3871461014a575b600080fd5b3480156100ee57600080fd5b506101096004803603810190610104919061190e565b610312565b604051610116919061194a565b60405180910390f35b34801561012b57600080fd5b50610134610642565b604051610141919061194a565b60405180910390f35b610152610664565b005b34801561016057600080fd5b50610169610b3f565b60405161017691906119dc565b60405180910390f35b34801561018b57600080fd5b50610194610b52565b6040516101a2929190611a10565b60405180910390f35b3480156101b757600080fd5b506101c0610bfa565b005b3480156101ce57600080fd5b506101e960048036038101906101e49190611a65565b610dfb565b005b3480156101f757600080fd5b50610212600480360381019061020d9190611af0565b610e8b565b60405161022193929190611b38565b60405180910390f35b34801561023657600080fd5b5061023f610efa565b005b34801561024d57600080fd5b50610256610f0e565b6040516102639190611b7e565b60405180910390f35b34801561027857600080fd5b50610281610f37565b60405161028e919061194a565b60405180910390f35b3480156102a357600080fd5b506102be60048036038101906102b9919061190e565b610f49565b005b3480156102cc57600080fd5b506102e760048036038101906102e29190611af0565b611645565b005b3480156102f557600080fd5b50610310600480360381019061030b9190611cf2565b6116c8565b005b6000620186a0826fffffffffffffffffffffffffffffffff16111561036c576040517f08c379a000000000000000000000000000000000000000000000000000000000815260040161036390611dbe565b60405180910390fd5b6317d78400600260009054906101000a90046fffffffffffffffffffffffffffffffff166fffffffffffffffffffffffffffffffff1611156104d2576317d784006006612710846103bd9190611e0d565b6103c79190611e79565b600260009054906101000a90046fffffffffffffffffffffffffffffffff166103f09190611eaa565b6fffffffffffffffffffffffffffffffff1610610428576006612710836104179190611e0d565b6104219190611e79565b905061063d565b612710600861271060066317d78400600260009054906101000a90046fffffffffffffffffffffffffffffffff166104609190611eaa565b61046a9190611e0d565b6104749190611e79565b8461047f9190611eaa565b6104899190611e79565b6104939190611e0d565b6317d78400600260009054906101000a90046fffffffffffffffffffffffffffffffff166104c19190611eaa565b6104cb9190611eee565b905061063d565b6311e1a300600260009054906101000a90046fffffffffffffffffffffffffffffffff166fffffffffffffffffffffffffffffffff16111561062c576311e1a3006008612710846105239190611e0d565b61052d9190611e79565b600260009054906101000a90046fffffffffffffffffffffffffffffffff166105569190611eaa565b6fffffffffffffffffffffffffffffffff161061058e5760086127108361057d9190611e0d565b6105879190611e79565b905061063d565b6103e861271060086311e1a300600260009054906101000a90046fffffffffffffffffffffffffffffffff166105c49190611eaa565b6105ce9190611e0d565b6105d89190611e79565b836105e39190611eaa565b6105ed9190611e0d565b6311e1a300600260009054906101000a90046fffffffffffffffffffffffffffffffff1661061b9190611eaa565b6106259190611eee565b905061063d565b6103e88261063a9190611e0d565b90505b919050565b600260009054906101000a90046fffffffffffffffffffffffffffffffff1681565b6a52b7d2dcc80cd2e4000000610678610f37565b6fffffffffffffffffffffffffffffffff16346106959190611f32565b61069f9190611f74565b600360003373ffffffffffffffffffffffffffffffffffffffff1673ffffffffffffffffffffffffffffffffffffffff16815260200190815260200160002060000160009054906101000a900460ff16801561074057506001600281111561070a57610709611965565b5b600281111561071c5761071b611965565b5b600460009054906101000a900460ff16600281111561073e5761073d611965565b5b145b8061078f575060028081111561075957610758611965565b5b600281111561076b5761076a611965565b5b600460009054906101000a900460ff16600281111561078d5761078c611965565b5b145b6107ce576040517f08c379a00000000000000000000000000000000000000000000000000000000081526004016107c590612017565b60405180910390fd5b6001816fffffffffffffffffffffffffffffffff161015610824576040517f08c379a000000000000000000000000000000000000000000000000000000000815260040161081b906120a9565b60405180910390fd5b600260009054906101000a90046fffffffffffffffffffffffffffffffff166fffffffffffffffffffffffffffffffff1661085e82610312565b6fffffffffffffffffffffffffffffffff1611156108b1576040517f08c379a00000000000000000000000000000000000000000000000000000000081526004016108a89061213b565b60405180910390fd5b343373ffffffffffffffffffffffffffffffffffffffff16311161090a576040517f08c379a0000000000000000000000000000000000000000000000000000000008152600401610901906121a7565b60405180910390fd5b60006a52b7d2dcc80cd2e4000000610920610f37565b6fffffffffffffffffffffffffffffffff163461093d9190611f32565b6109479190611f74565b9050600061095482610312565b905080600360003373ffffffffffffffffffffffffffffffffffffffff1673ffffffffffffffffffffffffffffffffffffffff16815260200190815260200160002060000160018282829054906101000a90046fffffffffffffffffffffffffffffffff166109c39190611eee565b92506101000a8154816fffffffffffffffffffffffffffffffff02191690836fffffffffffffffffffffffffffffffff16021790555081600360003373ffffffffffffffffffffffffffffffffffffffff1673ffffffffffffffffffffffffffffffffffffffff16815260200190815260200160002060010160008282829054906101000a90046fffffffffffffffffffffffffffffffff16610a669190611eee565b92506101000a8154816fffffffffffffffffffffffffffffffff02191690836fffffffffffffffffffffffffffffffff1602179055507f6c10c020a374273ba2bec4494362a1cba501ec48a3716a4963bc87de748fc6ac338284604051610acf939291906121c7565b60405180910390a180600260008282829054906101000a90046fffffffffffffffffffffffffffffffff16610b049190611eaa565b92506101000a8154816fffffffffffffffffffffffffffffffff02191690836fffffffffffffffffffffffffffffffff160217905550505050565b600460009054906101000a900460ff1681565b600080600160009054906101000a900473ffffffffffffffffffffffffffffffffffffffff1673ffffffffffffffffffffffffffffffffffffffff166370a08231306040518263ffffffff1660e01b8152600401610bb09190611b7e565b602060405180830381865afa158015610bcd573d6000803e3d6000fd5b505050506040513d601f19601f82011682018060405250810190610bf19190612213565b47915091509091565b610c02611768565b600160009054906101000a900473ffffffffffffffffffffffffffffffffffffffff1673ffffffffffffffffffffffffffffffffffffffff1663a9059cbb610c48610f0e565b600160009054906101000a900473ffffffffffffffffffffffffffffffffffffffff1673ffffffffffffffffffffffffffffffffffffffff166370a08231306040518263ffffffff1660e01b8152600401610ca39190611b7e565b602060405180830381865afa158015610cc0573d6000803e3d6000fd5b505050506040513d601f19601f82011682018060405250810190610ce49190612213565b6040518363ffffffff1660e01b8152600401610d01929190612240565b6020604051808303816000875af1158015610d20573d6000803e3d6000fd5b505050506040513d601f19601f82011682018060405250810190610d449190612295565b506000610d4f610f0e565b73ffffffffffffffffffffffffffffffffffffffff1647604051610d72906122f3565b60006040518083038185875af1925050503d8060008114610daf576040519150601f19603f3d011682016040523d82523d6000602084013e610db4565b606091505b5050905080610df8576040517f08c379a0000000000000000000000000000000000000000000000000000000008152600401610def90612354565b60405180910390fd5b50565b610e03611768565b806002811115610e1657610e15611965565b5b600460006101000a81548160ff02191690836002811115610e3a57610e39611965565b5b02179055507f41919ca94feb948873b3bc1af54edc2d3f3b4a4a4723eb681e3b871cd697917c816002811115610e7357610e72611965565b5b604051610e8091906119dc565b60405180910390a150565b60036020528060005260406000206000915090508060000160009054906101000a900460ff16908060000160019054906101000a90046fffffffffffffffffffffffffffffffff16908060010160009054906101000a90046fffffffffffffffffffffffffffffffff16905083565b610f02611768565b610f0c60006117e6565b565b60008060009054906101000a900473ffffffffffffffffffffffffffffffffffffffff16905090565b6000806422ecb25c0090508091505090565b80600360003373ffffffffffffffffffffffffffffffffffffffff1673ffffffffffffffffffffffffffffffffffffffff16815260200190815260200160002060000160009054906101000a900460ff168015610feb575060016002811115610fb557610fb4611965565b5b6002811115610fc757610fc6611965565b5b600460009054906101000a900460ff166002811115610fe957610fe8611965565b5b145b8061103a575060028081111561100457611003611965565b5b600281111561101657611015611965565b5b600460009054906101000a900460ff16600281111561103857611037611965565b5b145b611079576040517f08c379a000000000000000000000000000000000000000000000000000000000815260040161107090612017565b60405180910390fd5b6001816fffffffffffffffffffffffffffffffff1610156110cf576040517f08c379a00000000000000000000000000000000000000000000000000000000081526004016110c6906120a9565b60405180910390fd5b600260009054906101000a90046fffffffffffffffffffffffffffffffff166fffffffffffffffffffffffffffffffff1661110982610312565b6fffffffffffffffffffffffffffffffff16111561115c576040517f08c379a00000000000000000000000000000000000000000000000000000000081526004016111539061213b565b60405180910390fd5b620f42408261116b9190611e0d565b6fffffffffffffffffffffffffffffffff16600160009054906101000a900473ffffffffffffffffffffffffffffffffffffffff1673ffffffffffffffffffffffffffffffffffffffff1663dd62ed3e33306040518363ffffffff1660e01b81526004016111da929190612374565b602060405180830381865afa1580156111f7573d6000803e3d6000fd5b505050506040513d601f19601f8201168201806040525081019061121b9190612213565b101561125c576040517f08c379a00000000000000000000000000000000000000000000000000000000081526004016112539061240f565b60405180910390fd5b620f42408261126b9190611e0d565b6fffffffffffffffffffffffffffffffff16600160009054906101000a900473ffffffffffffffffffffffffffffffffffffffff1673ffffffffffffffffffffffffffffffffffffffff166370a08231336040518263ffffffff1660e01b81526004016112d89190611b7e565b602060405180830381865afa1580156112f5573d6000803e3d6000fd5b505050506040513d601f19601f820116820180604052508101906113199190612213565b101561135a576040517f08c379a0000000000000000000000000000000000000000000000000000000008152600401611351906124a1565b60405180910390fd5b600061136583610312565b90506000600160009054906101000a900473ffffffffffffffffffffffffffffffffffffffff1673ffffffffffffffffffffffffffffffffffffffff166323b872dd3330620f4240886113b89190611e0d565b6040518463ffffffff1660e01b81526004016113d6939291906124fc565b6020604051808303816000875af11580156113f5573d6000803e3d6000fd5b505050506040513d601f19601f820116820180604052508101906114199190612295565b90508061145b576040517f08c379a00000000000000000000000000000000000000000000000000000000081526004016114529061257f565b60405180910390fd5b81600360003373ffffffffffffffffffffffffffffffffffffffff1673ffffffffffffffffffffffffffffffffffffffff16815260200190815260200160002060000160018282829054906101000a90046fffffffffffffffffffffffffffffffff166114c89190611eee565b92506101000a8154816fffffffffffffffffffffffffffffffff02191690836fffffffffffffffffffffffffffffffff16021790555083600360003373ffffffffffffffffffffffffffffffffffffffff1673ffffffffffffffffffffffffffffffffffffffff16815260200190815260200160002060010160008282829054906101000a90046fffffffffffffffffffffffffffffffff1661156b9190611eee565b92506101000a8154816fffffffffffffffffffffffffffffffff02191690836fffffffffffffffffffffffffffffffff1602179055507f6c10c020a374273ba2bec4494362a1cba501ec48a3716a4963bc87de748fc6ac3383866040516115d4939291906121c7565b60405180910390a181600260008282829054906101000a90046fffffffffffffffffffffffffffffffff166116099190611eaa565b92506101000a8154816fffffffffffffffffffffffffffffffff02191690836fffffffffffffffffffffffffffffffff16021790555050505050565b61164d611768565b600073ffffffffffffffffffffffffffffffffffffffff168173ffffffffffffffffffffffffffffffffffffffff16036116bc576040517f08c379a00000000000000000000000000000000000000000000000000000000081526004016116b390612611565b60405180910390fd5b6116c5816117e6565b50565b6116d0611768565b60005b8151811015611764576001600360008484815181106116f5576116f4612631565b5b602002602001015173ffffffffffffffffffffffffffffffffffffffff1673ffffffffffffffffffffffffffffffffffffffff16815260200190815260200160002060000160006101000a81548160ff021916908315150217905550808061175c90612660565b9150506116d3565b5050565b6117706118aa565b73ffffffffffffffffffffffffffffffffffffffff1661178e610f0e565b73ffffffffffffffffffffffffffffffffffffffff16146117e4576040517f08c379a00000000000000000000000000000000000000000000000000000000081526004016117db906126f4565b60405180910390fd5b565b60008060009054906101000a900473ffffffffffffffffffffffffffffffffffffffff169050816000806101000a81548173ffffffffffffffffffffffffffffffffffffffff021916908373ffffffffffffffffffffffffffffffffffffffff1602179055508173ffffffffffffffffffffffffffffffffffffffff168173ffffffffffffffffffffffffffffffffffffffff167f8be0079c531659141344cd1fd0a4f28419497f9722a3daafe3b4186f6b6457e060405160405180910390a35050565b600033905090565b6000604051905090565b600080fd5b600080fd5b60006fffffffffffffffffffffffffffffffff82169050919050565b6118eb816118c6565b81146118f657600080fd5b50565b600081359050611908816118e2565b92915050565b600060208284031215611924576119236118bc565b5b6000611932848285016118f9565b91505092915050565b611944816118c6565b82525050565b600060208201905061195f600083018461193b565b92915050565b7f4e487b7100000000000000000000000000000000000000000000000000000000600052602160045260246000fd5b600381106119a5576119a4611965565b5b50565b60008190506119b682611994565b919050565b60006119c6826119a8565b9050919050565b6119d6816119bb565b82525050565b60006020820190506119f160008301846119cd565b92915050565b6000819050919050565b611a0a816119f7565b82525050565b6000604082019050611a256000830185611a01565b611a326020830184611a01565b9392505050565b611a42816119f7565b8114611a4d57600080fd5b50565b600081359050611a5f81611a39565b92915050565b600060208284031215611a7b57611a7a6118bc565b5b6000611a8984828501611a50565b91505092915050565b600073ffffffffffffffffffffffffffffffffffffffff82169050919050565b6000611abd82611a92565b9050919050565b611acd81611ab2565b8114611ad857600080fd5b50565b600081359050611aea81611ac4565b92915050565b600060208284031215611b0657611b056118bc565b5b6000611b1484828501611adb565b91505092915050565b60008115159050919050565b611b3281611b1d565b82525050565b6000606082019050611b4d6000830186611b29565b611b5a602083018561193b565b611b67604083018461193b565b949350505050565b611b7881611ab2565b82525050565b6000602082019050611b936000830184611b6f565b92915050565b600080fd5b6000601f19601f8301169050919050565b7f4e487b7100000000000000000000000000000000000000000000000000000000600052604160045260246000fd5b611be782611b9e565b810181811067ffffffffffffffff82111715611c0657611c05611baf565b5b80604052505050565b6000611c196118b2565b9050611c258282611bde565b919050565b600067ffffffffffffffff821115611c4557611c44611baf565b5b602082029050602081019050919050565b600080fd5b6000611c6e611c6984611c2a565b611c0f565b90508083825260208201905060208402830185811115611c9157611c90611c56565b5b835b81811015611cba5780611ca68882611adb565b845260208401935050602081019050611c93565b5050509392505050565b600082601f830112611cd957611cd8611b99565b5b8135611ce9848260208601611c5b565b91505092915050565b600060208284031215611d0857611d076118bc565b5b600082013567ffffffffffffffff811115611d2657611d256118c1565b5b611d3284828501611cc4565b91505092915050565b600082825260208201905092915050565b7f566f7573206e6520706f7576657a2070617320696e76657374697220706c757360008201527f2064652031303020303030202400000000000000000000000000000000000000602082015250565b6000611da8602d83611d3b565b9150611db382611d4c565b604082019050919050565b60006020820190508181036000830152611dd781611d9b565b9050919050565b7f4e487b7100000000000000000000000000000000000000000000000000000000600052601160045260246000fd5b6000611e18826118c6565b9150611e23836118c6565b9250828202611e31816118c6565b9150808214611e4357611e42611dde565b5b5092915050565b7f4e487b7100000000000000000000000000000000000000000000000000000000600052601260045260246000fd5b6000611e84826118c6565b9150611e8f836118c6565b925082611e9f57611e9e611e4a565b5b828204905092915050565b6000611eb5826118c6565b9150611ec0836118c6565b925082820390506fffffffffffffffffffffffffffffffff811115611ee857611ee7611dde565b5b92915050565b6000611ef9826118c6565b9150611f04836118c6565b925082820190506fffffffffffffffffffffffffffffffff811115611f2c57611f2b611dde565b5b92915050565b6000611f3d826119f7565b9150611f48836119f7565b9250828202611f56816119f7565b91508282048414831517611f6d57611f6c611dde565b5b5092915050565b6000611f7f826119f7565b9150611f8a836119f7565b925082611f9a57611f99611e4a565b5b828204905092915050565b7f566f7573206e6520706f7576657a2070617320696e76657374697220706f757260008201527f206c65206d6f6d656e7420210000000000000000000000000000000000000000602082015250565b6000612001602c83611d3b565b915061200c82611fa5565b604082019050919050565b6000602082019050818103600083015261203081611ff4565b9050919050565b7f4365206d6f6e74616e742065737420696e66657269657572206175206d6f6e7460008201527f616e74206d696e696d756d202100000000000000000000000000000000000000602082015250565b6000612093602d83611d3b565b915061209e82612037565b604082019050919050565b600060208201905081810360008301526120c281612086565b9050919050565b7f496c206e6520726573746520706c757320617373657a20646520746f6b656e7360008201527f20646973706f6e69626c65732021000000000000000000000000000000000000602082015250565b6000612125602e83611d3b565b9150612130826120c9565b604082019050919050565b6000602082019050818103600083015261215481612118565b9050919050565b7f566f7573206e276176657a2070617320617373657a2064274554482021000000600082015250565b6000612191601d83611d3b565b915061219c8261215b565b602082019050919050565b600060208201905081810360008301526121c081612184565b9050919050565b60006060820190506121dc6000830186611b6f565b6121e9602083018561193b565b6121f6604083018461193b565b949350505050565b60008151905061220d81611a39565b92915050565b600060208284031215612229576122286118bc565b5b6000612237848285016121fe565b91505092915050565b60006040820190506122556000830185611b6f565b6122626020830184611a01565b9392505050565b61227281611b1d565b811461227d57600080fd5b50565b60008151905061228f81612269565b92915050565b6000602082840312156122ab576122aa6118bc565b5b60006122b984828501612280565b91505092915050565b600081905092915050565b50565b60006122dd6000836122c2565b91506122e8826122cd565b600082019050919050565b60006122fe826122d0565b9150819050919050565b7f4661696c656420746f2073656e64204574686572000000000000000000000000600082015250565b600061233e601483611d3b565b915061234982612308565b602082019050919050565b6000602082019050818103600083015261236d81612331565b9050919050565b60006040820190506123896000830185611b6f565b6123966020830184611b6f565b9392505050565b7f566f7573206e276176657a2070617320617070726f757665206c65207472616e60008201527f7366657274206465205465746865722021000000000000000000000000000000602082015250565b60006123f9603183611d3b565b91506124048261239d565b604082019050919050565b60006020820190508181036000830152612428816123ec565b9050919050565b7f566f7573206e276176657a2070617320617373657a206465205465746865722060008201527f2100000000000000000000000000000000000000000000000000000000000000602082015250565b600061248b602183611d3b565b91506124968261242f565b604082019050919050565b600060208201905081810360008301526124ba8161247e565b9050919050565b6000819050919050565b60006124e66124e16124dc846118c6565b6124c1565b6119f7565b9050919050565b6124f6816124cb565b82525050565b60006060820190506125116000830186611b6f565b61251e6020830185611b6f565b61252b60408301846124ed565b949350505050565b7f5472616e736665722066726f6d206572726f7200000000000000000000000000600082015250565b6000612569601383611d3b565b915061257482612533565b602082019050919050565b600060208201905081810360008301526125988161255c565b9050919050565b7f4f776e61626c653a206e6577206f776e657220697320746865207a65726f206160008201527f6464726573730000000000000000000000000000000000000000000000000000602082015250565b60006125fb602683611d3b565b91506126068261259f565b604082019050919050565b6000602082019050818103600083015261262a816125ee565b9050919050565b7f4e487b7100000000000000000000000000000000000000000000000000000000600052603260045260246000fd5b600061266b826119f7565b91507fffffffffffffffffffffffffffffffffffffffffffffffffffffffffffffffff820361269d5761269c611dde565b5b600182019050919050565b7f4f776e61626c653a2063616c6c6572206973206e6f7420746865206f776e6572600082015250565b60006126de602083611d3b565b91506126e9826126a8565b602082019050919050565b6000602082019050818103600083015261270d816126d1565b905091905056fea264697066735822122030a66443e530c11403ffd5070fc547611866dfa01cc43380c6c1cb299a6e694764736f6c63430008110033",
  "immutableReferences": {},
  "source": "// SPDX-License-Identifier: MIT\r\npragma solidity 0.8.17;\r\n\r\nimport \"../node_modules/@openzeppelin/contracts/access/Ownable.sol\";\r\nimport \"../node_modules/@openzeppelin/contracts/token/ERC20/IERC20.sol\";\r\n\r\nimport \"../node_modules/@chainlink/contracts/src/v0.8/interfaces/AggregatorV3Interface.sol\";\r\n\r\n/**\r\n * @title Private Sale ANTK\r\n *\r\n * @notice This contract is a pre sale contract\r\n *\r\n * @dev Buyers can buy only with ETH or USDT\r\n * @dev Can add whitelists address to buy first\r\n *\r\n * @dev Implementation of the {IERC20} interface\r\n * @dev Implementation of the {Ownable} contract\r\n * @dev Implementation of the {AggregatorV3Interface} contract\r\n *\r\n */\r\n\r\ncontract AntkPrivateTest is Ownable {\r\n    /**\r\n     * @dev tether is the only ERC20 asset to buy ANTK\r\n     */\r\n    address usdt = 0x05e797F41f54e7Ef542775143B43f0B224B11760;\r\n\r\n    /**\r\n     * @dev numberOfTokenToSell is the number of ANTK to sell\r\n     * @dev It is update when someone buy\r\n     */\r\n    uint128 public numberOfTokenToSell = 500000000;\r\n\r\n    /// save informations about the buyers\r\n    struct Investor {\r\n        bool isWhitelisted;\r\n        uint128 numberOfTokensPurchased;\r\n        uint128 amountSpendInDollars;\r\n    }\r\n\r\n    /// buyer's address  => buyer's informations\r\n    mapping(address => Investor) public investors;\r\n\r\n    /// status of this sales contract\r\n    enum SalesStatus {\r\n        AdminTime,\r\n        SalesForWhitelist,\r\n        SalesForAll\r\n    }\r\n\r\n    /// salesStatus is the status of the sales\r\n    SalesStatus public salesStatus;\r\n\r\n    /// event when owner change status\r\n    event newStatus(SalesStatus newStatus);\r\n\r\n    /// event when someone buy\r\n    event TokensBuy(\r\n        address addressBuyer,\r\n        uint128 numberOfTokensPurchased,\r\n        uint128 amountSpendInDollars\r\n    );\r\n\r\n    /**\r\n     * @notice check that the purchase parameters are correct\r\n     * @dev called in function buy with ETH and buy with USDT\r\n     * @param _amount is the amount to buy in dollars\r\n     */\r\n    modifier requireToBuy(uint128 _amount) {\r\n        require(\r\n            (investors[msg.sender].isWhitelisted &&\r\n                salesStatus == SalesStatus(1)) || salesStatus == SalesStatus(2),\r\n            \"Vous ne pouvez pas investir pour le moment !\"\r\n        );\r\n        require(\r\n            _amount>=1,\r\n            \"Ce montant est inferieur au montant minimum !\"\r\n        );\r\n        require(\r\n            calculNumberOfTokenToBuy(_amount) <= numberOfTokenToSell,\r\n            \"Il ne reste plus assez de tokens disponibles !\"\r\n        );\r\n        _;\r\n    }\r\n\r\n    /**\r\n     * @notice add the address to the whitelist\r\n     * @dev only the Owner of the contract can call this function\r\n     * @param _address is an array of address\r\n     */\r\n    function setWhitelist(address[] memory _address) external onlyOwner {\r\n        for (uint256 i = 0; i < _address.length; i++) {\r\n            investors[_address[i]].isWhitelisted = true;\r\n        }\r\n    }\r\n\r\n    /**\r\n     * @notice change the status of the sale\r\n     * @dev only the Owner of the contract can call this function\r\n     * @param _idStatus is the id of the status\r\n     */\r\n    function changeSalesStatus(uint256 _idStatus) external onlyOwner {\r\n        salesStatus = SalesStatus(_idStatus);\r\n\r\n        emit newStatus(SalesStatus(_idStatus));\r\n    }\r\n\r\n    /**\r\n     * @notice calcul number of token to buy\r\n     * @dev this is a public function, called in the modifier and buy function\r\n     * @dev we use it with the dapp to show the number of token to buy\r\n     * @param _amountDollars is the amount to buy in dollars\r\n     */\r\n    function calculNumberOfTokenToBuy(uint128 _amountDollars)\r\n        public\r\n        view\r\n        returns (uint128)\r\n    {\r\n        require(\r\n            _amountDollars <= 100000,\r\n            \"Vous ne pouvez pas investir plus de 100 000 $\"\r\n        );\r\n        if (numberOfTokenToSell > 400000000) {\r\n            if (\r\n                (numberOfTokenToSell - (_amountDollars * 10000) / 6) >=\r\n                400000000\r\n            ) return (_amountDollars * 10000) / 6;\r\n            else {\r\n                return\r\n                    (numberOfTokenToSell - 400000000) +\r\n                    ((_amountDollars -\r\n                        (((numberOfTokenToSell - 400000000) * 6) / 10000)) /\r\n                        8) *\r\n                    10000;\r\n            }\r\n        } else if (numberOfTokenToSell > 300000000) {\r\n            if (\r\n                (numberOfTokenToSell - (_amountDollars * 10000) / 8) >=\r\n                300000000\r\n            ) return (_amountDollars * 10000) / 8;\r\n            else {\r\n                return\r\n                    (numberOfTokenToSell - 300000000) +\r\n                    (_amountDollars -\r\n                        (((numberOfTokenToSell - 300000000) * 8) / 10000)) *\r\n                    1000;\r\n            }\r\n        } else {\r\n            return _amountDollars * 1000;\r\n        }\r\n    }\r\n\r\n    /**\r\n     * @notice buy ANTK with USDT\r\n     * @param _amountDollars is the amount to buy in dollars\r\n     */\r\n    function buyTokenWithTether(uint128 _amountDollars)\r\n        external\r\n        requireToBuy(_amountDollars)\r\n    {\r\n        require(\r\n            IERC20(usdt).allowance(msg.sender, address(this)) >=\r\n                _amountDollars * 10**6,\r\n            \"Vous n'avez pas approuve le transfert de Tether !\"\r\n        );\r\n        require(\r\n            IERC20(usdt).balanceOf(msg.sender) >= _amountDollars * 10**6,\r\n            \"Vous n'avez pas assez de Tether !\"\r\n        );\r\n\r\n        uint128 numberOfTokenToBuy = calculNumberOfTokenToBuy(_amountDollars);\r\n\r\n        bool result = IERC20(usdt).transferFrom(\r\n            msg.sender,\r\n            address(this),\r\n            _amountDollars * 10**6\r\n        );\r\n        require(result, \"Transfer from error\");\r\n\r\n        investors[msg.sender]\r\n            .numberOfTokensPurchased += numberOfTokenToBuy;\r\n        investors[msg.sender].amountSpendInDollars += _amountDollars;\r\n\r\n        emit TokensBuy(\r\n            msg.sender,\r\n            numberOfTokenToBuy,\r\n            _amountDollars\r\n        );\r\n\r\n        numberOfTokenToSell -= numberOfTokenToBuy;\r\n    }\r\n\r\n    /**\r\n     * @notice Get price of ETH in $ with Chainlink\r\n     */\r\n    function getLatestPrice() public pure returns (uint128) {\r\n        // AggregatorV3Interface priceFeed = AggregatorV3Interface(\r\n        //     0x5f4eC3Df9cbd43714FE2740f5E3616155c5b8419\r\n        // );\r\n        // (, int256 price, , , ) = priceFeed.latestRoundData();\r\n        uint256 price = 150000000000;\r\n        return uint128(uint256(price));\r\n    }\r\n\r\n    /**\r\n     * @notice buy ANTK with ETH\r\n     * @dev msg.value is the amount of ETH to send buy the buyer\r\n     */\r\n    function buyTokenWithEth()\r\n        external\r\n        payable\r\n        requireToBuy(uint128((msg.value * getLatestPrice()) / 10**26))\r\n    {\r\n        require(\r\n            msg.sender.balance > msg.value,\r\n            \"Vous n'avez pas assez d'ETH !\"\r\n        );\r\n        uint128 amountInDollars = uint128(\r\n            (msg.value * getLatestPrice()) / 10**26\r\n        );\r\n\r\n        uint128 numberOfTokenToBuy = calculNumberOfTokenToBuy(amountInDollars);\r\n\r\n        investors[msg.sender]\r\n            .numberOfTokensPurchased += numberOfTokenToBuy;\r\n        investors[msg.sender].amountSpendInDollars += amountInDollars;\r\n\r\n        emit TokensBuy(\r\n            msg.sender,\r\n            numberOfTokenToBuy,\r\n            amountInDollars\r\n        );\r\n\r\n        numberOfTokenToSell -= numberOfTokenToBuy;\r\n    }\r\n\r\n    /**\r\n     * @notice send the USDT and the ETH to ANTK company\r\n     * @dev only the Owner of the contract can call this function\r\n     */\r\n    function getFunds() external onlyOwner {\r\n        IERC20(usdt).transfer(owner(), IERC20(usdt).balanceOf(address(this)));\r\n\r\n        (bool sent, ) = owner().call{value: address(this).balance}(\"\");\r\n        require(sent, \"Failed to send Ether\");\r\n    }\r\n\r\n    /**\r\n     * @notice see the USDT and the ETH on the contract\r\n     */\r\n    function seeFunds() external view returns (uint256 USDT, uint256 ETH) {\r\n        return (IERC20(usdt).balanceOf(address(this)), address(this).balance);\r\n    }\r\n}\r\n\r\n// ETH/USD Chainlink (ETH Mainet): 0x5f4eC3Df9cbd43714FE2740f5E3616155c5b8419 (8 dcimales)\r\n// ETH/USD Chainlink (ETH Goerli Testnet): 0xD4a33860578De61DBAbDc8BFdb98FD742fA7028e (8 dcimales)\r\n\r\n// USDT mainet address 0xdAC17F958D2ee523a2206206994597C13D831ec7 (6 dcimales)\r\n// USDC Ropsten for tests : 0x07865c6E87B9F70255377e024ace6630C1Eaa37F (6 dcimales)\r\n\r\n//Interface     function investors (address _address) external view returns\r\n//(bool isWhitelisted, address referrer, uint numberOfTokensPurchased, uint amountSpendInDollars, string memory asset);\r\n\r\n// function getOwnerBalance(address addr) public view returns (uint) {\r\n//     return addr.balance;\r\n// }\r\n\r\n// [0x1dCDc0A79dac4ff8Ed895453dFE89402f7248D04,0xdCCfba966ee4d796099F987e32ceb104C7FC6653,0x7569Bd912eBB96b427DD33A1Dfbcb0A04235B97f,0x5Ced2f3EE793Ec0106cf8C9b2dc9b0b2CAFc5c52,0x90707B780319c7cA040c7c6B041E285f837E130B,0x6E4294AAfb21Df95Bb0578E104E791EeFE378c7B,0x51eE6aE0c3574C7d39084280389e57Bf02fe09a5,0x1Bf9Ee786B600A294DFd0151D1aF027a286A8f4B,0x311EEfAE053Eeb0fB77C750Ee3d84dFd88B2c5b5,0x39C4Ce965b9F81de90D5F91127afB807bdd1F705,0x4412d9ec2Fc336C28D0bfFeE7aF70fb34eA0ad73,0x726C04AA475B0A3Ab02c462aA38018a1Cd483A31,0x54d5d33C8E70A87edBFE24BbF7eFf4353CD3a460,0x4005De8557D796631dA6539D3d11a715485Eb03C,0xC895f2a7E0e338F7996fE1E0233c22a24a2A2359,0x7C61135E243Fa101B6Cc0F166e341A034b208420,0x5eC00cD9ff8b2D14d968B440879D335AE7bB5EC7,0x7b50aF1EC8E6634B88d7dAb4e785Bc852f1ef130,0xc16E917FaB5e13FDfe9E319522A6d9844d481C8d,0x29903927DAA5b70BE16178Cb6F955C8DE144ecEE,0x2DbA0f48cdaA3A3E95a342bA2C2ce41F64E30994,0x23e9cCf6Fbaf8A6ACc0162a7cC19A25983407260,0x4589bF02926c184E1a26E2698e9d79acaB7A33f8,0x8ff48d01152C8116404E6a3347d15E39992cc32b,0xC8E59966D04aa1297583950e4FfE7Fb25084bC95,0x622BFeb402067662acFb40Ba68df9804c7d6BccA,0x84A651d21d432BdF4804f8bc44D978F0dd653475,0x19E35115C0d4E1036eEB963bc5400a37b513c72A,0x7D401190854336dE8F6F3060C464783c327abeA2,0x1dB8bca1761286345117D71dc6604f6Bc84ECFcB]\r\n// [0x1dCDc0A79dac4ff8Ed895453dFE89402f7248D04,0xdCCfba966ee4d796099F987e32ceb104C7FC6653,0x7569Bd912eBB96b427DD33A1Dfbcb0A04235B97f]",
  "sourcePath": "E:\\Projets\\Antk\\Dapp\\truffle\\contracts\\AntkPrivateTest.sol",
  "compiler": {
    "name": "solc",
    "version": "0.8.17+commit.8df45f5f.Emscripten.clang"
  },
  "schemaVersion": "3.4.9",
  "updatedAt": "2022-09-16T11:03:50.831Z",
  "networkType": "ethereum",
  "devdoc": {
    "details": "Buyers can buy only with ETH or USDTCan add whitelists address to buy firstImplementation of the {IERC20} interfaceImplementation of the {Ownable} contractImplementation of the {AggregatorV3Interface} contract",
    "kind": "dev",
    "methods": {
      "buyTokenWithEth()": {
        "details": "msg.value is the amount of ETH to send buy the buyer"
      },
      "buyTokenWithTether(uint128)": {
        "params": {
          "_amountDollars": "is the amount to buy in dollars"
        }
      },
      "calculNumberOfTokenToBuy(uint128)": {
        "details": "this is a public function, called in the modifier and buy functionwe use it with the dapp to show the number of token to buy",
        "params": {
          "_amountDollars": "is the amount to buy in dollars"
        }
      },
      "changeSalesStatus(uint256)": {
        "details": "only the Owner of the contract can call this function",
        "params": {
          "_idStatus": "is the id of the status"
        }
      },
      "getFunds()": {
        "details": "only the Owner of the contract can call this function"
      },
      "owner()": {
        "details": "Returns the address of the current owner."
      },
      "renounceOwnership()": {
        "details": "Leaves the contract without owner. It will not be possible to call `onlyOwner` functions anymore. Can only be called by the current owner. NOTE: Renouncing ownership will leave the contract without an owner, thereby removing any functionality that is only available to the owner."
      },
      "setWhitelist(address[])": {
        "details": "only the Owner of the contract can call this function",
        "params": {
          "_address": "is an array of address"
        }
      },
      "transferOwnership(address)": {
        "details": "Transfers ownership of the contract to a new account (`newOwner`). Can only be called by the current owner."
      }
    },
    "stateVariables": {
      "numberOfTokenToSell": {
        "details": "numberOfTokenToSell is the number of ANTK to sellIt is update when someone buy"
      },
      "usdt": {
        "details": "tether is the only ERC20 asset to buy ANTK"
      }
    },
    "title": "Private Sale ANTK",
    "version": 1
  },
  "userdoc": {
    "events": {
      "TokensBuy(address,uint128,uint128)": {
        "notice": "event when someone buy"
      },
      "newStatus(uint8)": {
        "notice": "event when owner change status"
      }
    },
    "kind": "user",
    "methods": {
      "buyTokenWithEth()": {
        "notice": "buy ANTK with ETH"
      },
      "buyTokenWithTether(uint128)": {
        "notice": "buy ANTK with USDT"
      },
      "calculNumberOfTokenToBuy(uint128)": {
        "notice": "calcul number of token to buy"
      },
      "changeSalesStatus(uint256)": {
        "notice": "change the status of the sale"
      },
      "getFunds()": {
        "notice": "send the USDT and the ETH to ANTK company"
      },
      "getLatestPrice()": {
        "notice": "Get price of ETH in $ with Chainlink"
      },
      "investors(address)": {
        "notice": "buyer's address  => buyer's informations"
      },
      "salesStatus()": {
        "notice": "salesStatus is the status of the sales"
      },
      "seeFunds()": {
        "notice": "see the USDT and the ETH on the contract"
      },
      "setWhitelist(address[])": {
        "notice": "add the address to the whitelist"
      }
    },
    "notice": "This contract is a pre sale contract",
    "version": 1
  }
}